{"abi":[{"type":"function","name":"balanceReceived","inputs":[{"name":"","type":"address","internalType":"address"}],"outputs":[{"name":"","type":"uint256","internalType":"uint256"}],"stateMutability":"view"},{"type":"function","name":"receiveMoney","inputs":[],"outputs":[],"stateMutability":"payable"},{"type":"function","name":"withdrawMoney","inputs":[{"name":"_to","type":"address","internalType":"address payable"},{"name":"_amount","type":"uint256","internalType":"uint256"}],"outputs":[],"stateMutability":"nonpayable"}],"bytecode":{"object":"0x6080604052348015600e575f5ffd5b506104c48061001c5f395ff3fe608060405260043610610033575f3560e01c80636d26ec1814610037578063d18a42e114610041578063f274c8971461007d575b5f5ffd5b61003f6100a5565b005b34801561004c575f5ffd5b5061006760048036038101906100629190610284565b6100f9565b60405161007491906102c7565b60405180910390f35b348015610088575f5ffd5b506100a3600480360381019061009e9190610345565b61010d565b005b345f5f3373ffffffffffffffffffffffffffffffffffffffff1673ffffffffffffffffffffffffffffffffffffffff1681526020019081526020015f205f8282546100f091906103b0565b92505081905550565b5f602052805f5260405f205f915090505481565b5f5f3373ffffffffffffffffffffffffffffffffffffffff1673ffffffffffffffffffffffffffffffffffffffff1681526020019081526020015f205481111561018c576040517f08c379a00000000000000000000000000000000000000000000000000000000081526004016101839061043d565b60405180910390fd5b805f5f3373ffffffffffffffffffffffffffffffffffffffff1673ffffffffffffffffffffffffffffffffffffffff1681526020019081526020015f205f8282546101d7919061045b565b925050819055508173ffffffffffffffffffffffffffffffffffffffff166108fc8290811502906040515f60405180830381858888f19350505050158015610221573d5f5f3e3d5ffd5b505050565b5f5ffd5b5f73ffffffffffffffffffffffffffffffffffffffff82169050919050565b5f6102538261022a565b9050919050565b61026381610249565b811461026d575f5ffd5b50565b5f8135905061027e8161025a565b92915050565b5f6020828403121561029957610298610226565b5b5f6102a684828501610270565b91505092915050565b5f819050919050565b6102c1816102af565b82525050565b5f6020820190506102da5f8301846102b8565b92915050565b5f6102ea8261022a565b9050919050565b6102fa816102e0565b8114610304575f5ffd5b50565b5f81359050610315816102f1565b92915050565b610324816102af565b811461032e575f5ffd5b50565b5f8135905061033f8161031b565b92915050565b5f5f6040838503121561035b5761035a610226565b5b5f61036885828601610307565b925050602061037985828601610331565b9150509250929050565b7f4e487b71000000000000000000000000000000000000000000000000000000005f52601160045260245ffd5b5f6103ba826102af565b91506103c5836102af565b92508282019050808211156103dd576103dc610383565b5b92915050565b5f82825260208201905092915050565b7f4e6f7420656e6f7567682066756e64732c2061626f7274696e672100000000005f82015250565b5f610427601b836103e3565b9150610432826103f3565b602082019050919050565b5f6020820190508181035f8301526104548161041b565b9050919050565b5f610465826102af565b9150610470836102af565b925082820390508181111561048857610487610383565b5b9291505056fea2646970667358221220a7a229e458b825d765124c5a54559bd86702938b5dd5236e0e9aa4f935a2a0be64736f6c634300081e0033","linkReferences":{}},"methodIdentifiers":{"balanceReceived(address)":"d18a42e1","receiveMoney()":"6d26ec18","withdrawMoney(address,uint256)":"f274c897"},"id":16}