{"abi":[{"type":"function","name":"myAddressMapping","inputs":[{"name":"","type":"address","internalType":"address"}],"outputs":[{"name":"","type":"bool","internalType":"bool"}],"stateMutability":"view"},{"type":"function","name":"myMapping","inputs":[{"name":"","type":"uint256","internalType":"uint256"}],"outputs":[{"name":"","type":"bool","internalType":"bool"}],"stateMutability":"view"},{"type":"function","name":"setMyAddressToTrue","inputs":[],"outputs":[],"stateMutability":"nonpayable"},{"type":"function","name":"setUintUintBoolMapping","inputs":[{"name":"_key1","type":"uint256","internalType":"uint256"},{"name":"_key2","type":"uint256","internalType":"uint256"},{"name":"_value","type":"bool","internalType":"bool"}],"outputs":[],"stateMutability":"nonpayable"},{"type":"function","name":"setValue","inputs":[{"name":"_index","type":"uint256","internalType":"uint256"}],"outputs":[],"stateMutability":"nonpayable"},{"type":"function","name":"uintUintBoolMapping","inputs":[{"name":"","type":"uint256","internalType":"uint256"},{"name":"","type":"uint256","internalType":"uint256"}],"outputs":[{"name":"","type":"bool","internalType":"bool"}],"stateMutability":"view"}],"bytecode":{"object":"0x6080604052348015600e575f5ffd5b5061045e8061001c5f395ff3fe608060405234801561000f575f5ffd5b5060043610610060575f3560e01c80635524107714610064578063634899ce146100805780637c6688441461008a578063b92ba3b8146100ba578063bc65030e146100ea578063ef5d568414610106575b5f5ffd5b61007e6004803603810190610079919061028d565b610136565b005b610088610161565b005b6100a4600480360381019061009f919061028d565b6101b7565b6040516100b191906102d2565b60405180910390f35b6100d460048036038101906100cf9190610345565b6101d3565b6040516100e191906102d2565b60405180910390f35b61010460048036038101906100ff919061039a565b6101f0565b005b610120600480360381019061011b91906103ea565b61022c565b60405161012d91906102d2565b60405180910390f35b60015f5f8381526020019081526020015f205f6101000a81548160ff02191690831515021790555050565b6001805f3373ffffffffffffffffffffffffffffffffffffffff1673ffffffffffffffffffffffffffffffffffffffff1681526020019081526020015f205f6101000a81548160ff021916908315150217905550565b5f602052805f5260405f205f915054906101000a900460ff1681565b6001602052805f5260405f205f915054906101000a900460ff1681565b8060025f8581526020019081526020015f205f8481526020019081526020015f205f6101000a81548160ff021916908315150217905550505050565b6002602052815f5260405f20602052805f5260405f205f915091509054906101000a900460ff1681565b5f5ffd5b5f819050919050565b61026c8161025a565b8114610276575f5ffd5b50565b5f8135905061028781610263565b92915050565b5f602082840312156102a2576102a1610256565b5b5f6102af84828501610279565b91505092915050565b5f8115159050919050565b6102cc816102b8565b82525050565b5f6020820190506102e55f8301846102c3565b92915050565b5f73ffffffffffffffffffffffffffffffffffffffff82169050919050565b5f610314826102eb565b9050919050565b6103248161030a565b811461032e575f5ffd5b50565b5f8135905061033f8161031b565b92915050565b5f6020828403121561035a57610359610256565b5b5f61036784828501610331565b91505092915050565b610379816102b8565b8114610383575f5ffd5b50565b5f8135905061039481610370565b92915050565b5f5f5f606084860312156103b1576103b0610256565b5b5f6103be86828701610279565b93505060206103cf86828701610279565b92505060406103e086828701610386565b9150509250925092565b5f5f60408385031215610400576103ff610256565b5b5f61040d85828601610279565b925050602061041e85828601610279565b915050925092905056fea2646970667358221220932664ea4ac0cdbd3d39fae9c00670c20b78adae689baf9f9a8817bd14ccd4d664736f6c634300081e0033","linkReferences":{}},"methodIdentifiers":{"myAddressMapping(address)":"b92ba3b8","myMapping(uint256)":"7c668844","setMyAddressToTrue()":"634899ce","setUintUintBoolMapping(uint256,uint256,bool)":"bc65030e","setValue(uint256)":"55241077","uintUintBoolMapping(uint256,uint256)":"ef5d5684"},"id":12}