{"abi":[{"type":"function","name":"myString","inputs":[],"outputs":[{"name":"","type":"string","internalType":"string"}],"stateMutability":"view"},{"type":"function","name":"updateString","inputs":[{"name":"_newString","type":"string","internalType":"string"}],"outputs":[],"stateMutability":"payable"}],"bytecode":{"object":"0x60806040526040518060400160405280600b81526020017f48656c6c6f20576f726c640000000000000000000000000000000000000000008152505f90816100479190610296565b50348015610053575f5ffd5b50610365565b5f81519050919050565b7f4e487b71000000000000000000000000000000000000000000000000000000005f52604160045260245ffd5b7f4e487b71000000000000000000000000000000000000000000000000000000005f52602260045260245ffd5b5f60028204905060018216806100d457607f821691505b6020821081036100e7576100e6610090565b5b50919050565b5f819050815f5260205f209050919050565b5f6020601f8301049050919050565b5f82821b905092915050565b5f600883026101497fffffffffffffffffffffffffffffffffffffffffffffffffffffffffffffffff8261010e565b610153868361010e565b95508019841693508086168417925050509392505050565b5f819050919050565b5f819050919050565b5f61019761019261018d8461016b565b610174565b61016b565b9050919050565b5f819050919050565b6101b08361017d565b6101c46101bc8261019e565b84845461011a565b825550505050565b5f5f905090565b6101db6101cc565b6101e68184846101a7565b505050565b5b81811015610209576101fe5f826101d3565b6001810190506101ec565b5050565b601f82111561024e5761021f816100ed565b610228846100ff565b81016020851015610237578190505b61024b610243856100ff565b8301826101eb565b50505b505050565b5f82821c905092915050565b5f61026e5f1984600802610253565b1980831691505092915050565b5f610286838361025f565b9150826002028217905092915050565b61029f82610059565b67ffffffffffffffff8111156102b8576102b7610063565b5b6102c282546100bd565b6102cd82828561020d565b5f60209050601f8311600181146102fe575f84156102ec578287015190505b6102f6858261027b565b86555061035d565b601f19841661030c866100ed565b5f5b828110156103335784890151825560018201915060208501945060208101905061030e565b86831015610350578489015161034c601f89168261025f565b8355505b6001600288020188555050505b505050505050565b610687806103725f395ff3fe608060405260043610610028575f3560e01c8063492bfa181461002c578063c3ccf40214610056575b5f5ffd5b348015610037575f5ffd5b50610040610072565b60405161004d91906101d8565b60405180910390f35b610070600480360381019061006b9190610335565b6100fd565b005b5f805461007e906103a9565b80601f01602080910402602001604051908101604052809291908181526020018280546100aa906103a9565b80156100f55780601f106100cc576101008083540402835291602001916100f5565b820191905f5260205f20905b8154815290600101906020018083116100d857829003601f168201915b505050505081565b670de0b6b3a7640000340361012057805f908161011a9190610582565b50610165565b3373ffffffffffffffffffffffffffffffffffffffff166108fc3490811502906040515f60405180830381858888f19350505050158015610163573d5f5f3e3d5ffd5b505b50565b5f81519050919050565b5f82825260208201905092915050565b8281835e5f83830152505050565b5f601f19601f8301169050919050565b5f6101aa82610168565b6101b48185610172565b93506101c4818560208601610182565b6101cd81610190565b840191505092915050565b5f6020820190508181035f8301526101f081846101a0565b905092915050565b5f604051905090565b5f5ffd5b5f5ffd5b5f5ffd5b5f5ffd5b7f4e487b71000000000000000000000000000000000000000000000000000000005f52604160045260245ffd5b61024782610190565b810181811067ffffffffffffffff8211171561026657610265610211565b5b80604052505050565b5f6102786101f8565b9050610284828261023e565b919050565b5f67ffffffffffffffff8211156102a3576102a2610211565b5b6102ac82610190565b9050602081019050919050565b828183375f83830152505050565b5f6102d96102d484610289565b61026f565b9050828152602081018484840111156102f5576102f461020d565b5b6103008482856102b9565b509392505050565b5f82601f83011261031c5761031b610209565b5b813561032c8482602086016102c7565b91505092915050565b5f6020828403121561034a57610349610201565b5b5f82013567ffffffffffffffff81111561036757610366610205565b5b61037384828501610308565b91505092915050565b7f4e487b71000000000000000000000000000000000000000000000000000000005f52602260045260245ffd5b5f60028204905060018216806103c057607f821691505b6020821081036103d3576103d261037c565b5b50919050565b5f819050815f5260205f209050919050565b5f6020601f8301049050919050565b5f82821b905092915050565b5f600883026104357fffffffffffffffffffffffffffffffffffffffffffffffffffffffffffffffff826103fa565b61043f86836103fa565b95508019841693508086168417925050509392505050565b5f819050919050565b5f819050919050565b5f61048361047e61047984610457565b610460565b610457565b9050919050565b5f819050919050565b61049c83610469565b6104b06104a88261048a565b848454610406565b825550505050565b5f5f905090565b6104c76104b8565b6104d2818484610493565b505050565b5b818110156104f5576104ea5f826104bf565b6001810190506104d8565b5050565b601f82111561053a5761050b816103d9565b610514846103eb565b81016020851015610523578190505b61053761052f856103eb565b8301826104d7565b50505b505050565b5f82821c905092915050565b5f61055a5f198460080261053f565b1980831691505092915050565b5f610572838361054b565b9150826002028217905092915050565b61058b82610168565b67ffffffffffffffff8111156105a4576105a3610211565b5b6105ae82546103a9565b6105b98282856104f9565b5f60209050601f8311600181146105ea575f84156105d8578287015190505b6105e28582610567565b865550610649565b601f1984166105f8866103d9565b5f5b8281101561061f578489015182556001820191506020850194506020810190506105fa565b8683101561063c5784890151610638601f89168261054b565b8355505b6001600288020188555050505b50505050505056fea2646970667358221220dd21468cbd17616a0e70f242cf4da8723e22bf2a319ef0d1a119e015d2f74e7b64736f6c634300081e0033","linkReferences":{}},"methodIdentifiers":{"myString()":"492bfa18","updateString(string)":"c3ccf402"},"id":9}