{"abi":[{"type":"receive","stateMutability":"payable"},{"type":"function","name":"depositOnContractOne","inputs":[{"name":"_contractOne","type":"address","internalType":"address"}],"outputs":[],"stateMutability":"nonpayable"}],"bytecode":{"object":"0x6080604052348015600e575f5ffd5b506102808061001c5f395ff3fe608060405260043610610021575f3560e01c8063ac1dddca1461002c57610028565b3661002857005b5f5ffd5b348015610037575f5ffd5b50610052600480360381019061004d91906101b7565b610054565b005b5f6040516024016040516020818303038152906040527fd0e30db0000000000000000000000000000000000000000000000000000000007bffffffffffffffffffffffffffffffffffffffffffffffffffffffff19166020820180517bffffffffffffffffffffffffffffffffffffffffffffffffffffffff838183161783525050505090505f8273ffffffffffffffffffffffffffffffffffffffff16600a620186a090846040516101079190610234565b5f60405180830381858888f193505050503d805f8114610142576040519150601f19603f3d011682016040523d82523d5f602084013e610147565b606091505b5050905080610154575f5ffd5b505050565b5f5ffd5b5f73ffffffffffffffffffffffffffffffffffffffff82169050919050565b5f6101868261015d565b9050919050565b6101968161017c565b81146101a0575f5ffd5b50565b5f813590506101b18161018d565b92915050565b5f602082840312156101cc576101cb610159565b5b5f6101d9848285016101a3565b91505092915050565b5f81519050919050565b5f81905092915050565b8281835e5f83830152505050565b5f61020e826101e2565b61021881856101ec565b93506102288185602086016101f6565b80840191505092915050565b5f61023f8284610204565b91508190509291505056fea26469706673582212200a2d899117107dec96f1ee4cb5fab674085c29d9911fc2b6c48d3a6179c219bb64736f6c634300081e0033","linkReferences":{}},"methodIdentifiers":{"depositOnContractOne(address)":"ac1dddca"},"id":20}