{"abi":[{"type":"function","name":"addressBalances","inputs":[{"name":"","type":"address","internalType":"address"}],"outputs":[{"name":"","type":"uint256","internalType":"uint256"}],"stateMutability":"view"},{"type":"function","name":"deposit","inputs":[],"outputs":[],"stateMutability":"payable"}],"bytecode":{"object":"0x6080604052348015600e575f5ffd5b5061022a8061001c5f395ff3fe608060405260043610610028575f3560e01c806379fc36821461002c578063d0e30db014610068575b5f5ffd5b348015610037575f5ffd5b50610052600480360381019061004d9190610138565b610072565b60405161005f919061017b565b60405180910390f35b610070610086565b005b5f602052805f5260405f205f915090505481565b345f5f3373ffffffffffffffffffffffffffffffffffffffff1673ffffffffffffffffffffffffffffffffffffffff1681526020019081526020015f205f8282546100d191906101c1565b92505081905550565b5f5ffd5b5f73ffffffffffffffffffffffffffffffffffffffff82169050919050565b5f610107826100de565b9050919050565b610117816100fd565b8114610121575f5ffd5b50565b5f813590506101328161010e565b92915050565b5f6020828403121561014d5761014c6100da565b5b5f61015a84828501610124565b91505092915050565b5f819050919050565b61017581610163565b82525050565b5f60208201905061018e5f83018461016c565b92915050565b7f4e487b71000000000000000000000000000000000000000000000000000000005f52601160045260245ffd5b5f6101cb82610163565b91506101d683610163565b92508282019050808211156101ee576101ed610194565b5b9291505056fea2646970667358221220cac34cbb5f2bdb7b8382c2054d962cdefff6074247eb81787693c1fa1334e1e064736f6c634300081e0033","linkReferences":{}},"methodIdentifiers":{"addressBalances(address)":"79fc3682","deposit()":"d0e30db0"},"id":20}