{"abi":[{"type":"function","name":"createItem","inputs":[{"name":"_identifier","type":"string","internalType":"string"},{"name":"_priceInWei","type":"uint256","internalType":"uint256"}],"outputs":[],"stateMutability":"nonpayable"},{"type":"function","name":"isOwner","inputs":[],"outputs":[{"name":"","type":"bool","internalType":"bool"}],"stateMutability":"view"},{"type":"function","name":"itemIndex","inputs":[],"outputs":[{"name":"","type":"uint256","internalType":"uint256"}],"stateMutability":"view"},{"type":"function","name":"items","inputs":[{"name":"","type":"uint256","internalType":"uint256"}],"outputs":[{"name":"item","type":"address","internalType":"contract Item"},{"name":"step","type":"uint8","internalType":"enum ItemManager.SupplyChainSteps"},{"name":"identifier","type":"string","internalType":"string"}],"stateMutability":"view"},{"type":"function","name":"owner","inputs":[],"outputs":[{"name":"","type":"address","internalType":"address"}],"stateMutability":"view"},{"type":"function","name":"triggerDelivery","inputs":[{"name":"_index","type":"uint256","internalType":"uint256"}],"outputs":[],"stateMutability":"nonpayable"},{"type":"function","name":"triggerPayment","inputs":[{"name":"_index","type":"uint256","internalType":"uint256"}],"outputs":[],"stateMutability":"payable"},{"type":"event","name":"OwnershipTransferred","inputs":[{"name":"previousOwner","type":"address","indexed":true,"internalType":"address"},{"name":"newOwner","type":"address","indexed":true,"internalType":"address"}],"anonymous":false},{"type":"event","name":"SupplyChainStep","inputs":[{"name":"itemIndex","type":"uint256","indexed":true,"internalType":"uint256"},{"name":"step","type":"uint256","indexed":false,"internalType":"uint256"},{"name":"itemAddress","type":"address","indexed":false,"internalType":"address"}],"anonymous":false}],"bytecode":{"object":"0x608060405234801561000f575f80fd5b50335f806101000a81548173ffffffffffffffffffffffffffffffffffffffff021916908373ffffffffffffffffffffffffffffffffffffffff1602179055503373ffffffffffffffffffffffffffffffffffffffff165f73ffffffffffffffffffffffffffffffffffffffff167f8be0079c531659141344cd1fd0a4f28419497f9722a3daafe3b4186f6b6457e060405160405180910390a3611c3d806100b65f395ff3fe60806040526004361062000079575f3560e01c80638f32d59b11620000545780638f32d59b14620000f9578063bfb231d21462000128578063cd31831e146200016d578063e07bb1a7146200019a5762000079565b8063800fb83f146200007d5780638c551742146200009d5780638da5cb5b14620000ca575b5f80fd5b6200009b6004803603810190620000959190620009d9565b620001c9565b005b348015620000a9575f80fd5b50620000c86004803603810190620000c2919062000b61565b62000447565b005b348015620000d6575f80fd5b50620000e162000640565b604051620000f0919062000c08565b60405180910390f35b34801562000105575f80fd5b506200011062000663565b6040516200011f919062000c3f565b60405180910390f35b34801562000134575f80fd5b506200015360048036038101906200014d9190620009d9565b620006b8565b604051620001649392919062000dc1565b60405180910390f35b34801562000179575f80fd5b50620001986004803603810190620001929190620009d9565b62000797565b005b348015620001a6575f80fd5b50620001b16200097c565b604051620001c0919062000e14565b60405180910390f35b5f60015f8381526020019081526020015f205f015f9054906101000a900473ffffffffffffffffffffffffffffffffffffffff1690503373ffffffffffffffffffffffffffffffffffffffff168173ffffffffffffffffffffffffffffffffffffffff161462000270576040517f08c379a0000000000000000000000000000000000000000000000000000000008152600401620002679062000ea3565b60405180910390fd5b348173ffffffffffffffffffffffffffffffffffffffff16633c8da5886040518163ffffffff1660e01b8152600401602060405180830381865afa158015620002bb573d5f803e3d5ffd5b505050506040513d601f19601f82011682018060405250810190620002e1919062000ed9565b1462000324576040517f08c379a00000000000000000000000000000000000000000000000000000000081526004016200031b9062000f57565b60405180910390fd5b5f60028111156200033a576200033962000cc1565b5b60015f8481526020019081526020015f205f0160149054906101000a900460ff16600281111562000370576200036f62000cc1565b5b14620003b3576040517f08c379a0000000000000000000000000000000000000000000000000000000008152600401620003aa9062000feb565b60405180910390fd5b6001805f8481526020019081526020015f205f0160146101000a81548160ff02191690836002811115620003ec57620003eb62000cc1565b5b0217905550817fa4035636e99f06b7651a604c1019fa4e8779fe68ef27eeb74dff2de348f6199b600160028111156200042a576200042962000cc1565b5b836040516200043b9291906200100b565b60405180910390a25050565b5f8054906101000a900473ffffffffffffffffffffffffffffffffffffffff1673ffffffffffffffffffffffffffffffffffffffff163373ffffffffffffffffffffffffffffffffffffffff1614620004d7576040517f08c379a0000000000000000000000000000000000000000000000000000000008152600401620004ce9062001084565b60405180910390fd5b5f3082600254604051620004eb9062000982565b620004f993929190620010a4565b604051809103905ff08015801562000513573d5f803e3d5ffd5b5090508060015f60025481526020019081526020015f205f015f6101000a81548173ffffffffffffffffffffffffffffffffffffffff021916908373ffffffffffffffffffffffffffffffffffffffff1602179055505f60015f60025481526020019081526020015f205f0160146101000a81548160ff02191690836002811115620005a457620005a362000cc1565b5b02179055508260015f60025481526020019081526020015f206001019081620005ce9190620012fa565b506002547fa4035636e99f06b7651a604c1019fa4e8779fe68ef27eeb74dff2de348f6199b5f600281111562000609576200060862000cc1565b5b836040516200061a9291906200100b565b60405180910390a260025f81548092919062000636906200140b565b9190505550505050565b5f8054906101000a900473ffffffffffffffffffffffffffffffffffffffff1681565b5f805f9054906101000a900473ffffffffffffffffffffffffffffffffffffffff1673ffffffffffffffffffffffffffffffffffffffff163373ffffffffffffffffffffffffffffffffffffffff1614905090565b6001602052805f5260405f205f91509050805f015f9054906101000a900473ffffffffffffffffffffffffffffffffffffffff1690805f0160149054906101000a900460ff169080600101805462000710906200110c565b80601f01602080910402602001604051908101604052809291908181526020018280546200073e906200110c565b80156200078d5780601f1062000763576101008083540402835291602001916200078d565b820191905f5260205f20905b8154815290600101906020018083116200076f57829003601f168201915b5050505050905083565b5f8054906101000a900473ffffffffffffffffffffffffffffffffffffffff1673ffffffffffffffffffffffffffffffffffffffff163373ffffffffffffffffffffffffffffffffffffffff161462000827576040517f08c379a00000000000000000000000000000000000000000000000000000000081526004016200081e9062001084565b60405180910390fd5b600160028111156200083e576200083d62000cc1565b5b60015f8381526020019081526020015f205f0160149054906101000a900460ff16600281111562000874576200087362000cc1565b5b14620008b7576040517f08c379a0000000000000000000000000000000000000000000000000000000008152600401620008ae9062000feb565b60405180910390fd5b600260015f8381526020019081526020015f205f0160146101000a81548160ff02191690836002811115620008f157620008f062000cc1565b5b0217905550807fa4035636e99f06b7651a604c1019fa4e8779fe68ef27eeb74dff2de348f6199b6002808111156200092e576200092d62000cc1565b5b60015f8581526020019081526020015f205f015f9054906101000a900473ffffffffffffffffffffffffffffffffffffffff16604051620009719291906200100b565b60405180910390a250565b60025481565b6107b0806200145883390190565b5f604051905090565b5f80fd5b5f80fd5b5f819050919050565b620009b581620009a1565b8114620009c0575f80fd5b50565b5f81359050620009d381620009aa565b92915050565b5f60208284031215620009f157620009f062000999565b5b5f62000a0084828501620009c3565b91505092915050565b5f80fd5b5f80fd5b5f601f19601f8301169050919050565b7f4e487b71000000000000000000000000000000000000000000000000000000005f52604160045260245ffd5b62000a598262000a11565b810181811067ffffffffffffffff8211171562000a7b5762000a7a62000a21565b5b80604052505050565b5f62000a8f62000990565b905062000a9d828262000a4e565b919050565b5f67ffffffffffffffff82111562000abf5762000abe62000a21565b5b62000aca8262000a11565b9050602081019050919050565b828183375f83830152505050565b5f62000afb62000af58462000aa2565b62000a84565b90508281526020810184848401111562000b1a5762000b1962000a0d565b5b62000b2784828562000ad7565b509392505050565b5f82601f83011262000b465762000b4562000a09565b5b813562000b5884826020860162000ae5565b91505092915050565b5f806040838503121562000b7a5762000b7962000999565b5b5f83013567ffffffffffffffff81111562000b9a5762000b996200099d565b5b62000ba88582860162000b2f565b925050602062000bbb85828601620009c3565b9150509250929050565b5f73ffffffffffffffffffffffffffffffffffffffff82169050919050565b5f62000bf08262000bc5565b9050919050565b62000c028162000be4565b82525050565b5f60208201905062000c1d5f83018462000bf7565b92915050565b5f8115159050919050565b62000c398162000c23565b82525050565b5f60208201905062000c545f83018462000c2e565b92915050565b5f819050919050565b5f62000c8362000c7d62000c778462000bc5565b62000c5a565b62000bc5565b9050919050565b5f62000c968262000c63565b9050919050565b5f62000ca98262000c8a565b9050919050565b62000cbb8162000c9d565b82525050565b7f4e487b71000000000000000000000000000000000000000000000000000000005f52602160045260245ffd5b6003811062000d025762000d0162000cc1565b5b50565b5f81905062000d148262000cee565b919050565b5f62000d258262000d05565b9050919050565b62000d378162000d19565b82525050565b5f81519050919050565b5f82825260208201905092915050565b5f5b8381101562000d7657808201518184015260208101905062000d59565b5f8484015250505050565b5f62000d8d8262000d3d565b62000d99818562000d47565b935062000dab81856020860162000d57565b62000db68162000a11565b840191505092915050565b5f60608201905062000dd65f83018662000cb0565b62000de5602083018562000d2c565b818103604083015262000df9818462000d81565b9050949350505050565b62000e0e81620009a1565b82525050565b5f60208201905062000e295f83018462000e03565b92915050565b7f4f6e6c79206974656d732061726520616c6c6f77656420746f207570646174655f8201527f207468656d73656c766573000000000000000000000000000000000000000000602082015250565b5f62000e8b602b8362000d47565b915062000e988262000e2f565b604082019050919050565b5f6020820190508181035f83015262000ebc8162000e7d565b9050919050565b5f8151905062000ed381620009aa565b92915050565b5f6020828403121562000ef15762000ef062000999565b5b5f62000f008482850162000ec3565b91505092915050565b7f4e6f742066756c6c7920706169642079657400000000000000000000000000005f82015250565b5f62000f3f60128362000d47565b915062000f4c8262000f09565b602082019050919050565b5f6020820190508181035f83015262000f708162000f31565b9050919050565b7f4974656d206973206675727468657220696e2074686520737570706c792063685f8201527f61696e0000000000000000000000000000000000000000000000000000000000602082015250565b5f62000fd360238362000d47565b915062000fe08262000f77565b604082019050919050565b5f6020820190508181035f830152620010048162000fc5565b9050919050565b5f604082019050620010205f83018562000e03565b6200102f602083018462000bf7565b9392505050565b7f4f776e61626c653a2063616c6c6572206973206e6f7420746865206f776e65725f82015250565b5f6200106c60208362000d47565b9150620010798262001036565b602082019050919050565b5f6020820190508181035f8301526200109d816200105e565b9050919050565b5f606082019050620010b95f83018662000bf7565b620010c8602083018562000e03565b620010d7604083018462000e03565b949350505050565b7f4e487b71000000000000000000000000000000000000000000000000000000005f52602260045260245ffd5b5f60028204905060018216806200112457607f821691505b6020821081036200113a5762001139620010df565b5b50919050565b5f819050815f5260205f209050919050565b5f6020601f8301049050919050565b5f82821b905092915050565b5f600883026200119e7fffffffffffffffffffffffffffffffffffffffffffffffffffffffffffffffff8262001161565b620011aa868362001161565b95508019841693508086168417925050509392505050565b5f620011e2620011dc620011d684620009a1565b62000c5a565b620009a1565b9050919050565b5f819050919050565b620011fd83620011c2565b620012156200120c82620011e9565b8484546200116d565b825550505050565b5f90565b6200122b6200121d565b62001238818484620011f2565b505050565b5b818110156200125f57620012535f8262001221565b6001810190506200123e565b5050565b601f821115620012ae57620012788162001140565b620012838462001152565b8101602085101562001293578190505b620012ab620012a28562001152565b8301826200123d565b50505b505050565b5f82821c905092915050565b5f620012d05f1984600802620012b3565b1980831691505092915050565b5f620012ea8383620012bf565b9150826002028217905092915050565b620013058262000d3d565b67ffffffffffffffff81111562001321576200132062000a21565b5b6200132d82546200110c565b6200133a82828562001263565b5f60209050601f83116001811462001370575f84156200135b578287015190505b620013678582620012dd565b865550620013d6565b601f198416620013808662001140565b5f5b82811015620013a95784890151825560018201915060208501945060208101905062001382565b86831015620013c95784890151620013c5601f891682620012bf565b8355505b6001600288020188555050505b505050505050565b7f4e487b71000000000000000000000000000000000000000000000000000000005f52601160045260245ffd5b5f6200141782620009a1565b91507fffffffffffffffffffffffffffffffffffffffffffffffffffffffffffffffff82036200144c576200144b620013de565b5b60018201905091905056fe608060405234801561000f575f80fd5b506040516107b03803806107b083398181016040528101906100319190610117565b815f81905550806002819055508260035f6101000a81548173ffffffffffffffffffffffffffffffffffffffff021916908373ffffffffffffffffffffffffffffffffffffffff160217905550505050610167565b5f80fd5b5f73ffffffffffffffffffffffffffffffffffffffff82169050919050565b5f6100b38261008a565b9050919050565b6100c3816100a9565b81146100cd575f80fd5b50565b5f815190506100de816100ba565b92915050565b5f819050919050565b6100f6816100e4565b8114610100575f80fd5b50565b5f81519050610111816100ed565b92915050565b5f805f6060848603121561012e5761012d610086565b5b5f61013b868287016100d0565b935050602061014c86828701610103565b925050604061015d86828701610103565b9150509250925092565b61063c806101745f395ff3fe608060405260043610610042575f3560e01c8063230b9da31461024f5780632986c0e5146102795780633c8da588146102a357806383d12eef146102cd57610242565b36610242575f54341461008a576040517f08c379a0000000000000000000000000000000000000000000000000000000008152600401610081906103ad565b60405180910390fd5b5f600154146100ce576040517f08c379a00000000000000000000000000000000000000000000000000000000081526004016100c590610415565b60405180910390fd5b3460015f8282546100df9190610469565b925050819055505f60035f9054906101000a900473ffffffffffffffffffffffffffffffffffffffff1673ffffffffffffffffffffffffffffffffffffffff163460025460405160240161013391906104ab565b6040516020818303038152906040527f800fb83f000000000000000000000000000000000000000000000000000000007bffffffffffffffffffffffffffffffffffffffffffffffffffffffff19166020820180517bffffffffffffffffffffffffffffffffffffffffffffffffffffffff83818316178352505050506040516101bd9190610530565b5f6040518083038185875af1925050503d805f81146101f7576040519150601f19603f3d011682016040523d82523d5f602084013e6101fc565b606091505b5050905080610240576040517f08c379a000000000000000000000000000000000000000000000000000000000815260040161023790610590565b60405180910390fd5b005b34801561024d575f80fd5b005b34801561025a575f80fd5b506102636102f7565b60405161027091906105ed565b60405180910390f35b348015610284575f80fd5b5061028d61031c565b60405161029a91906104ab565b60405180910390f35b3480156102ae575f80fd5b506102b7610322565b6040516102c491906104ab565b60405180910390f35b3480156102d8575f80fd5b506102e1610327565b6040516102ee91906104ab565b60405180910390f35b60035f9054906101000a900473ffffffffffffffffffffffffffffffffffffffff1681565b60025481565b5f5481565b60015481565b5f82825260208201905092915050565b7f576520646f6e277420737570706f7274207061727469616c207061796d656e745f8201527f7300000000000000000000000000000000000000000000000000000000000000602082015250565b5f61039760218361032d565b91506103a28261033d565b604082019050919050565b5f6020820190508181035f8301526103c48161038b565b9050919050565b7f4974656d20697320616c726561647920706169642100000000000000000000005f82015250565b5f6103ff60158361032d565b915061040a826103cb565b602082019050919050565b5f6020820190508181035f83015261042c816103f3565b9050919050565b5f819050919050565b7f4e487b71000000000000000000000000000000000000000000000000000000005f52601160045260245ffd5b5f61047382610433565b915061047e83610433565b92508282019050808211156104965761049561043c565b5b92915050565b6104a581610433565b82525050565b5f6020820190506104be5f83018461049c565b92915050565b5f81519050919050565b5f81905092915050565b5f5b838110156104f55780820151818401526020810190506104da565b5f8484015250505050565b5f61050a826104c4565b61051481856104ce565b93506105248185602086016104d8565b80840191505092915050565b5f61053b8284610500565b915081905092915050565b7f5061796d656e742074726967676572206661696c6564000000000000000000005f82015250565b5f61057a60168361032d565b915061058582610546565b602082019050919050565b5f6020820190508181035f8301526105a78161056e565b9050919050565b5f73ffffffffffffffffffffffffffffffffffffffff82169050919050565b5f6105d7826105ae565b9050919050565b6105e7816105cd565b82525050565b5f6020820190506106005f8301846105de565b9291505056fea26469706673582212200f3d23667df69a8c4103211526786c80e85c423b25549d6fd1f3b90563fee63f64736f6c63430008140033a26469706673582212209cb59b527f762e2aa8a428afaf72d978f4f760e18685d5e3ad13e847432a0d9064736f6c63430008140033","linkReferences":{}},"methodIdentifiers":{"createItem(string,uint256)":"8c551742","isOwner()":"8f32d59b","itemIndex()":"e07bb1a7","items(uint256)":"bfb231d2","owner()":"8da5cb5b","triggerDelivery(uint256)":"cd31831e","triggerPayment(uint256)":"800fb83f"},"id":20}