{"abi":[{"type":"fallback","stateMutability":"payable"},{"type":"receive","stateMutability":"payable"},{"type":"function","name":"lastFunctionCalled","inputs":[],"outputs":[{"name":"","type":"string","internalType":"string"}],"stateMutability":"view"},{"type":"function","name":"lastValueSent","inputs":[],"outputs":[{"name":"","type":"uint256","internalType":"uint256"}],"stateMutability":"view"},{"type":"function","name":"myUint","inputs":[],"outputs":[{"name":"","type":"uint256","internalType":"uint256"}],"stateMutability":"view"},{"type":"function","name":"setMyUint","inputs":[{"name":"_myNewUint","type":"uint256","internalType":"uint256"}],"outputs":[],"stateMutability":"nonpayable"}],"bytecode":{"object":"0x6080604052348015600e575f5ffd5b5061066f8061001c5f395ff3fe608060405260043610610042575f3560e01c806306540f7e146100df5780635f94758614610109578063e36a665514610133578063e492fd841461015d57610093565b3661009357345f819055506040518060400160405280600781526020017f7265636569766500000000000000000000000000000000000000000000000000815250600190816100919190610463565b005b345f819055506040518060400160405280600881526020017f66616c6c6261636b000000000000000000000000000000000000000000000000815250600190816100dd9190610463565b005b3480156100ea575f5ffd5b506100f3610185565b6040516101009190610541565b60405180910390f35b348015610114575f5ffd5b5061011d61018b565b60405161012a91906105c0565b60405180910390f35b34801561013e575f5ffd5b50610147610217565b6040516101549190610541565b60405180910390f35b348015610168575f5ffd5b50610183600480360381019061017e919061060e565b61021c565b005b60025481565b600180546101989061028a565b80601f01602080910402602001604051908101604052809291908181526020018280546101c49061028a565b801561020f5780601f106101e65761010080835404028352916020019161020f565b820191905f5260205f20905b8154815290600101906020018083116101f257829003601f168201915b505050505081565b5f5481565b8060028190555050565b5f81519050919050565b7f4e487b71000000000000000000000000000000000000000000000000000000005f52604160045260245ffd5b7f4e487b71000000000000000000000000000000000000000000000000000000005f52602260045260245ffd5b5f60028204905060018216806102a157607f821691505b6020821081036102b4576102b361025d565b5b50919050565b5f819050815f5260205f209050919050565b5f6020601f8301049050919050565b5f82821b905092915050565b5f600883026103167fffffffffffffffffffffffffffffffffffffffffffffffffffffffffffffffff826102db565b61032086836102db565b95508019841693508086168417925050509392505050565b5f819050919050565b5f819050919050565b5f61036461035f61035a84610338565b610341565b610338565b9050919050565b5f819050919050565b61037d8361034a565b6103916103898261036b565b8484546102e7565b825550505050565b5f5f905090565b6103a8610399565b6103b3818484610374565b505050565b5b818110156103d6576103cb5f826103a0565b6001810190506103b9565b5050565b601f82111561041b576103ec816102ba565b6103f5846102cc565b81016020851015610404578190505b610418610410856102cc565b8301826103b8565b50505b505050565b5f82821c905092915050565b5f61043b5f1984600802610420565b1980831691505092915050565b5f610453838361042c565b9150826002028217905092915050565b61046c82610226565b67ffffffffffffffff81111561048557610484610230565b5b61048f825461028a565b61049a8282856103da565b5f60209050601f8311600181146104cb575f84156104b9578287015190505b6104c38582610448565b86555061052a565b601f1984166104d9866102ba565b5f5b82811015610500578489015182556001820191506020850194506020810190506104db565b8683101561051d5784890151610519601f89168261042c565b8355505b6001600288020188555050505b505050505050565b61053b81610338565b82525050565b5f6020820190506105545f830184610532565b92915050565b5f82825260208201905092915050565b8281835e5f83830152505050565b5f601f19601f8301169050919050565b5f61059282610226565b61059c818561055a565b93506105ac81856020860161056a565b6105b581610578565b840191505092915050565b5f6020820190508181035f8301526105d88184610588565b905092915050565b5f5ffd5b6105ed81610338565b81146105f7575f5ffd5b50565b5f81359050610608816105e4565b92915050565b5f60208284031215610623576106226105e0565b5b5f610630848285016105fa565b9150509291505056fea264697066735822122077d251ff91e1f74a17b09bd000fcea4001c7a244477b0491c6809b98a75a536664736f6c634300081e0033","linkReferences":{}},"methodIdentifiers":{"lastFunctionCalled()":"5f947586","lastValueSent()":"e36a6655","myUint()":"06540f7e","setMyUint(uint256)":"e492fd84"},"id":10}