{"abi":[{"type":"constructor","inputs":[],"stateMutability":"nonpayable"},{"type":"function","name":"burnToken","inputs":[],"outputs":[],"stateMutability":"nonpayable"},{"type":"function","name":"createNewToken","inputs":[],"outputs":[],"stateMutability":"nonpayable"},{"type":"function","name":"purchaseToken","inputs":[],"outputs":[],"stateMutability":"payable"},{"type":"function","name":"sendToken","inputs":[{"name":"_to","type":"address","internalType":"address"},{"name":"_amount","type":"uint256","internalType":"uint256"}],"outputs":[],"stateMutability":"nonpayable"},{"type":"function","name":"tokenBalance","inputs":[{"name":"","type":"address","internalType":"address"}],"outputs":[{"name":"","type":"uint256","internalType":"uint256"}],"stateMutability":"view"}],"bytecode":{"object":"0x6080604052670de0b6b3a7640000600255348015601a575f5ffd5b503360015f6101000a81548173ffffffffffffffffffffffffffffffffffffffff021916908373ffffffffffffffffffffffffffffffffffffffff16021790555060645f5f60015f9054906101000a900473ffffffffffffffffffffffffffffffffffffffff1673ffffffffffffffffffffffffffffffffffffffff1673ffffffffffffffffffffffffffffffffffffffff1681526020019081526020015f2081905550610997806100cb5f395ff3fe608060405260043610610049575f3560e01c8063412664ae1461004d578063754fc38c14610075578063a95c4d621461008b578063eedc966a14610095578063faa0a264146100d1575b5f5ffd5b348015610058575f5ffd5b50610073600480360381019061006e9190610651565b6100e7565b005b348015610080575f5ffd5b5061008961020e565b005b610093610311565b005b3480156100a0575f5ffd5b506100bb60048036038101906100b6919061068f565b6104a9565b6040516100c891906106c9565b60405180910390f35b3480156100dc575f5ffd5b506100e56104bd565b005b805f5f3373ffffffffffffffffffffffffffffffffffffffff1673ffffffffffffffffffffffffffffffffffffffff1681526020019081526020015f20541015610166576040517f08c379a000000000000000000000000000000000000000000000000000000000815260040161015d9061073c565b60405180910390fd5b805f5f3373ffffffffffffffffffffffffffffffffffffffff1673ffffffffffffffffffffffffffffffffffffffff1681526020019081526020015f205f8282546101b19190610787565b92505081905550805f5f8473ffffffffffffffffffffffffffffffffffffffff1673ffffffffffffffffffffffffffffffffffffffff1681526020019081526020015f205f82825461020391906107ba565b925050819055505050565b60015f9054906101000a900473ffffffffffffffffffffffffffffffffffffffff1673ffffffffffffffffffffffffffffffffffffffff163373ffffffffffffffffffffffffffffffffffffffff161461029d576040517f08c379a000000000000000000000000000000000000000000000000000000000815260040161029490610837565b60405180910390fd5b5f5f60015f9054906101000a900473ffffffffffffffffffffffffffffffffffffffff1673ffffffffffffffffffffffffffffffffffffffff1673ffffffffffffffffffffffffffffffffffffffff1681526020019081526020015f205f81548092919061030a90610855565b9190505550565b5f346002545f5f60015f9054906101000a900473ffffffffffffffffffffffffffffffffffffffff1673ffffffffffffffffffffffffffffffffffffffff1673ffffffffffffffffffffffffffffffffffffffff1681526020019081526020015f205461037e919061089c565b6103889190610787565b116103c8576040517f08c379a00000000000000000000000000000000000000000000000000000000081526004016103bf9061073c565b60405180910390fd5b600254346103d6919061090a565b5f5f60015f9054906101000a900473ffffffffffffffffffffffffffffffffffffffff1673ffffffffffffffffffffffffffffffffffffffff1673ffffffffffffffffffffffffffffffffffffffff1681526020019081526020015f205f8282546104419190610787565b9250508190555060025434610456919061090a565b5f5f3373ffffffffffffffffffffffffffffffffffffffff1673ffffffffffffffffffffffffffffffffffffffff1681526020019081526020015f205f8282546104a091906107ba565b92505081905550565b5f602052805f5260405f205f915090505481565b60015f9054906101000a900473ffffffffffffffffffffffffffffffffffffffff1673ffffffffffffffffffffffffffffffffffffffff163373ffffffffffffffffffffffffffffffffffffffff161461054c576040517f08c379a000000000000000000000000000000000000000000000000000000000815260040161054390610837565b60405180910390fd5b5f5f60015f9054906101000a900473ffffffffffffffffffffffffffffffffffffffff1673ffffffffffffffffffffffffffffffffffffffff1673ffffffffffffffffffffffffffffffffffffffff1681526020019081526020015f205f8154809291906105b99061093a565b9190505550565b5f5ffd5b5f73ffffffffffffffffffffffffffffffffffffffff82169050919050565b5f6105ed826105c4565b9050919050565b6105fd816105e3565b8114610607575f5ffd5b50565b5f81359050610618816105f4565b92915050565b5f819050919050565b6106308161061e565b811461063a575f5ffd5b50565b5f8135905061064b81610627565b92915050565b5f5f60408385031215610667576106666105c0565b5b5f6106748582860161060a565b92505060206106858582860161063d565b9150509250929050565b5f602082840312156106a4576106a36105c0565b5b5f6106b18482850161060a565b91505092915050565b6106c38161061e565b82525050565b5f6020820190506106dc5f8301846106ba565b92915050565b5f82825260208201905092915050565b7f4e6f7420656e6f75676820746f6b656e730000000000000000000000000000005f82015250565b5f6107266011836106e2565b9150610731826106f2565b602082019050919050565b5f6020820190508181035f8301526107538161071a565b9050919050565b7f4e487b71000000000000000000000000000000000000000000000000000000005f52601160045260245ffd5b5f6107918261061e565b915061079c8361061e565b92508282039050818111156107b4576107b361075a565b5b92915050565b5f6107c48261061e565b91506107cf8361061e565b92508282019050808211156107e7576107e661075a565b5b92915050565b7f20596f7520617265206e6f7420616c6c6f7765640000000000000000000000005f82015250565b5f6108216014836106e2565b915061082c826107ed565b602082019050919050565b5f6020820190508181035f83015261084e81610815565b9050919050565b5f61085f8261061e565b91507fffffffffffffffffffffffffffffffffffffffffffffffffffffffffffffffff82036108915761089061075a565b5b600182019050919050565b5f6108a68261061e565b91506108b18361061e565b92508282026108bf8161061e565b915082820484148315176108d6576108d561075a565b5b5092915050565b7f4e487b71000000000000000000000000000000000000000000000000000000005f52601260045260245ffd5b5f6109148261061e565b915061091f8361061e565b92508261092f5761092e6108dd565b5b828204905092915050565b5f6109448261061e565b91505f82036109565761095561075a565b5b60018203905091905056fea2646970667358221220b060f4c0e8afd1d3e6b0c239b3199dd183f230e2ce148e5d25aaabeb1ead50d464736f6c634300081e0033","linkReferences":{}},"methodIdentifiers":{"burnToken()":"faa0a264","createNewToken()":"754fc38c","purchaseToken()":"a95c4d62","sendToken(address,uint256)":"412664ae","tokenBalance(address)":"eedc966a"},"id":24}