{"abi":[{"type":"receive","stateMutability":"payable"},{"type":"function","name":"destroySmartContract","inputs":[],"outputs":[],"stateMutability":"nonpayable"},{"type":"function","name":"destroyed","inputs":[],"outputs":[{"name":"","type":"bool","internalType":"bool"}],"stateMutability":"view"}],"bytecode":{"object":"0x60806040525f5f5f6101000a81548160ff0219169083151502179055503480156026575f5ffd5b50610216806100345f395ff3fe60806040526004361061002c575f3560e01c8063359cbbc91461008557806385474728146100af57610081565b36610081575f5f9054906101000a900460ff161561007f576040517f08c379a00000000000000000000000000000000000000000000000000000000081526004016100769061018f565b60405180910390fd5b005b5f5ffd5b348015610090575f5ffd5b506100996100c5565b6040516100a691906101c7565b60405180910390f35b3480156100ba575f5ffd5b506100c36100d6565b005b5f5f9054906101000a900460ff1681565b60015f5f6101000a81548160ff0219169083151502179055503373ffffffffffffffffffffffffffffffffffffffff166108fc4790811502906040515f60405180830381858888f19350505050158015610132573d5f5f3e3d5ffd5b50565b5f82825260208201905092915050565b7f436f6e747261637420686173206265656e2064657374726f79656400000000005f82015250565b5f610179601b83610135565b915061018482610145565b602082019050919050565b5f6020820190508181035f8301526101a68161016d565b9050919050565b5f8115159050919050565b6101c1816101ad565b82525050565b5f6020820190506101da5f8301846101b8565b9291505056fea2646970667358221220c0c194124f6287584b46a1fc984162d42378518acf1f49a1f1cad976f175a94864736f6c634300081e0033","linkReferences":{}},"methodIdentifiers":{"destroySmartContract()":"85474728","destroyed()":"359cbbc9"},"id":28}