{"abi":[{"type":"function","name":"payContract","inputs":[],"outputs":[],"stateMutability":"payable"},{"type":"function","name":"payment","inputs":[],"outputs":[{"name":"","type":"address","internalType":"contract PaymentReceived"}],"stateMutability":"view"}],"bytecode":{"object":"0x6080604052348015600e575f5ffd5b506104e38061001c5f395ff3fe608060405260043610610028575f3560e01c806342f6487a1461002c578063ecb0b86214610056575b5f5ffd5b348015610037575f5ffd5b50610040610060565b60405161004d919061017e565b60405180910390f35b61005e610084565b005b5f5f9054906101000a900473ffffffffffffffffffffffffffffffffffffffff1681565b3334604051610092906100f7565b61009d9291906101cf565b604051809103905ff0801580156100b6573d5f5f3e3d5ffd5b505f5f6101000a81548173ffffffffffffffffffffffffffffffffffffffff021916908373ffffffffffffffffffffffffffffffffffffffff160217905550565b6102b7806101f783390190565b5f73ffffffffffffffffffffffffffffffffffffffff82169050919050565b5f819050919050565b5f61014661014161013c84610104565b610123565b610104565b9050919050565b5f6101578261012c565b9050919050565b5f6101688261014d565b9050919050565b6101788161015e565b82525050565b5f6020820190506101915f83018461016f565b92915050565b5f6101a182610104565b9050919050565b6101b181610197565b82525050565b5f819050919050565b6101c9816101b7565b82525050565b5f6040820190506101e25f8301856101a8565b6101ef60208301846101c0565b939250505056fe608060405234801561000f575f5ffd5b506040516102b73803806102b78339818101604052810190610031919061010f565b815f5f6101000a81548173ffffffffffffffffffffffffffffffffffffffff021916908373ffffffffffffffffffffffffffffffffffffffff16021790555080600181905550505061014d565b5f5ffd5b5f73ffffffffffffffffffffffffffffffffffffffff82169050919050565b5f6100ab82610082565b9050919050565b6100bb816100a1565b81146100c5575f5ffd5b50565b5f815190506100d6816100b2565b92915050565b5f819050919050565b6100ee816100dc565b81146100f8575f5ffd5b50565b5f81519050610109816100e5565b92915050565b5f5f604083850312156101255761012461007e565b5b5f610132858286016100c8565b9250506020610143858286016100fb565b9150509250929050565b61015d8061015a5f395ff3fe608060405234801561000f575f5ffd5b5060043610610034575f3560e01c8063aa8c217c14610038578063d5ce338914610056575b5f5ffd5b610040610074565b60405161004d91906100b6565b60405180910390f35b61005e61007a565b60405161006b919061010e565b60405180910390f35b60015481565b5f5f9054906101000a900473ffffffffffffffffffffffffffffffffffffffff1681565b5f819050919050565b6100b08161009e565b82525050565b5f6020820190506100c95f8301846100a7565b92915050565b5f73ffffffffffffffffffffffffffffffffffffffff82169050919050565b5f6100f8826100cf565b9050919050565b610108816100ee565b82525050565b5f6020820190506101215f8301846100ff565b9291505056fea264697066735822122001010cf0d11849570e158ea85dd89595d79a3946d1e3534842c9f86a09d3539a64736f6c634300081e0033a264697066735822122057eda3adcdf6d1ed84024e0648d3efacd55a692145aa20950451e39246ae922864736f6c634300081e0033","linkReferences":{}},"methodIdentifiers":{"payContract()":"ecb0b862","payment()":"42f6487a"},"id":14}