{"abi":[{"type":"function","name":"payContract","inputs":[],"outputs":[],"stateMutability":"payable"},{"type":"function","name":"payment","inputs":[],"outputs":[{"name":"from","type":"address","internalType":"address"},{"name":"amount","type":"uint256","internalType":"uint256"}],"stateMutability":"view"}],"bytecode":{"object":"0x6080604052348015600e575f5ffd5b506101908061001c5f395ff3fe608060405260043610610028575f3560e01c806342f6487a1461002c578063ecb0b86214610057575b5f5ffd5b348015610037575f5ffd5b50610040610061565b60405161004e929190610133565b60405180910390f35b61005f610090565b005b5f805f015f9054906101000a900473ffffffffffffffffffffffffffffffffffffffff16908060010154905082565b335f5f015f6101000a81548173ffffffffffffffffffffffffffffffffffffffff021916908373ffffffffffffffffffffffffffffffffffffffff160217905550345f60010181905550565b5f73ffffffffffffffffffffffffffffffffffffffff82169050919050565b5f610105826100dc565b9050919050565b610115816100fb565b82525050565b5f819050919050565b61012d8161011b565b82525050565b5f6040820190506101465f83018561010c565b6101536020830184610124565b939250505056fea2646970667358221220d5f934b0b3088e90f99ed132c2fc7b80dc8ee0ac28d30c258e5ac2e7c00ec9fb64736f6c634300081e0033","linkReferences":{}},"methodIdentifiers":{"payContract()":"ecb0b862","payment()":"42f6487a"},"id":14}