{"abi":[{"type":"constructor","inputs":[],"stateMutability":"nonpayable"},{"type":"function","name":"sendToken","inputs":[{"name":"_to","type":"address","internalType":"address"},{"name":"_amount","type":"uint256","internalType":"uint256"}],"outputs":[{"name":"","type":"bool","internalType":"bool"}],"stateMutability":"nonpayable"},{"type":"function","name":"tokenBalance","inputs":[{"name":"","type":"address","internalType":"address"}],"outputs":[{"name":"","type":"uint256","internalType":"uint256"}],"stateMutability":"view"},{"type":"event","name":"TokensSente","inputs":[{"name":"_from","type":"address","indexed":true,"internalType":"address"},{"name":"_to","type":"address","indexed":true,"internalType":"address"},{"name":"_amount","type":"uint256","indexed":false,"internalType":"uint256"}],"anonymous":false}],"bytecode":{"object":"0x6080604052348015600e575f5ffd5b5060645f5f3373ffffffffffffffffffffffffffffffffffffffff1673ffffffffffffffffffffffffffffffffffffffff1681526020019081526020015f20819055506104d58061005e5f395ff3fe608060405234801561000f575f5ffd5b5060043610610034575f3560e01c8063412664ae14610038578063eedc966a14610068575b5f5ffd5b610052600480360381019061004d91906102d0565b610098565b60405161005f9190610328565b60405180910390f35b610082600480360381019061007d9190610341565b61022b565b60405161008f919061037b565b60405180910390f35b5f815f5f3373ffffffffffffffffffffffffffffffffffffffff1673ffffffffffffffffffffffffffffffffffffffff1681526020019081526020015f20541015610118576040517f08c379a000000000000000000000000000000000000000000000000000000000815260040161010f906103ee565b60405180910390fd5b815f5f3373ffffffffffffffffffffffffffffffffffffffff1673ffffffffffffffffffffffffffffffffffffffff1681526020019081526020015f205f8282546101639190610439565b92505081905550815f5f8573ffffffffffffffffffffffffffffffffffffffff1673ffffffffffffffffffffffffffffffffffffffff1681526020019081526020015f205f8282546101b5919061046c565b925050819055508273ffffffffffffffffffffffffffffffffffffffff163373ffffffffffffffffffffffffffffffffffffffff167fed41bc9fc60e90951d82837d692150a552748c13ccf016d3ce893a6c8999187a84604051610219919061037b565b60405180910390a36001905092915050565b5f602052805f5260405f205f915090505481565b5f5ffd5b5f73ffffffffffffffffffffffffffffffffffffffff82169050919050565b5f61026c82610243565b9050919050565b61027c81610262565b8114610286575f5ffd5b50565b5f8135905061029781610273565b92915050565b5f819050919050565b6102af8161029d565b81146102b9575f5ffd5b50565b5f813590506102ca816102a6565b92915050565b5f5f604083850312156102e6576102e561023f565b5b5f6102f385828601610289565b9250506020610304858286016102bc565b9150509250929050565b5f8115159050919050565b6103228161030e565b82525050565b5f60208201905061033b5f830184610319565b92915050565b5f602082840312156103565761035561023f565b5b5f61036384828501610289565b91505092915050565b6103758161029d565b82525050565b5f60208201905061038e5f83018461036c565b92915050565b5f82825260208201905092915050565b7f4e6f7420656e6f75676820746f6b656e730000000000000000000000000000005f82015250565b5f6103d8601183610394565b91506103e3826103a4565b602082019050919050565b5f6020820190508181035f830152610405816103cc565b9050919050565b7f4e487b71000000000000000000000000000000000000000000000000000000005f52601160045260245ffd5b5f6104438261029d565b915061044e8361029d565b92508282039050818111156104665761046561040c565b5b92915050565b5f6104768261029d565b91506104818361029d565b92508282019050808211156104995761049861040c565b5b9291505056fea2646970667358221220cd2682ce91137e903b6e8e95ed98dd00278e3d0f37ddde19666722cd64f34fe064736f6c634300081e0033","linkReferences":{}},"methodIdentifiers":{"sendToken(address,uint256)":"412664ae","tokenBalance(address)":"eedc966a"},"id":23}