{"abi":[{"type":"constructor","inputs":[{"name":"_someAddress","type":"address","internalType":"address"}],"stateMutability":"nonpayable"},{"type":"function","name":"myAddress","inputs":[],"outputs":[{"name":"","type":"address","internalType":"address"}],"stateMutability":"view"},{"type":"function","name":"setMyAddress","inputs":[{"name":"_myAddress","type":"address","internalType":"address"}],"outputs":[],"stateMutability":"nonpayable"},{"type":"function","name":"setMyAddressToMsgSender","inputs":[],"outputs":[],"stateMutability":"nonpayable"}],"bytecode":{"object":"0x608060405234801561000f575f5ffd5b50604051610321380380610321833981810160405281019061003191906100d4565b805f5f6101000a81548173ffffffffffffffffffffffffffffffffffffffff021916908373ffffffffffffffffffffffffffffffffffffffff160217905550506100ff565b5f5ffd5b5f73ffffffffffffffffffffffffffffffffffffffff82169050919050565b5f6100a38261007a565b9050919050565b6100b381610099565b81146100bd575f5ffd5b50565b5f815190506100ce816100aa565b92915050565b5f602082840312156100e9576100e8610076565b5b5f6100f6848285016100c0565b91505092915050565b6102158061010c5f395ff3fe608060405234801561000f575f5ffd5b506004361061003f575f3560e01c806326b85ee114610043578063a8a7b89514610061578063adad7a9e1461007d575b5f5ffd5b61004b610087565b604051610058919061016d565b60405180910390f35b61007b600480360381019061007691906101b4565b6100ab565b005b6100856100ed565b005b5f5f9054906101000a900473ffffffffffffffffffffffffffffffffffffffff1681565b805f5f6101000a81548173ffffffffffffffffffffffffffffffffffffffff021916908373ffffffffffffffffffffffffffffffffffffffff16021790555050565b335f5f6101000a81548173ffffffffffffffffffffffffffffffffffffffff021916908373ffffffffffffffffffffffffffffffffffffffff160217905550565b5f73ffffffffffffffffffffffffffffffffffffffff82169050919050565b5f6101578261012e565b9050919050565b6101678161014d565b82525050565b5f6020820190506101805f83018461015e565b92915050565b5f5ffd5b6101938161014d565b811461019d575f5ffd5b50565b5f813590506101ae8161018a565b92915050565b5f602082840312156101c9576101c8610186565b5b5f6101d6848285016101a0565b9150509291505056fea26469706673582212204c50d19e4df710aad660ded96d785c35f6183f5eafeef99cf194faf4d445a02764736f6c634300081e0033","linkReferences":{}},"methodIdentifiers":{"myAddress()":"26b85ee1","setMyAddress(address)":"a8a7b895","setMyAddressToMsgSender()":"adad7a9e"},"id":7}