{"abi":[{"type":"function","name":"decrementUint8","inputs":[],"outputs":[],"stateMutability":"nonpayable"},{"type":"function","name":"incrementUint8","inputs":[],"outputs":[],"stateMutability":"nonpayable"},{"type":"function","name":"myUint","inputs":[],"outputs":[{"name":"","type":"uint256","internalType":"uint256"}],"stateMutability":"view"},{"type":"function","name":"myUint2","inputs":[],"outputs":[{"name":"","type":"uint256","internalType":"uint256"}],"stateMutability":"view"},{"type":"function","name":"myUint256","inputs":[],"outputs":[{"name":"","type":"uint256","internalType":"uint256"}],"stateMutability":"view"},{"type":"function","name":"myUint8","inputs":[],"outputs":[{"name":"","type":"uint8","internalType":"uint8"}],"stateMutability":"view"},{"type":"function","name":"myint","inputs":[],"outputs":[{"name":"","type":"int256","internalType":"int256"}],"stateMutability":"view"},{"type":"function","name":"myint256","inputs":[],"outputs":[{"name":"","type":"int256","internalType":"int256"}],"stateMutability":"view"},{"type":"function","name":"setMyUint","inputs":[{"name":"_myUint","type":"uint256","internalType":"uint256"}],"outputs":[],"stateMutability":"nonpayable"}],"bytecode":{"object":"0x608060405260c860015560fa60035f6101000a81548160ff021916908360ff1602179055507ffffffffffffffffffffffffffffffffffffffffffffffffffffffffffffffff66004553480156052575f5ffd5b506103c4806100605f395ff3fe608060405234801561000f575f5ffd5b5060043610610091575f3560e01c8063a7dbce1c11610064578063a7dbce1c146100f9578063aa9cc77514610117578063e2a4b2af14610135578063e492fd8414610153578063e62e06351461016f57610091565b806306540f7e14610095578063343d39ff146100b357806384ea3606146100d1578063a59cb107146100db575b5f5ffd5b61009d610179565b6040516100aa919061023b565b60405180910390f35b6100bb61017e565b6040516100c8919061026c565b60405180910390f35b6100d9610184565b005b6100e36101bd565b6040516100f0919061026c565b60405180910390f35b6101016101c3565b60405161010e919061023b565b60405180910390f35b61011f6101c9565b60405161012c919061023b565b60405180910390f35b61013d6101cf565b60405161014a91906102a0565b60405180910390f35b61016d600480360381019061016891906102e7565b6101e1565b005b6101776101ea565b005b5f5481565b60055481565b60035f81819054906101000a900460ff16809291906101a29061033f565b91906101000a81548160ff021916908360ff16021790555050565b60045481565b60025481565b60015481565b60035f9054906101000a900460ff1681565b805f8190555050565b60035f81819054906101000a900460ff168092919061020890610367565b91906101000a81548160ff021916908360ff16021790555050565b5f819050919050565b61023581610223565b82525050565b5f60208201905061024e5f83018461022c565b92915050565b5f819050919050565b61026681610254565b82525050565b5f60208201905061027f5f83018461025d565b92915050565b5f60ff82169050919050565b61029a81610285565b82525050565b5f6020820190506102b35f830184610291565b92915050565b5f5ffd5b6102c681610223565b81146102d0575f5ffd5b50565b5f813590506102e1816102bd565b92915050565b5f602082840312156102fc576102fb6102b9565b5b5f610309848285016102d3565b91505092915050565b7f4e487b71000000000000000000000000000000000000000000000000000000005f52601160045260245ffd5b5f61034982610285565b915060ff820361035c5761035b610312565b5b600182019050919050565b5f61037182610285565b91505f820361038357610382610312565b5b60018203905091905056fea2646970667358221220d01b33bfe1ad2c4b3b0317cd409e050591ea9fb00b5917c5156d823bc70de89b64736f6c634300081e0033","linkReferences":{}},"methodIdentifiers":{"decrementUint8()":"e62e0635","incrementUint8()":"84ea3606","myUint()":"06540f7e","myUint2()":"aa9cc775","myUint256()":"a7dbce1c","myUint8()":"e2a4b2af","myint()":"a59cb107","myint256()":"343d39ff","setMyUint(uint256)":"e492fd84"},"id":1}