{"abi":[{"type":"constructor","inputs":[],"stateMutability":"nonpayable"},{"type":"function","name":"DEFAULT_ADMIN_ROLE","inputs":[],"outputs":[{"name":"","type":"bytes32","internalType":"bytes32"}],"stateMutability":"view"},{"type":"function","name":"MINTER_ROLE","inputs":[],"outputs":[{"name":"","type":"bytes32","internalType":"bytes32"}],"stateMutability":"view"},{"type":"function","name":"allowance","inputs":[{"name":"owner","type":"address","internalType":"address"},{"name":"spender","type":"address","internalType":"address"}],"outputs":[{"name":"","type":"uint256","internalType":"uint256"}],"stateMutability":"view"},{"type":"function","name":"approve","inputs":[{"name":"spender","type":"address","internalType":"address"},{"name":"value","type":"uint256","internalType":"uint256"}],"outputs":[{"name":"","type":"bool","internalType":"bool"}],"stateMutability":"nonpayable"},{"type":"function","name":"balanceOf","inputs":[{"name":"account","type":"address","internalType":"address"}],"outputs":[{"name":"","type":"uint256","internalType":"uint256"}],"stateMutability":"view"},{"type":"function","name":"buyOneCoffee","inputs":[],"outputs":[],"stateMutability":"nonpayable"},{"type":"function","name":"buyOneCoffeeFrom","inputs":[{"name":"account","type":"address","internalType":"address"}],"outputs":[],"stateMutability":"nonpayable"},{"type":"function","name":"decimals","inputs":[],"outputs":[{"name":"","type":"uint8","internalType":"uint8"}],"stateMutability":"view"},{"type":"function","name":"getRoleAdmin","inputs":[{"name":"role","type":"bytes32","internalType":"bytes32"}],"outputs":[{"name":"","type":"bytes32","internalType":"bytes32"}],"stateMutability":"view"},{"type":"function","name":"grantRole","inputs":[{"name":"role","type":"bytes32","internalType":"bytes32"},{"name":"account","type":"address","internalType":"address"}],"outputs":[],"stateMutability":"nonpayable"},{"type":"function","name":"hasRole","inputs":[{"name":"role","type":"bytes32","internalType":"bytes32"},{"name":"account","type":"address","internalType":"address"}],"outputs":[{"name":"","type":"bool","internalType":"bool"}],"stateMutability":"view"},{"type":"function","name":"mint","inputs":[{"name":"to","type":"address","internalType":"address"},{"name":"amount","type":"uint256","internalType":"uint256"}],"outputs":[],"stateMutability":"nonpayable"},{"type":"function","name":"name","inputs":[],"outputs":[{"name":"","type":"string","internalType":"string"}],"stateMutability":"view"},{"type":"function","name":"renounceRole","inputs":[{"name":"role","type":"bytes32","internalType":"bytes32"},{"name":"callerConfirmation","type":"address","internalType":"address"}],"outputs":[],"stateMutability":"nonpayable"},{"type":"function","name":"revokeRole","inputs":[{"name":"role","type":"bytes32","internalType":"bytes32"},{"name":"account","type":"address","internalType":"address"}],"outputs":[],"stateMutability":"nonpayable"},{"type":"function","name":"supportsInterface","inputs":[{"name":"interfaceId","type":"bytes4","internalType":"bytes4"}],"outputs":[{"name":"","type":"bool","internalType":"bool"}],"stateMutability":"view"},{"type":"function","name":"symbol","inputs":[],"outputs":[{"name":"","type":"string","internalType":"string"}],"stateMutability":"view"},{"type":"function","name":"totalSupply","inputs":[],"outputs":[{"name":"","type":"uint256","internalType":"uint256"}],"stateMutability":"view"},{"type":"function","name":"transfer","inputs":[{"name":"to","type":"address","internalType":"address"},{"name":"value","type":"uint256","internalType":"uint256"}],"outputs":[{"name":"","type":"bool","internalType":"bool"}],"stateMutability":"nonpayable"},{"type":"function","name":"transferFrom","inputs":[{"name":"from","type":"address","internalType":"address"},{"name":"to","type":"address","internalType":"address"},{"name":"value","type":"uint256","internalType":"uint256"}],"outputs":[{"name":"","type":"bool","internalType":"bool"}],"stateMutability":"nonpayable"},{"type":"event","name":"Approval","inputs":[{"name":"owner","type":"address","indexed":true,"internalType":"address"},{"name":"spender","type":"address","indexed":true,"internalType":"address"},{"name":"value","type":"uint256","indexed":false,"internalType":"uint256"}],"anonymous":false},{"type":"event","name":"CoffeePurchased","inputs":[{"name":"receiver","type":"address","indexed":true,"internalType":"address"},{"name":"buyer","type":"address","indexed":true,"internalType":"address"}],"anonymous":false},{"type":"event","name":"RoleAdminChanged","inputs":[{"name":"role","type":"bytes32","indexed":true,"internalType":"bytes32"},{"name":"previousAdminRole","type":"bytes32","indexed":true,"internalType":"bytes32"},{"name":"newAdminRole","type":"bytes32","indexed":true,"internalType":"bytes32"}],"anonymous":false},{"type":"event","name":"RoleGranted","inputs":[{"name":"role","type":"bytes32","indexed":true,"internalType":"bytes32"},{"name":"account","type":"address","indexed":true,"internalType":"address"},{"name":"sender","type":"address","indexed":true,"internalType":"address"}],"anonymous":false},{"type":"event","name":"RoleRevoked","inputs":[{"name":"role","type":"bytes32","indexed":true,"internalType":"bytes32"},{"name":"account","type":"address","indexed":true,"internalType":"address"},{"name":"sender","type":"address","indexed":true,"internalType":"address"}],"anonymous":false},{"type":"event","name":"Transfer","inputs":[{"name":"from","type":"address","indexed":true,"internalType":"address"},{"name":"to","type":"address","indexed":true,"internalType":"address"},{"name":"value","type":"uint256","indexed":false,"internalType":"uint256"}],"anonymous":false},{"type":"error","name":"AccessControlBadConfirmation","inputs":[]},{"type":"error","name":"AccessControlUnauthorizedAccount","inputs":[{"name":"account","type":"address","internalType":"address"},{"name":"neededRole","type":"bytes32","internalType":"bytes32"}]},{"type":"error","name":"ERC20InsufficientAllowance","inputs":[{"name":"spender","type":"address","internalType":"address"},{"name":"allowance","type":"uint256","internalType":"uint256"},{"name":"needed","type":"uint256","internalType":"uint256"}]},{"type":"error","name":"ERC20InsufficientBalance","inputs":[{"name":"sender","type":"address","internalType":"address"},{"name":"balance","type":"uint256","internalType":"uint256"},{"name":"needed","type":"uint256","internalType":"uint256"}]},{"type":"error","name":"ERC20InvalidApprover","inputs":[{"name":"approver","type":"address","internalType":"address"}]},{"type":"error","name":"ERC20InvalidReceiver","inputs":[{"name":"receiver","type":"address","internalType":"address"}]},{"type":"error","name":"ERC20InvalidSender","inputs":[{"name":"sender","type":"address","internalType":"address"}]},{"type":"error","name":"ERC20InvalidSpender","inputs":[{"name":"spender","type":"address","internalType":"address"}]}],"bytecode":{"object":"0x608060405234801561000f575f5ffd5b506040518060400160405280600b81526020017f436f66666565546f6b656e0000000000000000000000000000000000000000008152506040518060400160405280600381526020017f4d544b0000000000000000000000000000000000000000000000000000000000815250816003908161008b9190610485565b50806004908161009b9190610485565b5050506100b05f5f1b336100e760201b60201c565b506100e17f9f2df0fed2c77648de5860a4cc508cd0818c85b8b8a1ab4ceeef8d981c8956a6336100e760201b60201c565b50610554565b5f6100f883836101dd60201b60201c565b6101d357600160055f8581526020019081526020015f205f015f8473ffffffffffffffffffffffffffffffffffffffff1673ffffffffffffffffffffffffffffffffffffffff1681526020019081526020015f205f6101000a81548160ff02191690831515021790555061017061024160201b60201c565b73ffffffffffffffffffffffffffffffffffffffff168273ffffffffffffffffffffffffffffffffffffffff16847f2f8788117e7eff1d82e926ec794901d17c78024a50270940304540a733656f0d60405160405180910390a4600190506101d7565b5f90505b92915050565b5f60055f8481526020019081526020015f205f015f8373ffffffffffffffffffffffffffffffffffffffff1673ffffffffffffffffffffffffffffffffffffffff1681526020019081526020015f205f9054906101000a900460ff16905092915050565b5f33905090565b5f81519050919050565b7f4e487b71000000000000000000000000000000000000000000000000000000005f52604160045260245ffd5b7f4e487b71000000000000000000000000000000000000000000000000000000005f52602260045260245ffd5b5f60028204905060018216806102c357607f821691505b6020821081036102d6576102d561027f565b5b50919050565b5f819050815f5260205f209050919050565b5f6020601f8301049050919050565b5f82821b905092915050565b5f600883026103387fffffffffffffffffffffffffffffffffffffffffffffffffffffffffffffffff826102fd565b61034286836102fd565b95508019841693508086168417925050509392505050565b5f819050919050565b5f819050919050565b5f61038661038161037c8461035a565b610363565b61035a565b9050919050565b5f819050919050565b61039f8361036c565b6103b36103ab8261038d565b848454610309565b825550505050565b5f5f905090565b6103ca6103bb565b6103d5818484610396565b505050565b5b818110156103f8576103ed5f826103c2565b6001810190506103db565b5050565b601f82111561043d5761040e816102dc565b610417846102ee565b81016020851015610426578190505b61043a610432856102ee565b8301826103da565b50505b505050565b5f82821c905092915050565b5f61045d5f1984600802610442565b1980831691505092915050565b5f610475838361044e565b9150826002028217905092915050565b61048e82610248565b67ffffffffffffffff8111156104a7576104a6610252565b5b6104b182546102ac565b6104bc8282856103fc565b5f60209050601f8311600181146104ed575f84156104db578287015190505b6104e5858261046a565b86555061054c565b601f1984166104fb866102dc565b5f5b82811015610522578489015182556001820191506020850194506020810190506104fd565b8683101561053f578489015161053b601f89168261044e565b8355505b6001600288020188555050505b505050505050565b611a16806105615f395ff3fe608060405234801561000f575f5ffd5b506004361061012a575f3560e01c806370a08231116100ab578063b9aa8c311161006f578063b9aa8c3114610368578063c495473214610372578063d53913931461038e578063d547741f146103ac578063dd62ed3e146103c85761012a565b806370a082311461029c57806391d14854146102cc57806395d89b41146102fc578063a217fddf1461031a578063a9059cbb146103385761012a565b8063248a9ca3116100f2578063248a9ca3146101fa5780632f2ff15d1461022a578063313ce5671461024657806336568abe1461026457806340c10f19146102805761012a565b806301ffc9a71461012e57806306fdde031461015e578063095ea7b31461017c57806318160ddd146101ac57806323b872dd146101ca575b5f5ffd5b61014860048036038101906101439190611353565b6103f8565b6040516101559190611398565b60405180910390f35b610166610471565b6040516101739190611421565b60405180910390f35b610196600480360381019061019191906114ce565b610501565b6040516101a39190611398565b60405180910390f35b6101b4610523565b6040516101c1919061151b565b60405180910390f35b6101e460048036038101906101df9190611534565b61052c565b6040516101f19190611398565b60405180910390f35b610214600480360381019061020f91906115b7565b61055a565b60405161022191906115f1565b60405180910390f35b610244600480360381019061023f919061160a565b610577565b005b61024e610599565b60405161025b9190611663565b60405180910390f35b61027e6004803603810190610279919061160a565b6105a1565b005b61029a600480360381019061029591906114ce565b61061c565b005b6102b660048036038101906102b1919061167c565b610673565b6040516102c3919061151b565b60405180910390f35b6102e660048036038101906102e1919061160a565b6106b8565b6040516102f39190611398565b60405180910390f35b61030461071c565b6040516103119190611421565b60405180910390f35b6103226107ac565b60405161032f91906115f1565b60405180910390f35b610352600480360381019061034d91906114ce565b6107b2565b60405161035f9190611398565b60405180910390f35b6103706107d4565b005b61038c6004803603810190610387919061167c565b61086e565b005b61039661090e565b6040516103a391906115f1565b60405180910390f35b6103c660048036038101906103c1919061160a565b610932565b005b6103e260048036038101906103dd91906116a7565b610954565b6040516103ef919061151b565b60405180910390f35b5f7f7965db0b000000000000000000000000000000000000000000000000000000007bffffffffffffffffffffffffffffffffffffffffffffffffffffffff1916827bffffffffffffffffffffffffffffffffffffffffffffffffffffffff1916148061046a5750610469826109d6565b5b9050919050565b60606003805461048090611712565b80601f01602080910402602001604051908101604052809291908181526020018280546104ac90611712565b80156104f75780601f106104ce576101008083540402835291602001916104f7565b820191905f5260205f20905b8154815290600101906020018083116104da57829003601f168201915b5050505050905090565b5f5f61050b610a3f565b9050610518818585610a46565b600191505092915050565b5f600254905090565b5f5f610536610a3f565b9050610543858285610a58565b61054e858585610aeb565b60019150509392505050565b5f60055f8381526020019081526020015f20600101549050919050565b6105808261055a565b61058981610bdb565b6105938383610bef565b50505050565b5f6012905090565b6105a9610a3f565b73ffffffffffffffffffffffffffffffffffffffff168173ffffffffffffffffffffffffffffffffffffffff161461060d576040517f6697b23200000000000000000000000000000000000000000000000000000000815260040160405180910390fd5b6106178282610cd9565b505050565b7f9f2df0fed2c77648de5860a4cc508cd0818c85b8b8a1ab4ceeef8d981c8956a661064681610bdb565b61066e83610652610599565b600a61065e919061189e565b8461066991906118e8565b610dc3565b505050565b5f5f5f8373ffffffffffffffffffffffffffffffffffffffff1673ffffffffffffffffffffffffffffffffffffffff1681526020019081526020015f20549050919050565b5f60055f8481526020019081526020015f205f015f8373ffffffffffffffffffffffffffffffffffffffff1673ffffffffffffffffffffffffffffffffffffffff1681526020019081526020015f205f9054906101000a900460ff16905092915050565b60606004805461072b90611712565b80601f016020809104026020016040519081016040528092919081815260200182805461075790611712565b80156107a25780601f10610779576101008083540402835291602001916107a2565b820191905f5260205f20905b81548152906001019060200180831161078557829003601f168201915b5050505050905090565b5f5f1b81565b5f5f6107bc610a3f565b90506107c9818585610aeb565b600191505092915050565b6108046107df610a3f565b6107e7610599565b600a6107f3919061189e565b60016107ff91906118e8565b610e42565b61080c610a3f565b73ffffffffffffffffffffffffffffffffffffffff1661082a610a3f565b73ffffffffffffffffffffffffffffffffffffffff167ff8e4eb3eb40f22463d6013f59313a34ebbd0557c5f9ab66aeb688810d451f75160405160405180910390a3565b61089f8161087a610a3f565b610882610599565b600a61088e919061189e565b600161089a91906118e8565b610a58565b6108aa816001610e42565b8073ffffffffffffffffffffffffffffffffffffffff166108c9610a3f565b73ffffffffffffffffffffffffffffffffffffffff167ff8e4eb3eb40f22463d6013f59313a34ebbd0557c5f9ab66aeb688810d451f75160405160405180910390a350565b7f9f2df0fed2c77648de5860a4cc508cd0818c85b8b8a1ab4ceeef8d981c8956a681565b61093b8261055a565b61094481610bdb565b61094e8383610cd9565b50505050565b5f60015f8473ffffffffffffffffffffffffffffffffffffffff1673ffffffffffffffffffffffffffffffffffffffff1681526020019081526020015f205f8373ffffffffffffffffffffffffffffffffffffffff1673ffffffffffffffffffffffffffffffffffffffff1681526020019081526020015f2054905092915050565b5f7f01ffc9a7000000000000000000000000000000000000000000000000000000007bffffffffffffffffffffffffffffffffffffffffffffffffffffffff1916827bffffffffffffffffffffffffffffffffffffffffffffffffffffffff1916149050919050565b5f33905090565b610a538383836001610ec1565b505050565b5f610a638484610954565b90507fffffffffffffffffffffffffffffffffffffffffffffffffffffffffffffffff811015610ae55781811015610ad6578281836040517ffb8f41b2000000000000000000000000000000000000000000000000000000008152600401610acd93929190611938565b60405180910390fd5b610ae484848484035f610ec1565b5b50505050565b5f73ffffffffffffffffffffffffffffffffffffffff168373ffffffffffffffffffffffffffffffffffffffff1603610b5b575f6040517f96c6fd1e000000000000000000000000000000000000000000000000000000008152600401610b52919061196d565b60405180910390fd5b5f73ffffffffffffffffffffffffffffffffffffffff168273ffffffffffffffffffffffffffffffffffffffff1603610bcb575f6040517fec442f05000000000000000000000000000000000000000000000000000000008152600401610bc2919061196d565b60405180910390fd5b610bd6838383611090565b505050565b610bec81610be7610a3f565b6112a9565b50565b5f610bfa83836106b8565b610ccf57600160055f8581526020019081526020015f205f015f8473ffffffffffffffffffffffffffffffffffffffff1673ffffffffffffffffffffffffffffffffffffffff1681526020019081526020015f205f6101000a81548160ff021916908315150217905550610c6c610a3f565b73ffffffffffffffffffffffffffffffffffffffff168273ffffffffffffffffffffffffffffffffffffffff16847f2f8788117e7eff1d82e926ec794901d17c78024a50270940304540a733656f0d60405160405180910390a460019050610cd3565b5f90505b92915050565b5f610ce483836106b8565b15610db9575f60055f8581526020019081526020015f205f015f8473ffffffffffffffffffffffffffffffffffffffff1673ffffffffffffffffffffffffffffffffffffffff1681526020019081526020015f205f6101000a81548160ff021916908315150217905550610d56610a3f565b73ffffffffffffffffffffffffffffffffffffffff168273ffffffffffffffffffffffffffffffffffffffff16847ff6391f5c32d9c69d2a47ea670b442974b53935d1edc7fd64eb21e047a839171b60405160405180910390a460019050610dbd565b5f90505b92915050565b5f73ffffffffffffffffffffffffffffffffffffffff168273ffffffffffffffffffffffffffffffffffffffff1603610e33575f6040517fec442f05000000000000000000000000000000000000000000000000000000008152600401610e2a919061196d565b60405180910390fd5b610e3e5f8383611090565b5050565b5f73ffffffffffffffffffffffffffffffffffffffff168273ffffffffffffffffffffffffffffffffffffffff1603610eb2575f6040517f96c6fd1e000000000000000000000000000000000000000000000000000000008152600401610ea9919061196d565b60405180910390fd5b610ebd825f83611090565b5050565b5f73ffffffffffffffffffffffffffffffffffffffff168473ffffffffffffffffffffffffffffffffffffffff1603610f31575f6040517fe602df05000000000000000000000000000000000000000000000000000000008152600401610f28919061196d565b60405180910390fd5b5f73ffffffffffffffffffffffffffffffffffffffff168373ffffffffffffffffffffffffffffffffffffffff1603610fa1575f6040517f94280d62000000000000000000000000000000000000000000000000000000008152600401610f98919061196d565b60405180910390fd5b8160015f8673ffffffffffffffffffffffffffffffffffffffff1673ffffffffffffffffffffffffffffffffffffffff1681526020019081526020015f205f8573ffffffffffffffffffffffffffffffffffffffff1673ffffffffffffffffffffffffffffffffffffffff1681526020019081526020015f2081905550801561108a578273ffffffffffffffffffffffffffffffffffffffff168473ffffffffffffffffffffffffffffffffffffffff167f8c5be1e5ebec7d5bd14f71427d1e84f3dd0314c0f7b2291e5b200ac8c7c3b92584604051611081919061151b565b60405180910390a35b50505050565b5f73ffffffffffffffffffffffffffffffffffffffff168373ffffffffffffffffffffffffffffffffffffffff16036110e0578060025f8282546110d49190611986565b925050819055506111ae565b5f5f5f8573ffffffffffffffffffffffffffffffffffffffff1673ffffffffffffffffffffffffffffffffffffffff1681526020019081526020015f2054905081811015611169578381836040517fe450d38c00000000000000000000000000000000000000000000000000000000815260040161116093929190611938565b60405180910390fd5b8181035f5f8673ffffffffffffffffffffffffffffffffffffffff1673ffffffffffffffffffffffffffffffffffffffff1681526020019081526020015f2081905550505b5f73ffffffffffffffffffffffffffffffffffffffff168273ffffffffffffffffffffffffffffffffffffffff16036111f5578060025f828254039250508190555061123f565b805f5f8473ffffffffffffffffffffffffffffffffffffffff1673ffffffffffffffffffffffffffffffffffffffff1681526020019081526020015f205f82825401925050819055505b8173ffffffffffffffffffffffffffffffffffffffff168373ffffffffffffffffffffffffffffffffffffffff167fddf252ad1be2c89b69c2b068fc378daa952ba7f163c4a11628f55a4df523b3ef8360405161129c919061151b565b60405180910390a3505050565b6112b382826106b8565b6112f65780826040517fe2517d3f0000000000000000000000000000000000000000000000000000000081526004016112ed9291906119b9565b60405180910390fd5b5050565b5f5ffd5b5f7fffffffff0000000000000000000000000000000000000000000000000000000082169050919050565b611332816112fe565b811461133c575f5ffd5b50565b5f8135905061134d81611329565b92915050565b5f60208284031215611368576113676112fa565b5b5f6113758482850161133f565b91505092915050565b5f8115159050919050565b6113928161137e565b82525050565b5f6020820190506113ab5f830184611389565b92915050565b5f81519050919050565b5f82825260208201905092915050565b8281835e5f83830152505050565b5f601f19601f8301169050919050565b5f6113f3826113b1565b6113fd81856113bb565b935061140d8185602086016113cb565b611416816113d9565b840191505092915050565b5f6020820190508181035f83015261143981846113e9565b905092915050565b5f73ffffffffffffffffffffffffffffffffffffffff82169050919050565b5f61146a82611441565b9050919050565b61147a81611460565b8114611484575f5ffd5b50565b5f8135905061149581611471565b92915050565b5f819050919050565b6114ad8161149b565b81146114b7575f5ffd5b50565b5f813590506114c8816114a4565b92915050565b5f5f604083850312156114e4576114e36112fa565b5b5f6114f185828601611487565b9250506020611502858286016114ba565b9150509250929050565b6115158161149b565b82525050565b5f60208201905061152e5f83018461150c565b92915050565b5f5f5f6060848603121561154b5761154a6112fa565b5b5f61155886828701611487565b935050602061156986828701611487565b925050604061157a868287016114ba565b9150509250925092565b5f819050919050565b61159681611584565b81146115a0575f5ffd5b50565b5f813590506115b18161158d565b92915050565b5f602082840312156115cc576115cb6112fa565b5b5f6115d9848285016115a3565b91505092915050565b6115eb81611584565b82525050565b5f6020820190506116045f8301846115e2565b92915050565b5f5f604083850312156116205761161f6112fa565b5b5f61162d858286016115a3565b925050602061163e85828601611487565b9150509250929050565b5f60ff82169050919050565b61165d81611648565b82525050565b5f6020820190506116765f830184611654565b92915050565b5f60208284031215611691576116906112fa565b5b5f61169e84828501611487565b91505092915050565b5f5f604083850312156116bd576116bc6112fa565b5b5f6116ca85828601611487565b92505060206116db85828601611487565b9150509250929050565b7f4e487b71000000000000000000000000000000000000000000000000000000005f52602260045260245ffd5b5f600282049050600182168061172957607f821691505b60208210810361173c5761173b6116e5565b5b50919050565b7f4e487b71000000000000000000000000000000000000000000000000000000005f52601160045260245ffd5b5f8160011c9050919050565b5f5f8291508390505b60018511156117c4578086048111156117a05761179f611742565b5b60018516156117af5780820291505b80810290506117bd8561176f565b9450611784565b94509492505050565b5f826117dc5760019050611897565b816117e9575f9050611897565b81600181146117ff576002811461180957611838565b6001915050611897565b60ff84111561181b5761181a611742565b5b8360020a91508482111561183257611831611742565b5b50611897565b5060208310610133831016604e8410600b841016171561186d5782820a90508381111561186857611867611742565b5b611897565b61187a848484600161177b565b9250905081840481111561189157611890611742565b5b81810290505b9392505050565b5f6118a88261149b565b91506118b383611648565b92506118e07fffffffffffffffffffffffffffffffffffffffffffffffffffffffffffffffff84846117cd565b905092915050565b5f6118f28261149b565b91506118fd8361149b565b925082820261190b8161149b565b9150828204841483151761192257611921611742565b5b5092915050565b61193281611460565b82525050565b5f60608201905061194b5f830186611929565b611958602083018561150c565b611965604083018461150c565b949350505050565b5f6020820190506119805f830184611929565b92915050565b5f6119908261149b565b915061199b8361149b565b92508282019050808211156119b3576119b2611742565b5b92915050565b5f6040820190506119cc5f830185611929565b6119d960208301846115e2565b939250505056fea264697066735822122033560d4ced02cf8bdb4616b30ce0d919d291976cd98a371706e60fbea79658ee64736f6c634300081e0033","linkReferences":{}},"methodIdentifiers":{"DEFAULT_ADMIN_ROLE()":"a217fddf","MINTER_ROLE()":"d5391393","allowance(address,address)":"dd62ed3e","approve(address,uint256)":"095ea7b3","balanceOf(address)":"70a08231","buyOneCoffee()":"b9aa8c31","buyOneCoffeeFrom(address)":"c4954732","decimals()":"313ce567","getRoleAdmin(bytes32)":"248a9ca3","grantRole(bytes32,address)":"2f2ff15d","hasRole(bytes32,address)":"91d14854","mint(address,uint256)":"40c10f19","name()":"06fdde03","renounceRole(bytes32,address)":"36568abe","revokeRole(bytes32,address)":"d547741f","supportsInterface(bytes4)":"01ffc9a7","symbol()":"95d89b41","totalSupply()":"18160ddd","transfer(address,uint256)":"a9059cbb","transferFrom(address,address,uint256)":"23b872dd"},"id":30}