{"abi":[{"type":"function","name":"catchTheError","inputs":[],"outputs":[],"stateMutability":"nonpayable"},{"type":"event","name":"ErrorLogBytes","inputs":[{"name":"lowLevelData","type":"bytes","indexed":false,"internalType":"bytes"}],"anonymous":false},{"type":"event","name":"ErrorLogCode","inputs":[{"name":"code","type":"uint256","indexed":false,"internalType":"uint256"}],"anonymous":false},{"type":"event","name":"ErrorLogging","inputs":[{"name":"reason","type":"string","indexed":false,"internalType":"string"}],"anonymous":false}],"bytecode":{"object":"0x6080604052348015600e575f5ffd5b506105d38061001c5f395ff3fe608060405234801561000f575f5ffd5b5060043610610029575f3560e01c80639e957cf81461002d575b5f5ffd5b610035610037565b005b5f604051610044906101e9565b604051809103905ff08015801561005d573d5f5f3e3d5ffd5b5090508073ffffffffffffffffffffffffffffffffffffffff166339c117a46040518163ffffffff1660e01b81526004015f6040518083038186803b1580156100a4575f5ffd5b505afa9250505080156100b5575060015b6101e5576100c1610202565b806308c379a00361011d57506100d5610298565b806100e05750610177565b7fdcbe72357183be3854887085e70fd914c4c1733a94106878f48e8ba069d8fabc8160405161010f9190610387565b60405180910390a1506101e0565b634e487b71036101775761012f6103a7565b9061013a5750610177565b7f29b40167f3248a50a300e50f3ea6088477baca03aa8065424bd02d92d8b879708160405161016991906103dd565b60405180910390a1506101e0565b3d805f81146101a1576040519150601f19603f3d011682016040523d82523d5f602084013e6101a6565b606091505b507fca0c98a5e8f87f29ffdaadfa103d8e525236a2912c2caedb8aa606eb60041f10816040516101d69190610448565b60405180910390a1505b6101e6565b5b50565b6101358061046983390190565b5f8160e01c9050919050565b5f60033d111561021e5760045f5f3e61021b5f516101f6565b90505b90565b5f604051905090565b5f601f19601f8301169050919050565b7f4e487b71000000000000000000000000000000000000000000000000000000005f52604160045260245ffd5b6102708261022a565b810181811067ffffffffffffffff8211171561028f5761028e61023a565b5b80604052505050565b5f60443d10610324576102a9610221565b60043d036004823e80513d602482011167ffffffffffffffff821117156102d1575050610324565b808201805167ffffffffffffffff8111156102ef5750505050610324565b80602083010160043d03850181111561030c575050505050610324565b61031b82602001850186610267565b82955050505050505b90565b5f81519050919050565b5f82825260208201905092915050565b8281835e5f83830152505050565b5f61035982610327565b6103638185610331565b9350610373818560208601610341565b61037c8161022a565b840191505092915050565b5f6020820190508181035f83015261039f818461034f565b905092915050565b5f5f60233d11156103c157602060045f3e600191505f5190505b9091565b5f819050919050565b6103d7816103c5565b82525050565b5f6020820190506103f05f8301846103ce565b92915050565b5f81519050919050565b5f82825260208201905092915050565b5f61041a826103f6565b6104248185610400565b9350610434818560208601610341565b61043d8161022a565b840191505092915050565b5f6020820190508181035f8301526104608184610410565b90509291505056fe6080604052348015600e575f5ffd5b506101198061001c5f395ff3fe6080604052348015600e575f5ffd5b50600436106026575f3560e01c806339c117a414602a575b5f5ffd5b60306032565b005b5f606f576040517f08c379a000000000000000000000000000000000000000000000000000000000815260040160669060c7565b60405180910390fd5b565b5f82825260208201905092915050565b7f4572726f72206d657373616765000000000000000000000000000000000000005f82015250565b5f60b3600d836071565b915060bc826081565b602082019050919050565b5f6020820190508181035f83015260dc8160a9565b905091905056fea2646970667358221220f8ac2e7f9cd2ddf1c03fb51d1aa5792bed2824f795f7997002958ea7bd96e6d164736f6c634300081e0033a26469706673582212208369e5878dfe3dc72b18537b0705a7529941768a6cdcd3028d318040f6c91ba064736f6c634300081e0033","linkReferences":{}},"methodIdentifiers":{"catchTheError()":"9e957cf8"},"id":18}