{"abi":[{"type":"function","name":"aFunction","inputs":[],"outputs":[],"stateMutability":"pure"},{"type":"error","name":"NotAllowedError","inputs":[{"name":"","type":"string","internalType":"string"}]}],"bytecode":{"object":"0x6080604052348015600e575f5ffd5b506101198061001c5f395ff3fe6080604052348015600e575f5ffd5b50600436106026575f3560e01c806339c117a414602a575b5f5ffd5b60306032565b005b5f606f576040517f08c379a000000000000000000000000000000000000000000000000000000000815260040160669060c7565b60405180910390fd5b565b5f82825260208201905092915050565b7f4572726f72206d657373616765000000000000000000000000000000000000005f82015250565b5f60b3600d836071565b915060bc826081565b602082019050919050565b5f6020820190508181035f83015260dc8160a9565b905091905056fea2646970667358221220f8ac2e7f9cd2ddf1c03fb51d1aa5792bed2824f795f7997002958ea7bd96e6d164736f6c634300081e0033","linkReferences":{}},"methodIdentifiers":{"aFunction()":"39c117a4"},"id":18}