{"abi":[{"type":"function","name":"getAddition","inputs":[{"name":"a","type":"uint256","internalType":"uint256"},{"name":"b","type":"uint256","internalType":"uint256"}],"outputs":[{"name":"","type":"uint256","internalType":"uint256"}],"stateMutability":"pure"},{"type":"function","name":"getMyStorageVariable","inputs":[],"outputs":[{"name":"","type":"uint256","internalType":"uint256"}],"stateMutability":"view"},{"type":"function","name":"myStorageVariable","inputs":[],"outputs":[{"name":"","type":"uint256","internalType":"uint256"}],"stateMutability":"view"},{"type":"function","name":"setMyStorageVariable","inputs":[{"name":"_newVar","type":"uint256","internalType":"uint256"}],"outputs":[{"name":"","type":"uint256","internalType":"uint256"}],"stateMutability":"nonpayable"}],"bytecode":{"object":"0x6080604052348015600e575f5ffd5b506102798061001c5f395ff3fe608060405234801561000f575f5ffd5b506004361061004a575f3560e01c806308b9e8501461004e5780635f6a36da1461007e5780636e5ca88d1461009c578063e48d59d9146100ba575b5f5ffd5b61006860048036038101906100639190610152565b6100ea565b604051610075919061019f565b60405180910390f35b6100866100ff565b604051610093919061019f565b60405180910390f35b6100a4610107565b6040516100b1919061019f565b60405180910390f35b6100d460048036038101906100cf91906101b8565b61010c565b6040516100e1919061019f565b60405180910390f35b5f81836100f79190610210565b905092915050565b5f5f54905090565b5f5481565b5f815f81905550819050919050565b5f5ffd5b5f819050919050565b6101318161011f565b811461013b575f5ffd5b50565b5f8135905061014c81610128565b92915050565b5f5f604083850312156101685761016761011b565b5b5f6101758582860161013e565b92505060206101868582860161013e565b9150509250929050565b6101998161011f565b82525050565b5f6020820190506101b25f830184610190565b92915050565b5f602082840312156101cd576101cc61011b565b5b5f6101da8482850161013e565b91505092915050565b7f4e487b71000000000000000000000000000000000000000000000000000000005f52601160045260245ffd5b5f61021a8261011f565b91506102258361011f565b925082820190508082111561023d5761023c6101e3565b5b9291505056fea2646970667358221220b0886a0fcb370a73804f56dcb2871b12932a8891bb1e8b5e04c0da64052a6f4f64736f6c634300081e0033","linkReferences":{}},"methodIdentifiers":{"getAddition(uint256,uint256)":"08b9e850","getMyStorageVariable()":"5f6a36da","myStorageVariable()":"6e5ca88d","setMyStorageVariable(uint256)":"e48d59d9"},"id":6}