{"abi":[{"type":"function","name":"decrementUint","inputs":[],"outputs":[],"stateMutability":"nonpayable"},{"type":"function","name":"incrementUint8","inputs":[],"outputs":[],"stateMutability":"nonpayable"},{"type":"function","name":"myUint","inputs":[],"outputs":[{"name":"","type":"uint256","internalType":"uint256"}],"stateMutability":"view"},{"type":"function","name":"myUint8","inputs":[],"outputs":[{"name":"","type":"uint8","internalType":"uint8"}],"stateMutability":"view"},{"type":"function","name":"setMyUint","inputs":[{"name":"_myUint","type":"uint256","internalType":"uint256"}],"outputs":[],"stateMutability":"nonpayable"}],"bytecode":{"object":"0x6080604052601060015f6101000a81548160ff021916908360ff1602179055503480156029575f5ffd5b5061027a806100375f395ff3fe608060405234801561000f575f5ffd5b5060043610610055575f3560e01c806306540f7e1461005957806384ea360614610077578063da50eaee14610081578063e2a4b2af1461008b578063e492fd84146100a9575b5f5ffd5b6100616100c5565b60405161006e9190610149565b60405180910390f35b61007f6100ca565b005b610089610103565b005b610093610116565b6040516100a0919061017d565b60405180910390f35b6100c360048036038101906100be91906101c4565b610128565b005b5f5481565b60015f81819054906101000a900460ff16809291906100e89061021c565b91906101000a81548160ff021916908360ff16021790555050565b5f5f815480929190600190039190505550565b60015f9054906101000a900460ff1681565b805f8190555050565b5f819050919050565b61014381610131565b82525050565b5f60208201905061015c5f83018461013a565b92915050565b5f60ff82169050919050565b61017781610162565b82525050565b5f6020820190506101905f83018461016e565b92915050565b5f5ffd5b6101a381610131565b81146101ad575f5ffd5b50565b5f813590506101be8161019a565b92915050565b5f602082840312156101d9576101d8610196565b5b5f6101e6848285016101b0565b91505092915050565b7f4e487b71000000000000000000000000000000000000000000000000000000005f52601160045260245ffd5b5f61022682610162565b915060ff8203610239576102386101ef565b5b60018201905091905056fea26469706673582212200e5cd997299610bfbd374e499c5098eeabdf1a43efa91947b2e43c44ee3cec1a64736f6c634300081e0033","linkReferences":{}},"methodIdentifiers":{"decrementUint()":"da50eaee","incrementUint8()":"84ea3606","myUint()":"06540f7e","myUint8()":"e2a4b2af","setMyUint(uint256)":"e492fd84"},"id":2}