{"abi":[{"type":"function","name":"compareTwoStrings","inputs":[{"name":"_myString","type":"string","internalType":"string"}],"outputs":[{"name":"","type":"bool","internalType":"bool"}],"stateMutability":"view"},{"type":"function","name":"myString","inputs":[],"outputs":[{"name":"","type":"string","internalType":"string"}],"stateMutability":"view"},{"type":"function","name":"setMyString","inputs":[{"name":"_myString","type":"string","internalType":"string"}],"outputs":[],"stateMutability":"nonpayable"}],"bytecode":{"object":"0x60806040526040518060400160405280600b81526020017f48656c6c6f20576f726c640000000000000000000000000000000000000000008152505f90816100479190610296565b50348015610053575f5ffd5b50610365565b5f81519050919050565b7f4e487b71000000000000000000000000000000000000000000000000000000005f52604160045260245ffd5b7f4e487b71000000000000000000000000000000000000000000000000000000005f52602260045260245ffd5b5f60028204905060018216806100d457607f821691505b6020821081036100e7576100e6610090565b5b50919050565b5f819050815f5260205f209050919050565b5f6020601f8301049050919050565b5f82821b905092915050565b5f600883026101497fffffffffffffffffffffffffffffffffffffffffffffffffffffffffffffffff8261010e565b610153868361010e565b95508019841693508086168417925050509392505050565b5f819050919050565b5f819050919050565b5f61019761019261018d8461016b565b610174565b61016b565b9050919050565b5f819050919050565b6101b08361017d565b6101c46101bc8261019e565b84845461011a565b825550505050565b5f5f905090565b6101db6101cc565b6101e68184846101a7565b505050565b5b81811015610209576101fe5f826101d3565b6001810190506101ec565b5050565b601f82111561024e5761021f816100ed565b610228846100ff565b81016020851015610237578190505b61024b610243856100ff565b8301826101eb565b50505b505050565b5f82821c905092915050565b5f61026e5f1984600802610253565b1980831691505092915050565b5f610286838361025f565b9150826002028217905092915050565b61029f82610059565b67ffffffffffffffff8111156102b8576102b7610063565b5b6102c282546100bd565b6102cd82828561020d565b5f60209050601f8311600181146102fe575f84156102ec578287015190505b6102f6858261027b565b86555061035d565b601f19841661030c866100ed565b5f5b828110156103335784890151825560018201915060208501945060208101905061030e565b86831015610350578489015161034c601f89168261025f565b8355505b6001600288020188555050505b505050505050565b6107d9806103725f395ff3fe608060405234801561000f575f5ffd5b506004361061003f575f3560e01c8063492bfa18146100435780635ce25353146100615780638218056814610091575b5f5ffd5b61004b6100ad565b6040516100589190610211565b60405180910390f35b61007b6004803603810190610076919061036e565b610138565b60405161008891906103cf565b60405180910390f35b6100ab60048036038101906100a6919061036e565b61018f565b005b5f80546100b990610415565b80601f01602080910402602001604051908101604052809291908181526020018280546100e590610415565b80156101305780601f1061010757610100808354040283529160200191610130565b820191905f5260205f20905b81548152906001019060200180831161011357829003601f168201915b505050505081565b5f8160405160200161014a919061047f565b604051602081830303815290604052805190602001205f6040516020016101719190610527565b60405160208183030381529060405280519060200120149050919050565b805f908161019d91906106d4565b5050565b5f81519050919050565b5f82825260208201905092915050565b8281835e5f83830152505050565b5f601f19601f8301169050919050565b5f6101e3826101a1565b6101ed81856101ab565b93506101fd8185602086016101bb565b610206816101c9565b840191505092915050565b5f6020820190508181035f83015261022981846101d9565b905092915050565b5f604051905090565b5f5ffd5b5f5ffd5b5f5ffd5b5f5ffd5b7f4e487b71000000000000000000000000000000000000000000000000000000005f52604160045260245ffd5b610280826101c9565b810181811067ffffffffffffffff8211171561029f5761029e61024a565b5b80604052505050565b5f6102b1610231565b90506102bd8282610277565b919050565b5f67ffffffffffffffff8211156102dc576102db61024a565b5b6102e5826101c9565b9050602081019050919050565b828183375f83830152505050565b5f61031261030d846102c2565b6102a8565b90508281526020810184848401111561032e5761032d610246565b5b6103398482856102f2565b509392505050565b5f82601f83011261035557610354610242565b5b8135610365848260208601610300565b91505092915050565b5f602082840312156103835761038261023a565b5b5f82013567ffffffffffffffff8111156103a05761039f61023e565b5b6103ac84828501610341565b91505092915050565b5f8115159050919050565b6103c9816103b5565b82525050565b5f6020820190506103e25f8301846103c0565b92915050565b7f4e487b71000000000000000000000000000000000000000000000000000000005f52602260045260245ffd5b5f600282049050600182168061042c57607f821691505b60208210810361043f5761043e6103e8565b5b50919050565b5f81905092915050565b5f610459826101a1565b6104638185610445565b93506104738185602086016101bb565b80840191505092915050565b5f61048a828461044f565b915081905092915050565b5f819050815f5260205f209050919050565b5f81546104b381610415565b6104bd8186610445565b9450600182165f81146104d757600181146104ec5761051e565b60ff198316865281151582028601935061051e565b6104f585610495565b5f5b83811015610516578154818901526001820191506020810190506104f7565b838801955050505b50505092915050565b5f61053282846104a7565b915081905092915050565b5f6020601f8301049050919050565b5f82821b905092915050565b5f600883026105877fffffffffffffffffffffffffffffffffffffffffffffffffffffffffffffffff8261054c565b610591868361054c565b95508019841693508086168417925050509392505050565b5f819050919050565b5f819050919050565b5f6105d56105d06105cb846105a9565b6105b2565b6105a9565b9050919050565b5f819050919050565b6105ee836105bb565b6106026105fa826105dc565b848454610558565b825550505050565b5f5f905090565b61061961060a565b6106248184846105e5565b505050565b5b818110156106475761063c5f82610611565b60018101905061062a565b5050565b601f82111561068c5761065d81610495565b6106668461053d565b81016020851015610675578190505b6106896106818561053d565b830182610629565b50505b505050565b5f82821c905092915050565b5f6106ac5f1984600802610691565b1980831691505092915050565b5f6106c4838361069d565b9150826002028217905092915050565b6106dd826101a1565b67ffffffffffffffff8111156106f6576106f561024a565b5b6107008254610415565b61070b82828561064b565b5f60209050601f83116001811461073c575f841561072a578287015190505b61073485826106b9565b86555061079b565b601f19841661074a86610495565b5f5b828110156107715784890151825560018201915060208501945060208101905061074c565b8683101561078e578489015161078a601f89168261069d565b8355505b6001600288020188555050505b50505050505056fea26469706673582212204942e11e7afa2ea5e4786ae1450c4165912ec39991576cea4861210c1ac2bdd364736f6c634300081e0033","linkReferences":{}},"methodIdentifiers":{"compareTwoStrings(string)":"5ce25353","myString()":"492bfa18","setMyString(string)":"82180568"},"id":3}