{"abi":[{"type":"constructor","inputs":[{"name":"_token","type":"address","internalType":"address"}],"stateMutability":"nonpayable"},{"type":"function","name":"purchase","inputs":[],"outputs":[],"stateMutability":"payable"},{"type":"function","name":"token","inputs":[],"outputs":[{"name":"","type":"address","internalType":"contract ERC20"}],"stateMutability":"view"},{"type":"function","name":"tokenOwner","inputs":[],"outputs":[{"name":"","type":"address","internalType":"address"}],"stateMutability":"view"},{"type":"function","name":"tokenPriceInWei","inputs":[],"outputs":[{"name":"","type":"uint256","internalType":"uint256"}],"stateMutability":"view"}],"bytecode":{"object":"0x6080604052670de0b6b3a76400005f5534801561001a575f5ffd5b506040516109a83803806109a8833981810160405281019061003c9190610120565b3360025f6101000a81548173ffffffffffffffffffffffffffffffffffffffff021916908373ffffffffffffffffffffffffffffffffffffffff1602179055508060015f6101000a81548173ffffffffffffffffffffffffffffffffffffffff021916908373ffffffffffffffffffffffffffffffffffffffff1602179055505061014b565b5f5ffd5b5f73ffffffffffffffffffffffffffffffffffffffff82169050919050565b5f6100ef826100c6565b9050919050565b6100ff816100e5565b8114610109575f5ffd5b50565b5f8151905061011a816100f6565b92915050565b5f60208284031215610135576101346100c2565b5b5f6101428482850161010c565b91505092915050565b610850806101585f395ff3fe60806040526004361061003e575f3560e01c80632f8de8101461004257806364edfbf01461006c578063a3e6761014610076578063fc0c546a146100a0575b5f5ffd5b34801561004d575f5ffd5b506100566100ca565b604051610063919061034c565b60405180910390f35b6100746100cf565b005b348015610081575f5ffd5b5061008a6102ea565b60405161009791906103a4565b60405180910390f35b3480156100ab575f5ffd5b506100b461030f565b6040516100c19190610418565b60405180910390f35b5f5481565b5f54341015610113576040517f08c379a000000000000000000000000000000000000000000000000000000000815260040161010a9061048b565b60405180910390fd5b5f5f54346101219190610503565b90505f5f54826101319190610533565b3461013c9190610574565b905060015f9054906101000a900473ffffffffffffffffffffffffffffffffffffffff1673ffffffffffffffffffffffffffffffffffffffff166323b872dd60025f9054906101000a900473ffffffffffffffffffffffffffffffffffffffff163360015f9054906101000a900473ffffffffffffffffffffffffffffffffffffffff1673ffffffffffffffffffffffffffffffffffffffff1663313ce5676040518163ffffffff1660e01b8152600401602060405180830381865afa158015610208573d5f5f3e3d5ffd5b505050506040513d601f19601f8201168201806040525081019061022c91906105e1565b600a610238919061073b565b866102439190610533565b6040518463ffffffff1660e01b815260040161026193929190610785565b6020604051808303815f875af115801561027d573d5f5f3e3d5ffd5b505050506040513d601f19601f820116820180604052508101906102a191906107ef565b503373ffffffffffffffffffffffffffffffffffffffff166108fc8290811502906040515f60405180830381858888f193505050501580156102e5573d5f5f3e3d5ffd5b505050565b60025f9054906101000a900473ffffffffffffffffffffffffffffffffffffffff1681565b60015f9054906101000a900473ffffffffffffffffffffffffffffffffffffffff1681565b5f819050919050565b61034681610334565b82525050565b5f60208201905061035f5f83018461033d565b92915050565b5f73ffffffffffffffffffffffffffffffffffffffff82169050919050565b5f61038e82610365565b9050919050565b61039e81610384565b82525050565b5f6020820190506103b75f830184610395565b92915050565b5f819050919050565b5f6103e06103db6103d684610365565b6103bd565b610365565b9050919050565b5f6103f1826103c6565b9050919050565b5f610402826103e7565b9050919050565b610412816103f8565b82525050565b5f60208201905061042b5f830184610409565b92915050565b5f82825260208201905092915050565b7f4e6f7420656e6f756768206d6f6e65792073656e7400000000000000000000005f82015250565b5f610475601583610431565b915061048082610441565b602082019050919050565b5f6020820190508181035f8301526104a281610469565b9050919050565b7f4e487b71000000000000000000000000000000000000000000000000000000005f52601260045260245ffd5b7f4e487b71000000000000000000000000000000000000000000000000000000005f52601160045260245ffd5b5f61050d82610334565b915061051883610334565b925082610528576105276104a9565b5b828204905092915050565b5f61053d82610334565b915061054883610334565b925082820261055681610334565b9150828204841483151761056d5761056c6104d6565b5b5092915050565b5f61057e82610334565b915061058983610334565b92508282039050818111156105a1576105a06104d6565b5b92915050565b5f5ffd5b5f60ff82169050919050565b6105c0816105ab565b81146105ca575f5ffd5b50565b5f815190506105db816105b7565b92915050565b5f602082840312156105f6576105f56105a7565b5b5f610603848285016105cd565b91505092915050565b5f8160011c9050919050565b5f5f8291508390505b60018511156106615780860481111561063d5761063c6104d6565b5b600185161561064c5780820291505b808102905061065a8561060c565b9450610621565b94509492505050565b5f826106795760019050610734565b81610686575f9050610734565b816001811461069c57600281146106a6576106d5565b6001915050610734565b60ff8411156106b8576106b76104d6565b5b8360020a9150848211156106cf576106ce6104d6565b5b50610734565b5060208310610133831016604e8410600b841016171561070a5782820a905083811115610705576107046104d6565b5b610734565b6107178484846001610618565b9250905081840481111561072e5761072d6104d6565b5b81810290505b9392505050565b5f61074582610334565b9150610750836105ab565b925061077d7fffffffffffffffffffffffffffffffffffffffffffffffffffffffffffffffff848461066a565b905092915050565b5f6060820190506107985f830186610395565b6107a56020830185610395565b6107b2604083018461033d565b949350505050565b5f8115159050919050565b6107ce816107ba565b81146107d8575f5ffd5b50565b5f815190506107e9816107c5565b92915050565b5f60208284031215610804576108036105a7565b5b5f610811848285016107db565b9150509291505056fea26469706673582212203294d8d73aa10d2340cfe8bceb4c9f2f6f6f46543c0f61705b3d497aaa8766ab64736f6c634300081e0033","linkReferences":{}},"methodIdentifiers":{"purchase()":"64edfbf0","token()":"fc0c546a","tokenOwner()":"a3e67610","tokenPriceInWei()":"2f8de810"},"id":31}