{"abi":[{"type":"function","name":"balanceReceived","inputs":[{"name":"","type":"address","internalType":"address"}],"outputs":[{"name":"","type":"uint256","internalType":"uint256"}],"stateMutability":"view"},{"type":"function","name":"getBalance","inputs":[],"outputs":[{"name":"","type":"uint256","internalType":"uint256"}],"stateMutability":"view"},{"type":"function","name":"sendMoney","inputs":[],"outputs":[],"stateMutability":"payable"},{"type":"function","name":"withdrawAllMoney","inputs":[{"name":"_to","type":"address","internalType":"address payable"}],"outputs":[],"stateMutability":"nonpayable"}],"bytecode":{"object":"0x6080604052348015600e575f5ffd5b506103c88061001c5f395ff3fe60806040526004361061003e575f3560e01c80630adec93c1461004257806312065fe01461006a578063cbedbf5a14610094578063d18a42e11461009e575b5f5ffd5b34801561004d575f5ffd5b5061006860048036038101906100639190610270565b6100da565b005b348015610075575f5ffd5b5061007e6101a3565b60405161008b91906102b3565b60405180910390f35b61009c6101aa565b005b3480156100a9575f5ffd5b506100c460048036038101906100bf9190610307565b6101fe565b6040516100d191906102b3565b60405180910390f35b5f5f5f3373ffffffffffffffffffffffffffffffffffffffff1673ffffffffffffffffffffffffffffffffffffffff1681526020019081526020015f205490505f5f5f3373ffffffffffffffffffffffffffffffffffffffff1673ffffffffffffffffffffffffffffffffffffffff1681526020019081526020015f20819055508173ffffffffffffffffffffffffffffffffffffffff166108fc8290811502906040515f60405180830381858888f1935050505015801561019e573d5f5f3e3d5ffd5b505050565b5f47905090565b345f5f3373ffffffffffffffffffffffffffffffffffffffff1673ffffffffffffffffffffffffffffffffffffffff1681526020019081526020015f205f8282546101f5919061035f565b92505081905550565b5f602052805f5260405f205f915090505481565b5f5ffd5b5f73ffffffffffffffffffffffffffffffffffffffff82169050919050565b5f61023f82610216565b9050919050565b61024f81610235565b8114610259575f5ffd5b50565b5f8135905061026a81610246565b92915050565b5f6020828403121561028557610284610212565b5b5f6102928482850161025c565b91505092915050565b5f819050919050565b6102ad8161029b565b82525050565b5f6020820190506102c65f8301846102a4565b92915050565b5f6102d682610216565b9050919050565b6102e6816102cc565b81146102f0575f5ffd5b50565b5f81359050610301816102dd565b92915050565b5f6020828403121561031c5761031b610212565b5b5f610329848285016102f3565b91505092915050565b7f4e487b71000000000000000000000000000000000000000000000000000000005f52601160045260245ffd5b5f6103698261029b565b91506103748361029b565b925082820190508082111561038c5761038b610332565b5b9291505056fea2646970667358221220a7a9b28da51bbd03d4031cf9223c68a494113c70054ff1d49281d5adf26a3f2364736f6c634300081e0033","linkReferences":{}},"methodIdentifiers":{"balanceReceived(address)":"d18a42e1","getBalance()":"12065fe0","sendMoney()":"cbedbf5a","withdrawAllMoney(address)":"0adec93c"},"id":13}