{"abi":[{"type":"constructor","inputs":[],"stateMutability":"nonpayable"},{"type":"receive","stateMutability":"payable"},{"type":"function","name":"allowance","inputs":[{"name":"","type":"address","internalType":"address"}],"outputs":[{"name":"","type":"uint256","internalType":"uint256"}],"stateMutability":"view"},{"type":"function","name":"confirmationsFromGuardiansForReset","inputs":[],"outputs":[{"name":"","type":"uint256","internalType":"uint256"}],"stateMutability":"view"},{"type":"function","name":"denySending","inputs":[{"name":"_from","type":"address","internalType":"address"}],"outputs":[],"stateMutability":"nonpayable"},{"type":"function","name":"guardians","inputs":[{"name":"","type":"address","internalType":"address"}],"outputs":[{"name":"","type":"bool","internalType":"bool"}],"stateMutability":"view"},{"type":"function","name":"isAllowedToSend","inputs":[{"name":"","type":"address","internalType":"address"}],"outputs":[{"name":"","type":"bool","internalType":"bool"}],"stateMutability":"view"},{"type":"function","name":"owner","inputs":[],"outputs":[{"name":"","type":"address","internalType":"address payable"}],"stateMutability":"view"},{"type":"function","name":"proposeNewOwner","inputs":[{"name":"_newOwner","type":"address","internalType":"address payable"}],"outputs":[],"stateMutability":"nonpayable"},{"type":"function","name":"setAllowance","inputs":[{"name":"_for","type":"address","internalType":"address"},{"name":"_amount","type":"uint256","internalType":"uint256"}],"outputs":[],"stateMutability":"nonpayable"},{"type":"function","name":"setGuardian","inputs":[{"name":"_guardian","type":"address","internalType":"address"},{"name":"_isGuardian","type":"bool","internalType":"bool"}],"outputs":[],"stateMutability":"nonpayable"},{"type":"function","name":"transfer","inputs":[{"name":"_to","type":"address","internalType":"address payable"},{"name":"_amount","type":"uint256","internalType":"uint256"},{"name":"payload","type":"bytes","internalType":"bytes"}],"outputs":[{"name":"","type":"bytes","internalType":"bytes"}],"stateMutability":"nonpayable"}],"bytecode":{"object":"0x6080604052348015600e575f5ffd5b50335f5f6101000a81548173ffffffffffffffffffffffffffffffffffffffff021916908373ffffffffffffffffffffffffffffffffffffffff1602179055506115478061005b5f395ff3fe608060405260043610610094575f3560e01c80637673de53116100585780637673de53146101a357806383012be1146101cb5780638da5cb5b146101f5578063b1f8100d1461021f578063be45fd62146102475761009b565b80630633b14a1461009f5780630bc605ad146100db5780632b8a1c5a14610117578063310ec4a71461013f5780633e5beab9146101675761009b565b3661009b57005b5f5ffd5b3480156100aa575f5ffd5b506100c560048036038101906100c09190610c1d565b610283565b6040516100d29190610c62565b60405180910390f35b3480156100e6575f5ffd5b5061010160048036038101906100fc9190610c1d565b6102a0565b60405161010e9190610c62565b60405180910390f35b348015610122575f5ffd5b5061013d60048036038101906101389190610ca5565b6102bd565b005b34801561014a575f5ffd5b5061016560048036038101906101609190610d16565b6103a3565b005b348015610172575f5ffd5b5061018d60048036038101906101889190610c1d565b61052e565b60405161019a9190610d63565b60405180910390f35b3480156101ae575f5ffd5b506101c960048036038101906101c49190610c1d565b610543565b005b3480156101d6575f5ffd5b506101df610628565b6040516101ec9190610d63565b60405180910390f35b348015610200575f5ffd5b5061020961062d565b6040516102169190610d9c565b60405180910390f35b34801561022a575f5ffd5b5061024560048036038101906102409190610ddf565b610651565b005b348015610252575f5ffd5b5061026d60048036038101906102689190610f46565b610905565b60405161027a9190611012565b60405180910390f35b6003602052805f5260405f205f915054906101000a900460ff1681565b6002602052805f5260405f205f915054906101000a900460ff1681565b5f5f9054906101000a900473ffffffffffffffffffffffffffffffffffffffff1673ffffffffffffffffffffffffffffffffffffffff163373ffffffffffffffffffffffffffffffffffffffff161461034b576040517f08c379a00000000000000000000000000000000000000000000000000000000081526004016103429061108c565b60405180910390fd5b8060035f8473ffffffffffffffffffffffffffffffffffffffff1673ffffffffffffffffffffffffffffffffffffffff1681526020019081526020015f205f6101000a81548160ff0219169083151502179055505050565b5f5f9054906101000a900473ffffffffffffffffffffffffffffffffffffffff1673ffffffffffffffffffffffffffffffffffffffff163373ffffffffffffffffffffffffffffffffffffffff1614610431576040517f08c379a0000000000000000000000000000000000000000000000000000000008152600401610428906110f4565b60405180910390fd5b8060015f8473ffffffffffffffffffffffffffffffffffffffff1673ffffffffffffffffffffffffffffffffffffffff1681526020019081526020015f20819055505f8111156104d557600160025f8473ffffffffffffffffffffffffffffffffffffffff1673ffffffffffffffffffffffffffffffffffffffff1681526020019081526020015f205f6101000a81548160ff02191690831515021790555061052a565b5f60025f8473ffffffffffffffffffffffffffffffffffffffff1673ffffffffffffffffffffffffffffffffffffffff1681526020019081526020015f205f6101000a81548160ff0219169083151502179055505b5050565b6001602052805f5260405f205f915090505481565b5f5f9054906101000a900473ffffffffffffffffffffffffffffffffffffffff1673ffffffffffffffffffffffffffffffffffffffff163373ffffffffffffffffffffffffffffffffffffffff16146105d1576040517f08c379a00000000000000000000000000000000000000000000000000000000081526004016105c8906110f4565b60405180910390fd5b5f60025f8373ffffffffffffffffffffffffffffffffffffffff1673ffffffffffffffffffffffffffffffffffffffff1681526020019081526020015f205f6101000a81548160ff02191690831515021790555050565b600381565b5f5f9054906101000a900473ffffffffffffffffffffffffffffffffffffffff1681565b60035f3373ffffffffffffffffffffffffffffffffffffffff1673ffffffffffffffffffffffffffffffffffffffff1681526020019081526020015f205f9054906101000a900460ff166106da576040517f08c379a00000000000000000000000000000000000000000000000000000000081526004016106d190611182565b60405180910390fd5b5f151560055f8373ffffffffffffffffffffffffffffffffffffffff1673ffffffffffffffffffffffffffffffffffffffff1681526020019081526020015f205f3373ffffffffffffffffffffffffffffffffffffffff1673ffffffffffffffffffffffffffffffffffffffff1681526020019081526020015f205f9054906101000a900460ff161515146107a4576040517f08c379a000000000000000000000000000000000000000000000000000000000815260040161079b906111ea565b60405180910390fd5b60045f9054906101000a900473ffffffffffffffffffffffffffffffffffffffff1673ffffffffffffffffffffffffffffffffffffffff168173ffffffffffffffffffffffffffffffffffffffff1614610840578060045f6101000a81548173ffffffffffffffffffffffffffffffffffffffff021916908373ffffffffffffffffffffffffffffffffffffffff1602179055505f6006819055505b60065f81548092919061085290611235565b91905055506003600654106109025760045f9054906101000a900473ffffffffffffffffffffffffffffffffffffffff165f5f6101000a81548173ffffffffffffffffffffffffffffffffffffffff021916908373ffffffffffffffffffffffffffffffffffffffff1602179055505f60045f6101000a81548173ffffffffffffffffffffffffffffffffffffffff021916908373ffffffffffffffffffffffffffffffffffffffff1602179055505b50565b60604783111561094a576040517f08c379a0000000000000000000000000000000000000000000000000000000008152600401610941906112ec565b60405180910390fd5b5f5f9054906101000a900473ffffffffffffffffffffffffffffffffffffffff1673ffffffffffffffffffffffffffffffffffffffff163373ffffffffffffffffffffffffffffffffffffffff1614610afa5760025f3373ffffffffffffffffffffffffffffffffffffffff1673ffffffffffffffffffffffffffffffffffffffff1681526020019081526020015f205f9054906101000a900460ff16610a26576040517f08c379a0000000000000000000000000000000000000000000000000000000008152600401610a1d9061137a565b60405180910390fd5b8260015f3373ffffffffffffffffffffffffffffffffffffffff1673ffffffffffffffffffffffffffffffffffffffff1681526020019081526020015f20541015610aa6576040517f08c379a0000000000000000000000000000000000000000000000000000000008152600401610a9d90611408565b60405180910390fd5b8260015f3373ffffffffffffffffffffffffffffffffffffffff1673ffffffffffffffffffffffffffffffffffffffff1681526020019081526020015f205f828254610af29190611426565b925050819055505b5f5f8573ffffffffffffffffffffffffffffffffffffffff168585604051610b229190611493565b5f6040518083038185875af1925050503d805f8114610b5c576040519150601f19603f3d011682016040523d82523d5f602084013e610b61565b606091505b509150915081610ba6576040517f08c379a0000000000000000000000000000000000000000000000000000000008152600401610b9d906114f3565b60405180910390fd5b80925050509392505050565b5f604051905090565b5f5ffd5b5f5ffd5b5f73ffffffffffffffffffffffffffffffffffffffff82169050919050565b5f610bec82610bc3565b9050919050565b610bfc81610be2565b8114610c06575f5ffd5b50565b5f81359050610c1781610bf3565b92915050565b5f60208284031215610c3257610c31610bbb565b5b5f610c3f84828501610c09565b91505092915050565b5f8115159050919050565b610c5c81610c48565b82525050565b5f602082019050610c755f830184610c53565b92915050565b610c8481610c48565b8114610c8e575f5ffd5b50565b5f81359050610c9f81610c7b565b92915050565b5f5f60408385031215610cbb57610cba610bbb565b5b5f610cc885828601610c09565b9250506020610cd985828601610c91565b9150509250929050565b5f819050919050565b610cf581610ce3565b8114610cff575f5ffd5b50565b5f81359050610d1081610cec565b92915050565b5f5f60408385031215610d2c57610d2b610bbb565b5b5f610d3985828601610c09565b9250506020610d4a85828601610d02565b9150509250929050565b610d5d81610ce3565b82525050565b5f602082019050610d765f830184610d54565b92915050565b5f610d8682610bc3565b9050919050565b610d9681610d7c565b82525050565b5f602082019050610daf5f830184610d8d565b92915050565b610dbe81610d7c565b8114610dc8575f5ffd5b50565b5f81359050610dd981610db5565b92915050565b5f60208284031215610df457610df3610bbb565b5b5f610e0184828501610dcb565b91505092915050565b5f5ffd5b5f5ffd5b5f601f19601f8301169050919050565b7f4e487b71000000000000000000000000000000000000000000000000000000005f52604160045260245ffd5b610e5882610e12565b810181811067ffffffffffffffff82111715610e7757610e76610e22565b5b80604052505050565b5f610e89610bb2565b9050610e958282610e4f565b919050565b5f67ffffffffffffffff821115610eb457610eb3610e22565b5b610ebd82610e12565b9050602081019050919050565b828183375f83830152505050565b5f610eea610ee584610e9a565b610e80565b905082815260208101848484011115610f0657610f05610e0e565b5b610f11848285610eca565b509392505050565b5f82601f830112610f2d57610f2c610e0a565b5b8135610f3d848260208601610ed8565b91505092915050565b5f5f5f60608486031215610f5d57610f5c610bbb565b5b5f610f6a86828701610dcb565b9350506020610f7b86828701610d02565b925050604084013567ffffffffffffffff811115610f9c57610f9b610bbf565b5b610fa886828701610f19565b9150509250925092565b5f81519050919050565b5f82825260208201905092915050565b8281835e5f83830152505050565b5f610fe482610fb2565b610fee8185610fbc565b9350610ffe818560208601610fcc565b61100781610e12565b840191505092915050565b5f6020820190508181035f83015261102a8184610fda565b905092915050565b5f82825260208201905092915050565b7f796f7520617265206e6f7420746865206f776e65722c2061626f7274696e67005f82015250565b5f611076601f83611032565b915061108182611042565b602082019050919050565b5f6020820190508181035f8301526110a38161106a565b9050919050565b7f596f7520617265206e6f7420746865206f776e65722c2061626f7274696e67215f82015250565b5f6110de602083611032565b91506110e9826110aa565b602082019050919050565b5f6020820190508181035f83015261110b816110d2565b9050919050565b7f596f7520617265206e6f20677561726469616e206f6620746869732077616c6c5f8201527f65742c2061626f7274696e670000000000000000000000000000000000000000602082015250565b5f61116c602c83611032565b915061117782611112565b604082019050919050565b5f6020820190508181035f83015261119981611160565b9050919050565b7f596f7520616c726561647920766f7465642c2061626f7274696e6700000000005f82015250565b5f6111d4601b83611032565b91506111df826111a0565b602082019050919050565b5f6020820190508181035f830152611201816111c8565b9050919050565b7f4e487b71000000000000000000000000000000000000000000000000000000005f52601160045260245ffd5b5f61123f82610ce3565b91507fffffffffffffffffffffffffffffffffffffffffffffffffffffffffffffffff820361127157611270611208565b5b600182019050919050565b7f43616e27742073656e64206d6f7265207468616e2074686520636f6e747261635f8201527f74206f776e732c2061626f7274696e672e000000000000000000000000000000602082015250565b5f6112d6603183611032565b91506112e18261127c565b604082019050919050565b5f6020820190508181035f830152611303816112ca565b9050919050565b7f596f7520617265206e6f7420616c6c6f77656420746f2073656e6420616e79205f8201527f7472616e73616374696f6e732c2061626f7274696e6700000000000000000000602082015250565b5f611364603683611032565b915061136f8261130a565b604082019050919050565b5f6020820190508181035f83015261139181611358565b9050919050565b7f596f752061726520747279696e6720746f2073656e64206d6f7265207468616e5f8201527f20796f752061726520616c6c6f77656420746f2c2061626f7274696e67000000602082015250565b5f6113f2603d83611032565b91506113fd82611398565b604082019050919050565b5f6020820190508181035f83015261141f816113e6565b9050919050565b5f61143082610ce3565b915061143b83610ce3565b925082820390508181111561145357611452611208565b5b92915050565b5f81905092915050565b5f61146d82610fb2565b6114778185611459565b9350611487818560208601610fcc565b80840191505092915050565b5f61149e8284611463565b915081905092915050565b7f5472616e73616374696f6e206661696c65642c2061626f7274696e67000000005f82015250565b5f6114dd601c83611032565b91506114e8826114a9565b602082019050919050565b5f6020820190508181035f83015261150a816114d1565b905091905056fea26469706673582212209aae55fd58659d63adae79bdbde51538593e1fe4e51c37ee4deea0f246081ede64736f6c634300081e0033","linkReferences":{}},"methodIdentifiers":{"allowance(address)":"3e5beab9","confirmationsFromGuardiansForReset()":"83012be1","denySending(address)":"7673de53","guardians(address)":"0633b14a","isAllowedToSend(address)":"0bc605ad","owner()":"8da5cb5b","proposeNewOwner(address)":"b1f8100d","setAllowance(address,uint256)":"310ec4a7","setGuardian(address,bool)":"2b8a1c5a","transfer(address,uint256,bytes)":"be45fd62"},"id":21}