{"abi":[{"type":"function","name":"balances","inputs":[{"name":"","type":"address","internalType":"address"}],"outputs":[{"name":"totalBalance","type":"uint256","internalType":"uint256"},{"name":"numDeposits","type":"uint256","internalType":"uint256"},{"name":"numWithdrawals","type":"uint256","internalType":"uint256"}],"stateMutability":"view"},{"type":"function","name":"depositMoney","inputs":[],"outputs":[],"stateMutability":"payable"},{"type":"function","name":"getDepositNum","inputs":[{"name":"_from","type":"address","internalType":"address"},{"name":"_numDeposit","type":"uint256","internalType":"uint256"}],"outputs":[{"name":"","type":"tuple","internalType":"struct MappingStructExample.Transaction","components":[{"name":"amount","type":"uint256","internalType":"uint256"},{"name":"timestamp","type":"uint256","internalType":"uint256"}]}],"stateMutability":"view"},{"type":"function","name":"withdrawMoney","inputs":[{"name":"_to","type":"address","internalType":"address payable"},{"name":"_amount","type":"uint256","internalType":"uint256"}],"outputs":[],"stateMutability":"nonpayable"}],"bytecode":{"object":"0x6080604052348015600e575f5ffd5b506107d58061001c5f395ff3fe60806040526004361061003e575f3560e01c806316c05aa21461004257806327e235e31461004c57806355e14fe61461008a578063f274c897146100c6575b5f5ffd5b61004a6100ee565b005b348015610057575f5ffd5b50610072600480360381019061006d9190610517565b610254565b6040516100819392919061055a565b60405180910390f35b348015610095575f5ffd5b506100b060048036038101906100ab91906105b9565b610279565b6040516100bd9190610633565b60405180910390f35b3480156100d1575f5ffd5b506100ec60048036038101906100e79190610687565b6102f5565b005b345f5f3373ffffffffffffffffffffffffffffffffffffffff1673ffffffffffffffffffffffffffffffffffffffff1681526020019081526020015f205f015f82825461013b91906106f2565b925050819055505f6040518060400160405280348152602001428152509050805f5f3373ffffffffffffffffffffffffffffffffffffffff1673ffffffffffffffffffffffffffffffffffffffff1681526020019081526020015f206002015f5f5f3373ffffffffffffffffffffffffffffffffffffffff1673ffffffffffffffffffffffffffffffffffffffff1681526020019081526020015f206001015481526020019081526020015f205f820151815f0155602082015181600101559050505f5f3373ffffffffffffffffffffffffffffffffffffffff1673ffffffffffffffffffffffffffffffffffffffff1681526020019081526020015f206001015f81548092919061024c90610725565b919050555050565b5f602052805f5260405f205f91509050805f0154908060010154908060030154905083565b6102816104a1565b5f5f8473ffffffffffffffffffffffffffffffffffffffff1673ffffffffffffffffffffffffffffffffffffffff1681526020019081526020015f206002015f8381526020019081526020015f206040518060400160405290815f8201548152602001600182015481525050905092915050565b805f5f3373ffffffffffffffffffffffffffffffffffffffff1673ffffffffffffffffffffffffffffffffffffffff1681526020019081526020015f205f015f828254610342919061076c565b925050819055505f6040518060400160405280838152602001428152509050805f5f3373ffffffffffffffffffffffffffffffffffffffff1673ffffffffffffffffffffffffffffffffffffffff1681526020019081526020015f206004015f5f5f3373ffffffffffffffffffffffffffffffffffffffff1673ffffffffffffffffffffffffffffffffffffffff1681526020019081526020015f206003015481526020019081526020015f205f820151815f0155602082015181600101559050505f5f3373ffffffffffffffffffffffffffffffffffffffff1673ffffffffffffffffffffffffffffffffffffffff1681526020019081526020015f206003015f81548092919061045390610725565b91905055508273ffffffffffffffffffffffffffffffffffffffff166108fc8390811502906040515f60405180830381858888f1935050505015801561049b573d5f5f3e3d5ffd5b50505050565b60405180604001604052805f81526020015f81525090565b5f5ffd5b5f73ffffffffffffffffffffffffffffffffffffffff82169050919050565b5f6104e6826104bd565b9050919050565b6104f6816104dc565b8114610500575f5ffd5b50565b5f81359050610511816104ed565b92915050565b5f6020828403121561052c5761052b6104b9565b5b5f61053984828501610503565b91505092915050565b5f819050919050565b61055481610542565b82525050565b5f60608201905061056d5f83018661054b565b61057a602083018561054b565b610587604083018461054b565b949350505050565b61059881610542565b81146105a2575f5ffd5b50565b5f813590506105b38161058f565b92915050565b5f5f604083850312156105cf576105ce6104b9565b5b5f6105dc85828601610503565b92505060206105ed858286016105a5565b9150509250929050565b61060081610542565b82525050565b604082015f82015161061a5f8501826105f7565b50602082015161062d60208501826105f7565b50505050565b5f6040820190506106465f830184610606565b92915050565b5f610656826104bd565b9050919050565b6106668161064c565b8114610670575f5ffd5b50565b5f813590506106818161065d565b92915050565b5f5f6040838503121561069d5761069c6104b9565b5b5f6106aa85828601610673565b92505060206106bb858286016105a5565b9150509250929050565b7f4e487b71000000000000000000000000000000000000000000000000000000005f52601160045260245ffd5b5f6106fc82610542565b915061070783610542565b925082820190508082111561071f5761071e6106c5565b5b92915050565b5f61072f82610542565b91507fffffffffffffffffffffffffffffffffffffffffffffffffffffffffffffffff8203610761576107606106c5565b5b600182019050919050565b5f61077682610542565b915061078183610542565b9250828203905081811115610799576107986106c5565b5b9291505056fea26469706673582212209ce6992b052fc9791501d9c1b09e008a002e1ac5051585e19ef8630dcb7689b764736f6c634300081e0033","linkReferences":{}},"methodIdentifiers":{"balances(address)":"27e235e3","depositMoney()":"16c05aa2","getDepositNum(address,uint256)":"55e14fe6","withdrawMoney(address,uint256)":"f274c897"},"id":15}