{"abi":[{"type":"receive","stateMutability":"payable"},{"type":"function","name":"balance","inputs":[],"outputs":[{"name":"","type":"uint256","internalType":"uint256"}],"stateMutability":"view"},{"type":"function","name":"balanceReceived","inputs":[],"outputs":[{"name":"","type":"uint256","internalType":"uint256"}],"stateMutability":"view"}],"bytecode":{"object":"0x6080604052348015600e575f5ffd5b506101748061001c5f395ff3fe60806040526004361061002c575f3560e01c806352a90c421461004d578063b69ef8a81461007757610049565b3661004957345f5f82825461004191906100e3565b925050819055005b5f5ffd5b348015610058575f5ffd5b506100616100a1565b60405161006e9190610125565b60405180910390f35b348015610082575f5ffd5b5061008b6100a6565b6040516100989190610125565b60405180910390f35b5f5481565b5f47905090565b5f819050919050565b7f4e487b71000000000000000000000000000000000000000000000000000000005f52601160045260245ffd5b5f6100ed826100ad565b91506100f8836100ad565b92508282019050808211156101105761010f6100b6565b5b92915050565b61011f816100ad565b82525050565b5f6020820190506101385f830184610116565b9291505056fea2646970667358221220bcf2947199ea842c1428e6f12d30ed63d457f8344c5a1d081ab3fb76e418d81c64736f6c634300081e0033","linkReferences":{}},"methodIdentifiers":{"balance()":"b69ef8a8","balanceReceived()":"52a90c42"},"id":19}