{"abi":[{"type":"receive","stateMutability":"payable"},{"type":"function","name":"balance","inputs":[],"outputs":[{"name":"","type":"uint256","internalType":"uint256"}],"stateMutability":"view"}],"bytecode":{"object":"0x6080604052348015600e575f5ffd5b5060b780601a5f395ff3fe608060405260043610601e575f3560e01c8063b69ef8a8146028576024565b36602457005b5f5ffd5b3480156032575f5ffd5b506039604d565b60405160449190606a565b60405180910390f35b5f47905090565b5f819050919050565b6064816054565b82525050565b5f602082019050607b5f830184605d565b9291505056fea26469706673582212207f63409704f59c9a4647a06dba21f64bf547b2d6aadd737b39b82b13c7e51c8d64736f6c634300081e0033","linkReferences":{}},"methodIdentifiers":{"balance()":"b69ef8a8"},"id":19}