{"abi":[{"type":"receive","stateMutability":"payable"},{"type":"function","name":"withdrawSend","inputs":[{"name":"_to","type":"address","internalType":"address payable"}],"outputs":[],"stateMutability":"nonpayable"},{"type":"function","name":"withdrawTransfer","inputs":[{"name":"_to","type":"address","internalType":"address payable"}],"outputs":[],"stateMutability":"nonpayable"}],"bytecode":{"object":"0x6080604052348015600e575f5ffd5b506102a88061001c5f395ff3fe60806040526004361061002c575f3560e01c806320d68c5e14610037578063700d9df31461005f57610033565b3661003357005b5f5ffd5b348015610042575f5ffd5b5061005d600480360381019061005891906101a9565b610087565b005b34801561006a575f5ffd5b50610085600480360381019061008091906101a9565b610103565b005b5f8173ffffffffffffffffffffffffffffffffffffffff166108fc600a90811502906040515f60405180830381858888f193505050509050806100ff576040517f08c379a00000000000000000000000000000000000000000000000000000000081526004016100f690610254565b60405180910390fd5b5050565b8073ffffffffffffffffffffffffffffffffffffffff166108fc600a90811502906040515f60405180830381858888f19350505050158015610147573d5f5f3e3d5ffd5b5050565b5f5ffd5b5f73ffffffffffffffffffffffffffffffffffffffff82169050919050565b5f6101788261014f565b9050919050565b6101888161016e565b8114610192575f5ffd5b50565b5f813590506101a38161017f565b92915050565b5f602082840312156101be576101bd61014b565b5b5f6101cb84828501610195565b91505092915050565b5f82825260208201905092915050565b7f53656e64696e67207468652066756e64732077617320756e73756363657373665f8201527f756c000000000000000000000000000000000000000000000000000000000000602082015250565b5f61023e6022836101d4565b9150610249826101e4565b604082019050919050565b5f6020820190508181035f83015261026b81610232565b905091905056fea2646970667358221220e103dbf81cf1687840ac96889c2845ae93a96a9f8f4ef067781f35af85d9cc5064736f6c634300081e0033","linkReferences":{}},"methodIdentifiers":{"withdrawSend(address)":"20d68c5e","withdrawTransfer(address)":"700d9df3"},"id":19}