{"abi":[{"type":"constructor","inputs":[],"stateMutability":"nonpayable"},{"type":"function","name":"changeCounter","inputs":[],"outputs":[{"name":"","type":"uint256","internalType":"uint256"}],"stateMutability":"view"},{"type":"function","name":"owner","inputs":[],"outputs":[{"name":"","type":"address","internalType":"address"}],"stateMutability":"view"},{"type":"function","name":"theMessage","inputs":[],"outputs":[{"name":"","type":"string","internalType":"string"}],"stateMutability":"view"},{"type":"function","name":"updateTheMessage","inputs":[{"name":"_newMessage","type":"string","internalType":"string"}],"outputs":[],"stateMutability":"nonpayable"}],"bytecode":{"object":"0x6080604052348015600e575f5ffd5b503360015f6101000a81548173ffffffffffffffffffffffffffffffffffffffff021916908373ffffffffffffffffffffffffffffffffffffffff16021790555061080b8061005c5f395ff3fe608060405234801561000f575f5ffd5b506004361061004a575f3560e01c806367e8805f1461004e5780636a3944341461006c5780638da5cb5b14610088578063aaf4389a146100a6575b5f5ffd5b6100566100c4565b6040516100639190610268565b60405180910390f35b610086600480360381019061008191906103c5565b610150565b005b6100906101ce565b60405161009d919061044b565b60405180910390f35b6100ae6101f3565b6040516100bb919061047c565b60405180910390f35b600280546100d1906104c2565b80601f01602080910402602001604051908101604052809291908181526020018280546100fd906104c2565b80156101485780601f1061011f57610100808354040283529160200191610148565b820191905f5260205f20905b81548152906001019060200180831161012b57829003601f168201915b505050505081565b60015f9054906101000a900473ffffffffffffffffffffffffffffffffffffffff1673ffffffffffffffffffffffffffffffffffffffff163373ffffffffffffffffffffffffffffffffffffffff16036101cb5780600290816101b39190610692565b505f5f8154809291906101c59061078e565b91905055505b50565b60015f9054906101000a900473ffffffffffffffffffffffffffffffffffffffff1681565b5f5481565b5f81519050919050565b5f82825260208201905092915050565b8281835e5f83830152505050565b5f601f19601f8301169050919050565b5f61023a826101f8565b6102448185610202565b9350610254818560208601610212565b61025d81610220565b840191505092915050565b5f6020820190508181035f8301526102808184610230565b905092915050565b5f604051905090565b5f5ffd5b5f5ffd5b5f5ffd5b5f5ffd5b7f4e487b71000000000000000000000000000000000000000000000000000000005f52604160045260245ffd5b6102d782610220565b810181811067ffffffffffffffff821117156102f6576102f56102a1565b5b80604052505050565b5f610308610288565b905061031482826102ce565b919050565b5f67ffffffffffffffff821115610333576103326102a1565b5b61033c82610220565b9050602081019050919050565b828183375f83830152505050565b5f61036961036484610319565b6102ff565b9050828152602081018484840111156103855761038461029d565b5b610390848285610349565b509392505050565b5f82601f8301126103ac576103ab610299565b5b81356103bc848260208601610357565b91505092915050565b5f602082840312156103da576103d9610291565b5b5f82013567ffffffffffffffff8111156103f7576103f6610295565b5b61040384828501610398565b91505092915050565b5f73ffffffffffffffffffffffffffffffffffffffff82169050919050565b5f6104358261040c565b9050919050565b6104458161042b565b82525050565b5f60208201905061045e5f83018461043c565b92915050565b5f819050919050565b61047681610464565b82525050565b5f60208201905061048f5f83018461046d565b92915050565b7f4e487b71000000000000000000000000000000000000000000000000000000005f52602260045260245ffd5b5f60028204905060018216806104d957607f821691505b6020821081036104ec576104eb610495565b5b50919050565b5f819050815f5260205f209050919050565b5f6020601f8301049050919050565b5f82821b905092915050565b5f6008830261054e7fffffffffffffffffffffffffffffffffffffffffffffffffffffffffffffffff82610513565b6105588683610513565b95508019841693508086168417925050509392505050565b5f819050919050565b5f61059361058e61058984610464565b610570565b610464565b9050919050565b5f819050919050565b6105ac83610579565b6105c06105b88261059a565b84845461051f565b825550505050565b5f5f905090565b6105d76105c8565b6105e28184846105a3565b505050565b5b81811015610605576105fa5f826105cf565b6001810190506105e8565b5050565b601f82111561064a5761061b816104f2565b61062484610504565b81016020851015610633578190505b61064761063f85610504565b8301826105e7565b50505b505050565b5f82821c905092915050565b5f61066a5f198460080261064f565b1980831691505092915050565b5f610682838361065b565b9150826002028217905092915050565b61069b826101f8565b67ffffffffffffffff8111156106b4576106b36102a1565b5b6106be82546104c2565b6106c9828285610609565b5f60209050601f8311600181146106fa575f84156106e8578287015190505b6106f28582610677565b865550610759565b601f198416610708866104f2565b5f5b8281101561072f5784890151825560018201915060208501945060208101905061070a565b8683101561074c5784890151610748601f89168261065b565b8355505b6001600288020188555050505b505050505050565b7f4e487b71000000000000000000000000000000000000000000000000000000005f52601160045260245ffd5b5f61079882610464565b91507fffffffffffffffffffffffffffffffffffffffffffffffffffffffffffffffff82036107ca576107c9610761565b5b60018201905091905056fea26469706673582212208c2a4bdc5acfe4bc5c1c91395242e859f374133cf6b46426fa906d58d265f8fa64736f6c634300081e0033","linkReferences":{}},"methodIdentifiers":{"changeCounter()":"aaf4389a","owner()":"8da5cb5b","theMessage()":"67e8805f","updateTheMessage(string)":"6a394434"},"id":8}