{"abi":[{"type":"function","name":"myUint","inputs":[],"outputs":[{"name":"","type":"uint256","internalType":"uint256"}],"stateMutability":"view"},{"type":"function","name":"setMyUint","inputs":[{"name":"_newUint","type":"uint256","internalType":"uint256"}],"outputs":[],"stateMutability":"nonpayable"}],"bytecode":{"object":"0x6080604052607b5f553480156012575f5ffd5b50610126806100205f395ff3fe6080604052348015600e575f5ffd5b50600436106030575f3560e01c806306540f7e146034578063e492fd8414604e575b5f5ffd5b603a6066565b60405160459190608a565b60405180910390f35b606460048036038101906060919060ca565b606b565b005b5f5481565b805f8190555050565b5f819050919050565b6084816074565b82525050565b5f602082019050609b5f830184607d565b92915050565b5f5ffd5b60ac816074565b811460b5575f5ffd5b50565b5f8135905060c48160a5565b92915050565b5f6020828403121560dc5760db60a1565b5b5f60e78482850160b8565b9150509291505056fea264697066735822122057d91f0d537591e6fdbf9a85daf9bfbf2e07eda6317f2ae7078f60a77012d67864736f6c634300081e0033","linkReferences":{}},"methodIdentifiers":{"myUint()":"06540f7e","setMyUint(uint256)":"e492fd84"},"id":22}