{"abi":[{"type":"function","name":"someAddress","inputs":[],"outputs":[{"name":"","type":"address","internalType":"address"}],"stateMutability":"view"},{"type":"function","name":"updateSomeAddress","inputs":[],"outputs":[],"stateMutability":"nonpayable"}],"bytecode":{"object":"0x6080604052348015600e575f5ffd5b506101538061001c5f395ff3fe608060405234801561000f575f5ffd5b5060043610610034575f3560e01c806318e5f16b146100385780639b57e71114610056575b5f5ffd5b610040610060565b60405161004d9190610104565b60405180910390f35b61005e610084565b005b5f5f9054906101000a900473ffffffffffffffffffffffffffffffffffffffff1681565b335f5f6101000a81548173ffffffffffffffffffffffffffffffffffffffff021916908373ffffffffffffffffffffffffffffffffffffffff160217905550565b5f73ffffffffffffffffffffffffffffffffffffffff82169050919050565b5f6100ee826100c5565b9050919050565b6100fe816100e4565b82525050565b5f6020820190506101175f8301846100f5565b9291505056fea26469706673582212209bd846dda245d76733028a623309cf8904ad5d86e064d72790e8447af38da2f864736f6c634300081e0033","linkReferences":{}},"methodIdentifiers":{"someAddress()":"18e5f16b","updateSomeAddress()":"9b57e711"},"id":5}