{"abi":[{"type":"constructor","inputs":[],"stateMutability":"nonpayable"},{"type":"function","name":"balance","inputs":[{"name":"","type":"address","internalType":"address"}],"outputs":[{"name":"","type":"uint256","internalType":"uint256"}],"stateMutability":"view"},{"type":"function","name":"someCrypticFunctionName","inputs":[{"name":"_addr","type":"address","internalType":"address"}],"outputs":[{"name":"","type":"uint256","internalType":"uint256"}],"stateMutability":"view"},{"type":"function","name":"transfer","inputs":[{"name":"to","type":"address","internalType":"address"},{"name":"amount","type":"uint256","internalType":"uint256"}],"outputs":[],"stateMutability":"nonpayable"}],"bytecode":{"object":"0x6080604052348015600e575f5ffd5b5060645f5f3373ffffffffffffffffffffffffffffffffffffffff1673ffffffffffffffffffffffffffffffffffffffff1681526020019081526020015f20819055506103ab8061005e5f395ff3fe608060405234801561000f575f5ffd5b506004361061003f575f3560e01c8063a3038d7814610043578063a9059cbb14610073578063e3d670d71461008f575b5f5ffd5b61005d6004803603810190610058919061021e565b6100bf565b60405161006a9190610261565b60405180910390f35b61008d600480360381019061008891906102a4565b610104565b005b6100a960048036038101906100a4919061021e565b6101ac565b6040516100b69190610261565b60405180910390f35b5f5f5f8373ffffffffffffffffffffffffffffffffffffffff1673ffffffffffffffffffffffffffffffffffffffff1681526020019081526020015f20549050919050565b805f5f3373ffffffffffffffffffffffffffffffffffffffff1673ffffffffffffffffffffffffffffffffffffffff1681526020019081526020015f205f82825461014f919061030f565b92505081905550805f5f8473ffffffffffffffffffffffffffffffffffffffff1673ffffffffffffffffffffffffffffffffffffffff1681526020019081526020015f205f8282546101a19190610342565b925050819055505050565b5f602052805f5260405f205f915090505481565b5f5ffd5b5f73ffffffffffffffffffffffffffffffffffffffff82169050919050565b5f6101ed826101c4565b9050919050565b6101fd816101e3565b8114610207575f5ffd5b50565b5f81359050610218816101f4565b92915050565b5f60208284031215610233576102326101c0565b5b5f6102408482850161020a565b91505092915050565b5f819050919050565b61025b81610249565b82525050565b5f6020820190506102745f830184610252565b92915050565b61028381610249565b811461028d575f5ffd5b50565b5f8135905061029e8161027a565b92915050565b5f5f604083850312156102ba576102b96101c0565b5b5f6102c78582860161020a565b92505060206102d885828601610290565b9150509250929050565b7f4e487b71000000000000000000000000000000000000000000000000000000005f52601160045260245ffd5b5f61031982610249565b915061032483610249565b925082820390508181111561033c5761033b6102e2565b5b92915050565b5f61034c82610249565b915061035783610249565b925082820190508082111561036f5761036e6102e2565b5b9291505056fea26469706673582212208277169bf87c95819083e0b244973f5b3f3f3039e9af068a2db06f34b59d7cbb64736f6c634300081e0033","linkReferences":{}},"methodIdentifiers":{"balance(address)":"e3d670d7","someCrypticFunctionName(address)":"a3038d78","transfer(address,uint256)":"a9059cbb"},"id":29}