{
  "contractName": "Spacebear",
  "abi": [
    {
      "inputs": [
        {
          "internalType": "address",
          "name": "initialOwner",
          "type": "address"
        }
      ],
      "stateMutability": "nonpayable",
      "type": "constructor"
    },
    {
      "inputs": [
        {
          "internalType": "address",
          "name": "sender",
          "type": "address"
        },
        {
          "internalType": "uint256",
          "name": "tokenId",
          "type": "uint256"
        },
        {
          "internalType": "address",
          "name": "owner",
          "type": "address"
        }
      ],
      "name": "ERC721IncorrectOwner",
      "type": "error"
    },
    {
      "inputs": [
        {
          "internalType": "address",
          "name": "operator",
          "type": "address"
        },
        {
          "internalType": "uint256",
          "name": "tokenId",
          "type": "uint256"
        }
      ],
      "name": "ERC721InsufficientApproval",
      "type": "error"
    },
    {
      "inputs": [
        {
          "internalType": "address",
          "name": "approver",
          "type": "address"
        }
      ],
      "name": "ERC721InvalidApprover",
      "type": "error"
    },
    {
      "inputs": [
        {
          "internalType": "address",
          "name": "operator",
          "type": "address"
        }
      ],
      "name": "ERC721InvalidOperator",
      "type": "error"
    },
    {
      "inputs": [
        {
          "internalType": "address",
          "name": "owner",
          "type": "address"
        }
      ],
      "name": "ERC721InvalidOwner",
      "type": "error"
    },
    {
      "inputs": [
        {
          "internalType": "address",
          "name": "receiver",
          "type": "address"
        }
      ],
      "name": "ERC721InvalidReceiver",
      "type": "error"
    },
    {
      "inputs": [
        {
          "internalType": "address",
          "name": "sender",
          "type": "address"
        }
      ],
      "name": "ERC721InvalidSender",
      "type": "error"
    },
    {
      "inputs": [
        {
          "internalType": "uint256",
          "name": "tokenId",
          "type": "uint256"
        }
      ],
      "name": "ERC721NonexistentToken",
      "type": "error"
    },
    {
      "inputs": [
        {
          "internalType": "address",
          "name": "owner",
          "type": "address"
        }
      ],
      "name": "OwnableInvalidOwner",
      "type": "error"
    },
    {
      "inputs": [
        {
          "internalType": "address",
          "name": "account",
          "type": "address"
        }
      ],
      "name": "OwnableUnauthorizedAccount",
      "type": "error"
    },
    {
      "anonymous": false,
      "inputs": [
        {
          "indexed": true,
          "internalType": "address",
          "name": "owner",
          "type": "address"
        },
        {
          "indexed": true,
          "internalType": "address",
          "name": "approved",
          "type": "address"
        },
        {
          "indexed": true,
          "internalType": "uint256",
          "name": "tokenId",
          "type": "uint256"
        }
      ],
      "name": "Approval",
      "type": "event"
    },
    {
      "anonymous": false,
      "inputs": [
        {
          "indexed": true,
          "internalType": "address",
          "name": "owner",
          "type": "address"
        },
        {
          "indexed": true,
          "internalType": "address",
          "name": "operator",
          "type": "address"
        },
        {
          "indexed": false,
          "internalType": "bool",
          "name": "approved",
          "type": "bool"
        }
      ],
      "name": "ApprovalForAll",
      "type": "event"
    },
    {
      "anonymous": false,
      "inputs": [
        {
          "indexed": true,
          "internalType": "address",
          "name": "previousOwner",
          "type": "address"
        },
        {
          "indexed": true,
          "internalType": "address",
          "name": "newOwner",
          "type": "address"
        }
      ],
      "name": "OwnershipTransferred",
      "type": "event"
    },
    {
      "anonymous": false,
      "inputs": [
        {
          "indexed": true,
          "internalType": "address",
          "name": "from",
          "type": "address"
        },
        {
          "indexed": true,
          "internalType": "address",
          "name": "to",
          "type": "address"
        },
        {
          "indexed": true,
          "internalType": "uint256",
          "name": "tokenId",
          "type": "uint256"
        }
      ],
      "name": "Transfer",
      "type": "event"
    },
    {
      "inputs": [
        {
          "internalType": "address",
          "name": "to",
          "type": "address"
        },
        {
          "internalType": "uint256",
          "name": "tokenId",
          "type": "uint256"
        }
      ],
      "name": "approve",
      "outputs": [],
      "stateMutability": "nonpayable",
      "type": "function"
    },
    {
      "inputs": [
        {
          "internalType": "address",
          "name": "owner",
          "type": "address"
        }
      ],
      "name": "balanceOf",
      "outputs": [
        {
          "internalType": "uint256",
          "name": "",
          "type": "uint256"
        }
      ],
      "stateMutability": "view",
      "type": "function",
      "constant": true
    },
    {
      "inputs": [
        {
          "internalType": "uint256",
          "name": "tokenId",
          "type": "uint256"
        }
      ],
      "name": "getApproved",
      "outputs": [
        {
          "internalType": "address",
          "name": "",
          "type": "address"
        }
      ],
      "stateMutability": "view",
      "type": "function",
      "constant": true
    },
    {
      "inputs": [
        {
          "internalType": "address",
          "name": "owner",
          "type": "address"
        },
        {
          "internalType": "address",
          "name": "operator",
          "type": "address"
        }
      ],
      "name": "isApprovedForAll",
      "outputs": [
        {
          "internalType": "bool",
          "name": "",
          "type": "bool"
        }
      ],
      "stateMutability": "view",
      "type": "function",
      "constant": true
    },
    {
      "inputs": [],
      "name": "name",
      "outputs": [
        {
          "internalType": "string",
          "name": "",
          "type": "string"
        }
      ],
      "stateMutability": "view",
      "type": "function",
      "constant": true
    },
    {
      "inputs": [],
      "name": "owner",
      "outputs": [
        {
          "internalType": "address",
          "name": "",
          "type": "address"
        }
      ],
      "stateMutability": "view",
      "type": "function",
      "constant": true
    },
    {
      "inputs": [
        {
          "internalType": "uint256",
          "name": "tokenId",
          "type": "uint256"
        }
      ],
      "name": "ownerOf",
      "outputs": [
        {
          "internalType": "address",
          "name": "",
          "type": "address"
        }
      ],
      "stateMutability": "view",
      "type": "function",
      "constant": true
    },
    {
      "inputs": [],
      "name": "renounceOwnership",
      "outputs": [],
      "stateMutability": "nonpayable",
      "type": "function"
    },
    {
      "inputs": [
        {
          "internalType": "address",
          "name": "from",
          "type": "address"
        },
        {
          "internalType": "address",
          "name": "to",
          "type": "address"
        },
        {
          "internalType": "uint256",
          "name": "tokenId",
          "type": "uint256"
        }
      ],
      "name": "safeTransferFrom",
      "outputs": [],
      "stateMutability": "nonpayable",
      "type": "function"
    },
    {
      "inputs": [
        {
          "internalType": "address",
          "name": "from",
          "type": "address"
        },
        {
          "internalType": "address",
          "name": "to",
          "type": "address"
        },
        {
          "internalType": "uint256",
          "name": "tokenId",
          "type": "uint256"
        },
        {
          "internalType": "bytes",
          "name": "data",
          "type": "bytes"
        }
      ],
      "name": "safeTransferFrom",
      "outputs": [],
      "stateMutability": "nonpayable",
      "type": "function"
    },
    {
      "inputs": [
        {
          "internalType": "address",
          "name": "operator",
          "type": "address"
        },
        {
          "internalType": "bool",
          "name": "approved",
          "type": "bool"
        }
      ],
      "name": "setApprovalForAll",
      "outputs": [],
      "stateMutability": "nonpayable",
      "type": "function"
    },
    {
      "inputs": [
        {
          "internalType": "bytes4",
          "name": "interfaceId",
          "type": "bytes4"
        }
      ],
      "name": "supportsInterface",
      "outputs": [
        {
          "internalType": "bool",
          "name": "",
          "type": "bool"
        }
      ],
      "stateMutability": "view",
      "type": "function",
      "constant": true
    },
    {
      "inputs": [],
      "name": "symbol",
      "outputs": [
        {
          "internalType": "string",
          "name": "",
          "type": "string"
        }
      ],
      "stateMutability": "view",
      "type": "function",
      "constant": true
    },
    {
      "inputs": [
        {
          "internalType": "address",
          "name": "from",
          "type": "address"
        },
        {
          "internalType": "address",
          "name": "to",
          "type": "address"
        },
        {
          "internalType": "uint256",
          "name": "tokenId",
          "type": "uint256"
        }
      ],
      "name": "transferFrom",
      "outputs": [],
      "stateMutability": "nonpayable",
      "type": "function"
    },
    {
      "inputs": [
        {
          "internalType": "address",
          "name": "newOwner",
          "type": "address"
        }
      ],
      "name": "transferOwnership",
      "outputs": [],
      "stateMutability": "nonpayable",
      "type": "function"
    },
    {
      "inputs": [
        {
          "internalType": "address",
          "name": "to",
          "type": "address"
        }
      ],
      "name": "safeMint",
      "outputs": [
        {
          "internalType": "uint256",
          "name": "",
          "type": "uint256"
        }
      ],
      "stateMutability": "nonpayable",
      "type": "function"
    },
    {
      "inputs": [],
      "name": "buyToken",
      "outputs": [],
      "stateMutability": "payable",
      "type": "function",
      "payable": true
    },
    {
      "inputs": [
        {
          "internalType": "uint256",
          "name": "tokenId",
          "type": "uint256"
        }
      ],
      "name": "tokenURI",
      "outputs": [
        {
          "internalType": "string",
          "name": "",
          "type": "string"
        }
      ],
      "stateMutability": "pure",
      "type": "function",
      "constant": true
    }
  ],
  "bytecode": "0x608060405234801562000010575f80fd5b506040516200140238038062001402833981016040819052620000339162000126565b806040518060400160405280600981526020016829b830b1b2b132b0b960b91b8152506040518060400160405280600381526020016229a12960e91b815250815f9081620000829190620001f3565b506001620000918282620001f3565b5050506001600160a01b038116620000c257604051631e4fbdf760e01b81525f600482015260240160405180910390fd5b620000cd81620000d5565b5050620002bf565b600680546001600160a01b038381166001600160a01b0319831681179093556040519116919082907f8be0079c531659141344cd1fd0a4f28419497f9722a3daafe3b4186f6b6457e0905f90a35050565b5f6020828403121562000137575f80fd5b81516001600160a01b03811681146200014e575f80fd5b9392505050565b634e487b7160e01b5f52604160045260245ffd5b600181811c908216806200017e57607f821691505b6020821081036200019d57634e487b7160e01b5f52602260045260245ffd5b50919050565b601f821115620001ee57805f5260205f20601f840160051c81016020851015620001ca5750805b601f840160051c820191505b81811015620001eb575f8155600101620001d6565b50505b505050565b81516001600160401b038111156200020f576200020f62000155565b620002278162000220845462000169565b84620001a3565b602080601f8311600181146200025d575f8415620002455750858301515b5f19600386901b1c1916600185901b178555620002b7565b5f85815260208120601f198616915b828110156200028d578886015182559484019460019091019084016200026c565b5085821015620002ab57878501515f19600388901b60f8161c191681555b505060018460011b0185555b505050505050565b61113580620002cd5f395ff3fe608060405260043610610105575f3560e01c8063715018a611610092578063a482171911610062578063a4821719146102c3578063b88d4fde146102cb578063c87b56dd146102ea578063e985e9c514610309578063f2fde38b14610328575f80fd5b8063715018a61461025f5780638da5cb5b1461027357806395d89b4114610290578063a22cb465146102a4575f80fd5b806323b872dd116100d857806323b872dd146101b657806340d097c3146101d557806342842e0e146102025780636352211e1461022157806370a0823114610240575f80fd5b806301ffc9a71461010957806306fdde031461013d578063081812fc1461015e578063095ea7b314610195575b5f80fd5b348015610114575f80fd5b50610128610123366004610d06565b610347565b60405190151581526020015b60405180910390f35b348015610148575f80fd5b50610151610398565b6040516101349190610d75565b348015610169575f80fd5b5061017d610178366004610d87565b610427565b6040516001600160a01b039091168152602001610134565b3480156101a0575f80fd5b506101b46101af366004610db4565b61044e565b005b3480156101c1575f80fd5b506101b46101d0366004610ddc565b61045d565b3480156101e0575f80fd5b506101f46101ef366004610e15565b6104eb565b604051908152602001610134565b34801561020d575f80fd5b506101b461021c366004610ddc565b61051c565b34801561022c575f80fd5b5061017d61023b366004610d87565b61053b565b34801561024b575f80fd5b506101f461025a366004610e15565b610545565b34801561026a575f80fd5b506101b461058a565b34801561027e575f80fd5b506006546001600160a01b031661017d565b34801561029b575f80fd5b5061015161059d565b3480156102af575f80fd5b506101b46102be366004610e2e565b6105ac565b6101b46105b7565b3480156102d6575f80fd5b506101b46102e5366004610e7b565b61063e565b3480156102f5575f80fd5b50610151610304366004610d87565b610656565b348015610314575f80fd5b50610128610323366004610f50565b610692565b348015610333575f80fd5b506101b4610342366004610e15565b6106bf565b5f6001600160e01b031982166380ac58cd60e01b148061037757506001600160e01b03198216635b5e139f60e01b145b8061039257506301ffc9a760e01b6001600160e01b03198316145b92915050565b60605f80546103a690610f81565b80601f01602080910402602001604051908101604052809291908181526020018280546103d290610f81565b801561041d5780601f106103f45761010080835404028352916020019161041d565b820191905f5260205f20905b81548152906001019060200180831161040057829003601f168201915b5050505050905090565b5f610431826106f9565b505f828152600460205260409020546001600160a01b0316610392565b610459828233610731565b5050565b6001600160a01b03821661048b57604051633250574960e11b81525f60048201526024015b60405180910390fd5b5f61049783833361073e565b9050836001600160a01b0316816001600160a01b0316146104e5576040516364283d7b60e01b81526001600160a01b0380861660048301526024820184905282166044820152606401610482565b50505050565b5f6104f4610830565b600780545f918261050483610fcd565b919050559050610514838261085d565b90505b919050565b61053683838360405180602001604052805f81525061063e565b505050565b5f610392826106f9565b5f6001600160a01b03821661056f576040516322718ad960e21b81525f6004820152602401610482565b506001600160a01b03165f9081526003602052604090205490565b610592610830565b61059b5f610876565b565b6060600180546103a690610f81565b6104593383836108c7565b6007546105c5816001610fe5565b6105d79067016345785d8a0000610ff8565b341461061d5760405162461bcd60e51b8152602060048201526015602482015274139bdd08195b9bdd59da08199d5b991cc81cd95b9d605a1b6044820152606401610482565b60078054905f61062c83610fcd565b919050555061063b338261085d565b50565b61064984848461045d565b6104e53385858585610965565b6060610660610a8d565b61066b836001610fe5565b60405160200161067c92919061100f565b6040516020818303038152906040529050919050565b6001600160a01b039182165f90815260056020908152604080832093909416825291909152205460ff1690565b6106c7610830565b6001600160a01b0381166106f057604051631e4fbdf760e01b81525f6004820152602401610482565b61063b81610876565b5f818152600260205260408120546001600160a01b03168061051457604051637e27328960e01b815260048101849052602401610482565b6105368383836001610aad565b5f828152600260205260408120546001600160a01b039081169083161561076a5761076a818486610bb1565b6001600160a01b038116156107a4576107855f855f80610aad565b6001600160a01b0381165f90815260036020526040902080545f190190555b6001600160a01b038516156107d2576001600160a01b0385165f908152600360205260409020805460010190555b5f8481526002602052604080822080546001600160a01b0319166001600160a01b0389811691821790925591518793918516917fddf252ad1be2c89b69c2b068fc378daa952ba7f163c4a11628f55a4df523b3ef91a4949350505050565b6006546001600160a01b0316331461059b5760405163118cdaa760e01b8152336004820152602401610482565b610459828260405180602001604052805f815250610c15565b600680546001600160a01b038381166001600160a01b0319831681179093556040519116919082907f8be0079c531659141344cd1fd0a4f28419497f9722a3daafe3b4186f6b6457e0905f90a35050565b6001600160a01b0382166108f957604051630b61174360e31b81526001600160a01b0383166004820152602401610482565b6001600160a01b038381165f81815260056020908152604080832094871680845294825291829020805460ff191686151590811790915591519182527f17307eab39ab6107e8899845ad3d59bd9653f200f220920489ca2b5937696c31910160405180910390a3505050565b6001600160a01b0383163b15610a8657604051630a85bd0160e11b81526001600160a01b0384169063150b7a02906109a7908890889087908790600401611052565b6020604051808303815f875af19250505080156109e1575060408051601f3d908101601f191682019092526109de9181019061108e565b60015b610a48573d808015610a0e576040519150601f19603f3d011682016040523d82523d5f602084013e610a13565b606091505b5080515f03610a4057604051633250574960e11b81526001600160a01b0385166004820152602401610482565b805160208201fd5b6001600160e01b03198116630a85bd0160e11b14610a8457604051633250574960e11b81526001600160a01b0385166004820152602401610482565b505b5050505050565b60606040518060800160405280605681526020016110aa60569139905090565b8080610ac157506001600160a01b03821615155b15610b82575f610ad0846106f9565b90506001600160a01b03831615801590610afc5750826001600160a01b0316816001600160a01b031614155b8015610b0f5750610b0d8184610692565b155b15610b385760405163a9fbf51f60e01b81526001600160a01b0384166004820152602401610482565b8115610b805783856001600160a01b0316826001600160a01b03167f8c5be1e5ebec7d5bd14f71427d1e84f3dd0314c0f7b2291e5b200ac8c7c3b92560405160405180910390a45b505b50505f90815260046020526040902080546001600160a01b0319166001600160a01b0392909216919091179055565b610bbc838383610c2c565b610536576001600160a01b038316610bea57604051637e27328960e01b815260048101829052602401610482565b60405163177e802f60e01b81526001600160a01b038316600482015260248101829052604401610482565b610c1f8383610c90565b610536335f858585610965565b5f6001600160a01b03831615801590610c885750826001600160a01b0316846001600160a01b03161480610c655750610c658484610692565b80610c8857505f828152600460205260409020546001600160a01b038481169116145b949350505050565b6001600160a01b038216610cb957604051633250574960e11b81525f6004820152602401610482565b5f610cc583835f61073e565b90506001600160a01b03811615610536576040516339e3563760e11b81525f6004820152602401610482565b6001600160e01b03198116811461063b575f80fd5b5f60208284031215610d16575f80fd5b8135610d2181610cf1565b9392505050565b5f5b83811015610d42578181015183820152602001610d2a565b50505f910152565b5f8151808452610d61816020860160208601610d28565b601f01601f19169290920160200192915050565b602081525f610d216020830184610d4a565b5f60208284031215610d97575f80fd5b5035919050565b80356001600160a01b0381168114610517575f80fd5b5f8060408385031215610dc5575f80fd5b610dce83610d9e565b946020939093013593505050565b5f805f60608486031215610dee575f80fd5b610df784610d9e565b9250610e0560208501610d9e565b9150604084013590509250925092565b5f60208284031215610e25575f80fd5b610d2182610d9e565b5f8060408385031215610e3f575f80fd5b610e4883610d9e565b915060208301358015158114610e5c575f80fd5b809150509250929050565b634e487b7160e01b5f52604160045260245ffd5b5f805f8060808587031215610e8e575f80fd5b610e9785610d9e565b9350610ea560208601610d9e565b925060408501359150606085013567ffffffffffffffff80821115610ec8575f80fd5b818701915087601f830112610edb575f80fd5b813581811115610eed57610eed610e67565b604051601f8201601f19908116603f01168101908382118183101715610f1557610f15610e67565b816040528281528a6020848701011115610f2d575f80fd5b826020860160208301375f60208483010152809550505050505092959194509250565b5f8060408385031215610f61575f80fd5b610f6a83610d9e565b9150610f7860208401610d9e565b90509250929050565b600181811c90821680610f9557607f821691505b602082108103610fb357634e487b7160e01b5f52602260045260245ffd5b50919050565b634e487b7160e01b5f52601160045260245ffd5b5f60018201610fde57610fde610fb9565b5060010190565b8082018082111561039257610392610fb9565b808202811582820484141761039257610392610fb9565b5f8351611020818460208801610d28565b697370616365626561725f60b01b920191825250600a81019190915264173539b7b760d91b602a820152602f01919050565b6001600160a01b03858116825284166020820152604081018390526080606082018190525f9061108490830184610d4a565b9695505050505050565b5f6020828403121561109e575f80fd5b8151610d2181610cf156fe68747470733a2f2f657468657265756d2d626c6f636b636861696e2d646576656c6f7065722e636f6d2f323032322d30362d6e66742d74727566666c652d686172646861742d666f756e6472792f6e6674646174612fa2646970667358221220eb2cde34a60e4c3bc5835b103588a0630ff62e7c2e4f8e0194bee1bd14efe25964736f6c63430008180033",
  "immutableReferences": {},
  "source": "// SPDX-License-Identifier: MIT\n// Compatible with OpenZeppelin Contracts ^5.4.0\npragma solidity ^0.8.24;\n\nimport {ERC721} from \"@openzeppelin/contracts/token/ERC721/ERC721.sol\";\nimport {Ownable} from \"@openzeppelin/contracts/access/Ownable.sol\";\n\ncontract Spacebear is ERC721, Ownable {\n    \n    uint256 private _nextTokenId;\n\n\n    constructor(address initialOwner)\n        ERC721(\"Spacebear\", \"SBR\")\n        Ownable(initialOwner)\n    {}\n\n\n    function _baseURI() internal pure override returns (string memory) {\n        return \"https://ethereum-blockchain-developer.com/2022-06-nft-truffle-hardhat-foundry/nftdata/\";\n    }\n\n\n    function safeMint(address to)\n        public\n        onlyOwner\n        returns (uint256)\n    {\n        uint256 tokenId = _nextTokenId++;\n        _safeMint(to, tokenId);\n        return tokenId;\n    }\n\n \n    function buyToken() public payable {\n        uint256 tokenId = _nextTokenId;\n        //console.log(\"got here\", tokenId, msg.value);\n        require(msg.value == (tokenId + 1) * 0.1 ether, \"Not enough funds sent\");\n\n        _nextTokenId++;\n        _safeMint(msg.sender, tokenId);\n    }\n    \n    function tokenURI(uint256 tokenId)\n        public\n        pure\n        override(ERC721)\n        returns (string memory)\n    {\n\n        return string(abi.encodePacked(_baseURI(), \"spacebear_\", (tokenId +1), \".json\"));\n    }\n}",
  "sourcePath": "/home/kenichiuejo/src/Solidity_Bootcamp/NFT-project/truffle/contracts/Spacebear.sol",
  "compiler": {
    "name": "solc",
    "version": "0.8.24+commit.e11b9ed9.Emscripten.clang"
  },
  "schemaVersion": "3.4.16",
  "updatedAt": "2025-09-21T05:32:23.332Z",
  "networkType": "ethereum",
  "devdoc": {
    "errors": {
      "ERC721IncorrectOwner(address,uint256,address)": [
        {
          "details": "Indicates an error related to the ownership over a particular token. Used in transfers.",
          "params": {
            "owner": "Address of the current owner of a token.",
            "sender": "Address whose tokens are being transferred.",
            "tokenId": "Identifier number of a token."
          }
        }
      ],
      "ERC721InsufficientApproval(address,uint256)": [
        {
          "details": "Indicates a failure with the `operator`s approval. Used in transfers.",
          "params": {
            "operator": "Address that may be allowed to operate on tokens without being their owner.",
            "tokenId": "Identifier number of a token."
          }
        }
      ],
      "ERC721InvalidApprover(address)": [
        {
          "details": "Indicates a failure with the `approver` of a token to be approved. Used in approvals.",
          "params": {
            "approver": "Address initiating an approval operation."
          }
        }
      ],
      "ERC721InvalidOperator(address)": [
        {
          "details": "Indicates a failure with the `operator` to be approved. Used in approvals.",
          "params": {
            "operator": "Address that may be allowed to operate on tokens without being their owner."
          }
        }
      ],
      "ERC721InvalidOwner(address)": [
        {
          "details": "Indicates that an address can't be an owner. For example, `address(0)` is a forbidden owner in ERC-20. Used in balance queries.",
          "params": {
            "owner": "Address of the current owner of a token."
          }
        }
      ],
      "ERC721InvalidReceiver(address)": [
        {
          "details": "Indicates a failure with the token `receiver`. Used in transfers.",
          "params": {
            "receiver": "Address to which tokens are being transferred."
          }
        }
      ],
      "ERC721InvalidSender(address)": [
        {
          "details": "Indicates a failure with the token `sender`. Used in transfers.",
          "params": {
            "sender": "Address whose tokens are being transferred."
          }
        }
      ],
      "ERC721NonexistentToken(uint256)": [
        {
          "details": "Indicates a `tokenId` whose `owner` is the zero address.",
          "params": {
            "tokenId": "Identifier number of a token."
          }
        }
      ],
      "OwnableInvalidOwner(address)": [
        {
          "details": "The owner is not a valid owner account. (eg. `address(0)`)"
        }
      ],
      "OwnableUnauthorizedAccount(address)": [
        {
          "details": "The caller account is not authorized to perform an operation."
        }
      ]
    },
    "events": {
      "Approval(address,address,uint256)": {
        "details": "Emitted when `owner` enables `approved` to manage the `tokenId` token."
      },
      "ApprovalForAll(address,address,bool)": {
        "details": "Emitted when `owner` enables or disables (`approved`) `operator` to manage all of its assets."
      },
      "Transfer(address,address,uint256)": {
        "details": "Emitted when `tokenId` token is transferred from `from` to `to`."
      }
    },
    "kind": "dev",
    "methods": {
      "approve(address,uint256)": {
        "details": "Gives permission to `to` to transfer `tokenId` token to another account. The approval is cleared when the token is transferred. Only a single account can be approved at a time, so approving the zero address clears previous approvals. Requirements: - The caller must own the token or be an approved operator. - `tokenId` must exist. Emits an {Approval} event."
      },
      "balanceOf(address)": {
        "details": "Returns the number of tokens in ``owner``'s account."
      },
      "getApproved(uint256)": {
        "details": "Returns the account approved for `tokenId` token. Requirements: - `tokenId` must exist."
      },
      "isApprovedForAll(address,address)": {
        "details": "Returns if the `operator` is allowed to manage all of the assets of `owner`. See {setApprovalForAll}"
      },
      "name()": {
        "details": "Returns the token collection name."
      },
      "owner()": {
        "details": "Returns the address of the current owner."
      },
      "ownerOf(uint256)": {
        "details": "Returns the owner of the `tokenId` token. Requirements: - `tokenId` must exist."
      },
      "renounceOwnership()": {
        "details": "Leaves the contract without owner. It will not be possible to call `onlyOwner` functions. Can only be called by the current owner. NOTE: Renouncing ownership will leave the contract without an owner, thereby disabling any functionality that is only available to the owner."
      },
      "safeTransferFrom(address,address,uint256)": {
        "details": "Safely transfers `tokenId` token from `from` to `to`, checking first that contract recipients are aware of the ERC-721 protocol to prevent tokens from being forever locked. Requirements: - `from` cannot be the zero address. - `to` cannot be the zero address. - `tokenId` token must exist and be owned by `from`. - If the caller is not `from`, it must have been allowed to move this token by either {approve} or   {setApprovalForAll}. - If `to` refers to a smart contract, it must implement {IERC721Receiver-onERC721Received}, which is called upon   a safe transfer. Emits a {Transfer} event."
      },
      "safeTransferFrom(address,address,uint256,bytes)": {
        "details": "Safely transfers `tokenId` token from `from` to `to`. Requirements: - `from` cannot be the zero address. - `to` cannot be the zero address. - `tokenId` token must exist and be owned by `from`. - If the caller is not `from`, it must be approved to move this token by either {approve} or {setApprovalForAll}. - If `to` refers to a smart contract, it must implement {IERC721Receiver-onERC721Received}, which is called upon   a safe transfer. Emits a {Transfer} event."
      },
      "setApprovalForAll(address,bool)": {
        "details": "Approve or remove `operator` as an operator for the caller. Operators can call {transferFrom} or {safeTransferFrom} for any token owned by the caller. Requirements: - The `operator` cannot be the address zero. Emits an {ApprovalForAll} event."
      },
      "supportsInterface(bytes4)": {
        "details": "Returns true if this contract implements the interface defined by `interfaceId`. See the corresponding https://eips.ethereum.org/EIPS/eip-165#how-interfaces-are-identified[ERC section] to learn more about how these ids are created. This function call must use less than 30 000 gas."
      },
      "symbol()": {
        "details": "Returns the token collection symbol."
      },
      "tokenURI(uint256)": {
        "details": "Returns the Uniform Resource Identifier (URI) for `tokenId` token."
      },
      "transferFrom(address,address,uint256)": {
        "details": "Transfers `tokenId` token from `from` to `to`. WARNING: Note that the caller is responsible to confirm that the recipient is capable of receiving ERC-721 or else they may be permanently lost. Usage of {safeTransferFrom} prevents loss, though the caller must understand this adds an external call which potentially creates a reentrancy vulnerability. Requirements: - `from` cannot be the zero address. - `to` cannot be the zero address. - `tokenId` token must be owned by `from`. - If the caller is not `from`, it must be approved to move this token by either {approve} or {setApprovalForAll}. Emits a {Transfer} event."
      },
      "transferOwnership(address)": {
        "details": "Transfers ownership of the contract to a new account (`newOwner`). Can only be called by the current owner."
      }
    },
    "version": 1
  },
  "userdoc": {
    "kind": "user",
    "methods": {},
    "version": 1
  }
}