{"abi":[{"type":"function","name":"balanceReceived","inputs":[{"name":"","type":"address","internalType":"address"}],"outputs":[{"name":"","type":"uint8","internalType":"uint8"}],"stateMutability":"view"},{"type":"function","name":"receiveMoney","inputs":[],"outputs":[],"stateMutability":"payable"},{"type":"function","name":"withdrawMoney","inputs":[{"name":"_to","type":"address","internalType":"address payable"},{"name":"_amount","type":"uint8","internalType":"uint8"}],"outputs":[],"stateMutability":"nonpayable"}],"bytecode":{"object":"0x6080604052348015600e575f5ffd5b506105608061001c5f395ff3fe608060405260043610610033575f3560e01c806367c114b8146100375780636d26ec181461005f578063d18a42e114610069575b5f5ffd5b348015610042575f5ffd5b5061005d60048036038101906100589190610324565b6100a5565b005b6100676101f0565b005b348015610074575f5ffd5b5061008f600480360381019061008a919061039d565b610274565b60405161009c91906103d7565b60405180910390f35b5f5f3373ffffffffffffffffffffffffffffffffffffffff1673ffffffffffffffffffffffffffffffffffffffff1681526020019081526020015f205f9054906101000a900460ff1660ff168160ff161115610136576040517f08c379a000000000000000000000000000000000000000000000000000000000815260040161012d9061044a565b60405180910390fd5b805f5f3373ffffffffffffffffffffffffffffffffffffffff1673ffffffffffffffffffffffffffffffffffffffff1681526020019081526020015f205f8282829054906101000a900460ff1661018d9190610495565b92506101000a81548160ff021916908360ff1602179055508173ffffffffffffffffffffffffffffffffffffffff166108fc8260ff1690811502906040515f60405180830381858888f193505050501580156101eb573d5f5f3e3d5ffd5b505050565b3460ff163414610203576102026104c9565b5b345f5f3373ffffffffffffffffffffffffffffffffffffffff1673ffffffffffffffffffffffffffffffffffffffff1681526020019081526020015f205f8282829054906101000a900460ff1661025a91906104f6565b92506101000a81548160ff021916908360ff160217905550565b5f602052805f5260405f205f915054906101000a900460ff1681565b5f5ffd5b5f73ffffffffffffffffffffffffffffffffffffffff82169050919050565b5f6102bd82610294565b9050919050565b6102cd816102b3565b81146102d7575f5ffd5b50565b5f813590506102e8816102c4565b92915050565b5f60ff82169050919050565b610303816102ee565b811461030d575f5ffd5b50565b5f8135905061031e816102fa565b92915050565b5f5f6040838503121561033a57610339610290565b5b5f610347858286016102da565b925050602061035885828601610310565b9150509250929050565b5f61036c82610294565b9050919050565b61037c81610362565b8114610386575f5ffd5b50565b5f8135905061039781610373565b92915050565b5f602082840312156103b2576103b1610290565b5b5f6103bf84828501610389565b91505092915050565b6103d1816102ee565b82525050565b5f6020820190506103ea5f8301846103c8565b92915050565b5f82825260208201905092915050565b7f4e6f7420656e6f7567682066756e64732c2061626f7274696e672100000000005f82015250565b5f610434601b836103f0565b915061043f82610400565b602082019050919050565b5f6020820190508181035f83015261046181610428565b9050919050565b7f4e487b71000000000000000000000000000000000000000000000000000000005f52601160045260245ffd5b5f61049f826102ee565b91506104aa836102ee565b9250828203905060ff8111156104c3576104c2610468565b5b92915050565b7f4e487b71000000000000000000000000000000000000000000000000000000005f52600160045260245ffd5b5f610500826102ee565b915061050b836102ee565b9250828201905060ff81111561052457610523610468565b5b9291505056fea264697066735822122040b7c0145c46ffd733072ebd043b3cdb38dbdec2df60544465266da21c0a0fd864736f6c634300081e0033","linkReferences":{}},"methodIdentifiers":{"balanceReceived(address)":"d18a42e1","receiveMoney()":"6d26ec18","withdrawMoney(address,uint8)":"67c114b8"},"id":17}