{"abi":[{"type":"function","name":"myBool","inputs":[],"outputs":[{"name":"","type":"bool","internalType":"bool"}],"stateMutability":"view"},{"type":"function","name":"setMyBool","inputs":[{"name":"_myBool","type":"bool","internalType":"bool"}],"outputs":[],"stateMutability":"nonpayable"}],"bytecode":{"object":"0x6080604052348015600e575f5ffd5b506101fb8061001c5f395ff3fe608060405234801561000f575f5ffd5b5060043610610034575f3560e01c80636deecdbe14610038578063eb1b30d914610056575b5f5ffd5b610040610072565b60405161004d9190610153565b60405180910390f35b610070600480360381019061006b919061019a565b610083565b005b5f5f9054906101000a900460ff1681565b805f5f6101000a81548160ff02191690831515021790555080155f5f6101000a81548160ff021916908315150217905550600180156100bf5750805b5f5f6101000a81548160ff0219169083151502179055506001806100e05750805b5f5f6101000a81548160ff02191690831515021790555080151560011515145f5f6101000a81548160ff0219169083151502179055508015156001151514155f5f6101000a81548160ff02191690831515021790555050565b5f8115159050919050565b61014d81610139565b82525050565b5f6020820190506101665f830184610144565b92915050565b5f5ffd5b61017981610139565b8114610183575f5ffd5b50565b5f8135905061019481610170565b92915050565b5f602082840312156101af576101ae61016c565b5b5f6101bc84828501610186565b9150509291505056fea2646970667358221220c255014473fd540699a2adf3bb9f3531bc5a2ed9591516b1f8b7279770d0abcc64736f6c634300081e0033","linkReferences":{}},"methodIdentifiers":{"myBool()":"6deecdbe","setMyBool(bool)":"eb1b30d9"},"id":0}