{"abi":[{"type":"function","name":"balanceReceived","inputs":[],"outputs":[{"name":"","type":"uint256","internalType":"uint256"}],"stateMutability":"view"},{"type":"function","name":"deposit","inputs":[],"outputs":[],"stateMutability":"payable"},{"type":"function","name":"getContractBalance","inputs":[],"outputs":[{"name":"","type":"uint256","internalType":"uint256"}],"stateMutability":"view"},{"type":"function","name":"withdrawAll","inputs":[],"outputs":[],"stateMutability":"nonpayable"},{"type":"function","name":"withdrawToAddress","inputs":[{"name":"to","type":"address","internalType":"address payable"}],"outputs":[],"stateMutability":"nonpayable"}],"bytecode":{"object":"0x6080604052348015600e575f5ffd5b506102fe8061001c5f395ff3fe608060405260043610610049575f3560e01c806352a90c421461004d5780636f9fb98a14610077578063853828b6146100a1578063a92bd72c146100b7578063d0e30db0146100df575b5f5ffd5b348015610058575f5ffd5b506100616100e9565b60405161006e91906101c6565b60405180910390f35b348015610082575f5ffd5b5061008b6100ee565b60405161009891906101c6565b60405180910390f35b3480156100ac575f5ffd5b506100b56100f5565b005b3480156100c2575f5ffd5b506100dd60048036038101906100d8919061023d565b610147565b005b6100e7610195565b005b5f5481565b5f47905090565b5f3390508073ffffffffffffffffffffffffffffffffffffffff166108fc61011b6100ee565b90811502906040515f60405180830381858888f19350505050158015610143573d5f5f3e3d5ffd5b5050565b8073ffffffffffffffffffffffffffffffffffffffff166108fc6101696100ee565b90811502906040515f60405180830381858888f19350505050158015610191573d5f5f3e3d5ffd5b5050565b345f5f8282546101a59190610295565b92505081905550565b5f819050919050565b6101c0816101ae565b82525050565b5f6020820190506101d95f8301846101b7565b92915050565b5f5ffd5b5f73ffffffffffffffffffffffffffffffffffffffff82169050919050565b5f61020c826101e3565b9050919050565b61021c81610202565b8114610226575f5ffd5b50565b5f8135905061023781610213565b92915050565b5f60208284031215610252576102516101df565b5b5f61025f84828501610229565b91505092915050565b7f4e487b71000000000000000000000000000000000000000000000000000000005f52601160045260245ffd5b5f61029f826101ae565b91506102aa836101ae565b92508282019050808211156102c2576102c1610268565b5b9291505056fea2646970667358221220a89409930ab4f09971f2e6c6c454428bfe0c56c0612364c11994bb6887fcc3fe64736f6c634300081e0033","linkReferences":{}},"methodIdentifiers":{"balanceReceived()":"52a90c42","deposit()":"d0e30db0","getContractBalance()":"6f9fb98a","withdrawAll()":"853828b6","withdrawToAddress(address)":"a92bd72c"},"id":11}