{"abi":[{"type":"function","name":"getAddressBalance","inputs":[],"outputs":[{"name":"","type":"uint256","internalType":"uint256"}],"stateMutability":"view"},{"type":"function","name":"setSomeAddress","inputs":[{"name":"_someAddress","type":"address","internalType":"address"}],"outputs":[],"stateMutability":"nonpayable"},{"type":"function","name":"someAddress","inputs":[],"outputs":[{"name":"","type":"address","internalType":"address"}],"stateMutability":"view"}],"bytecode":{"object":"0x6080604052348015600e575f5ffd5b506102578061001c5f395ff3fe608060405234801561000f575f5ffd5b506004361061003f575f3560e01c806318e5f16b1461004357806375eb2ad114610061578063be9bea9d1461007f575b5f5ffd5b61004b61009b565b604051610058919061017e565b60405180910390f35b6100696100bf565b60405161007691906101af565b60405180910390f35b610099600480360381019061009491906101f6565b6100fd565b005b5f5f9054906101000a900473ffffffffffffffffffffffffffffffffffffffff1681565b5f5f5f9054906101000a900473ffffffffffffffffffffffffffffffffffffffff1673ffffffffffffffffffffffffffffffffffffffff1631905090565b805f5f6101000a81548173ffffffffffffffffffffffffffffffffffffffff021916908373ffffffffffffffffffffffffffffffffffffffff16021790555050565b5f73ffffffffffffffffffffffffffffffffffffffff82169050919050565b5f6101688261013f565b9050919050565b6101788161015e565b82525050565b5f6020820190506101915f83018461016f565b92915050565b5f819050919050565b6101a981610197565b82525050565b5f6020820190506101c25f8301846101a0565b92915050565b5f5ffd5b6101d58161015e565b81146101df575f5ffd5b50565b5f813590506101f0816101cc565b92915050565b5f6020828403121561020b5761020a6101c8565b5b5f610218848285016101e2565b9150509291505056fea2646970667358221220e9285e9f025f3c62eb216a72c6519406493ddb1fc82cff576e5ddfbb7e29608a64736f6c634300081e0033","linkReferences":{}},"methodIdentifiers":{"getAddressBalance()":"75eb2ad1","setSomeAddress(address)":"be9bea9d","someAddress()":"18e5f16b"},"id":4}