{
	"data": {
		"bytecode": {
			"linkReferences": {},
			"object": "608060405260c860015560fa60035f6101000a81548160ff021916908360ff1602179055507ffffffffffffffffffffffffffffffffffffffffffffffffffffffffffffffff66004553480156052575f5ffd5b506103c4806100605f395ff3fe608060405234801561000f575f5ffd5b5060043610610091575f3560e01c8063a7dbce1c11610064578063a7dbce1c146100f9578063aa9cc77514610117578063e2a4b2af14610135578063e492fd8414610153578063e62e06351461016f57610091565b806306540f7e14610095578063343d39ff146100b357806384ea3606146100d1578063a59cb107146100db575b5f5ffd5b61009d610179565b6040516100aa919061023b565b60405180910390f35b6100bb61017e565b6040516100c8919061026c565b60405180910390f35b6100d9610184565b005b6100e36101bd565b6040516100f0919061026c565b60405180910390f35b6101016101c3565b60405161010e919061023b565b60405180910390f35b61011f6101c9565b60405161012c919061023b565b60405180910390f35b61013d6101cf565b60405161014a91906102a0565b60405180910390f35b61016d600480360381019061016891906102e7565b6101e1565b005b6101776101ea565b005b5f5481565b60055481565b60035f81819054906101000a900460ff16809291906101a29061033f565b91906101000a81548160ff021916908360ff16021790555050565b60045481565b60025481565b60015481565b60035f9054906101000a900460ff1681565b805f8190555050565b60035f81819054906101000a900460ff168092919061020890610367565b91906101000a81548160ff021916908360ff16021790555050565b5f819050919050565b61023581610223565b82525050565b5f60208201905061024e5f83018461022c565b92915050565b5f819050919050565b61026681610254565b82525050565b5f60208201905061027f5f83018461025d565b92915050565b5f60ff82169050919050565b61029a81610285565b82525050565b5f6020820190506102b35f830184610291565b92915050565b5f5ffd5b6102c681610223565b81146102d0575f5ffd5b50565b5f813590506102e1816102bd565b92915050565b5f602082840312156102fc576102fb6102b9565b5b5f610309848285016102d3565b91505092915050565b7f4e487b71000000000000000000000000000000000000000000000000000000005f52601160045260245ffd5b5f61034982610285565b915060ff820361035c5761035b610312565b5b600182019050919050565b5f61037182610285565b91505f820361038357610382610312565b5b60018203905091905056fea264697066735822122049b7e0cdfaeaa4e328ed5faf759a772caf9345435c0aebbb7d0f53629893a2cc64736f6c634300081e0033",
			"opcodes": "PUSH1 0x80 PUSH1 0x40 MSTORE PUSH1 0xC8 PUSH1 0x1 SSTORE PUSH1 0xFA PUSH1 0x3 PUSH0 PUSH2 0x100 EXP DUP2 SLOAD DUP2 PUSH1 0xFF MUL NOT AND SWAP1 DUP4 PUSH1 0xFF AND MUL OR SWAP1 SSTORE POP PUSH32 0xFFFFFFFFFFFFFFFFFFFFFFFFFFFFFFFFFFFFFFFFFFFFFFFFFFFFFFFFFFFFFFF6 PUSH1 0x4 SSTORE CALLVALUE DUP1 ISZERO PUSH1 0x52 JUMPI PUSH0 PUSH0 REVERT JUMPDEST POP PUSH2 0x3C4 DUP1 PUSH2 0x60 PUSH0 CODECOPY PUSH0 RETURN INVALID PUSH1 0x80 PUSH1 0x40 MSTORE CALLVALUE DUP1 ISZERO PUSH2 0xF JUMPI PUSH0 PUSH0 REVERT JUMPDEST POP PUSH1 0x4 CALLDATASIZE LT PUSH2 0x91 JUMPI PUSH0 CALLDATALOAD PUSH1 0xE0 SHR DUP1 PUSH4 0xA7DBCE1C GT PUSH2 0x64 JUMPI DUP1 PUSH4 0xA7DBCE1C EQ PUSH2 0xF9 JUMPI DUP1 PUSH4 0xAA9CC775 EQ PUSH2 0x117 JUMPI DUP1 PUSH4 0xE2A4B2AF EQ PUSH2 0x135 JUMPI DUP1 PUSH4 0xE492FD84 EQ PUSH2 0x153 JUMPI DUP1 PUSH4 0xE62E0635 EQ PUSH2 0x16F JUMPI PUSH2 0x91 JUMP JUMPDEST DUP1 PUSH4 0x6540F7E EQ PUSH2 0x95 JUMPI DUP1 PUSH4 0x343D39FF EQ PUSH2 0xB3 JUMPI DUP1 PUSH4 0x84EA3606 EQ PUSH2 0xD1 JUMPI DUP1 PUSH4 0xA59CB107 EQ PUSH2 0xDB JUMPI JUMPDEST PUSH0 PUSH0 REVERT JUMPDEST PUSH2 0x9D PUSH2 0x179 JUMP JUMPDEST PUSH1 0x40 MLOAD PUSH2 0xAA SWAP2 SWAP1 PUSH2 0x23B JUMP JUMPDEST PUSH1 0x40 MLOAD DUP1 SWAP2 SUB SWAP1 RETURN JUMPDEST PUSH2 0xBB PUSH2 0x17E JUMP JUMPDEST PUSH1 0x40 MLOAD PUSH2 0xC8 SWAP2 SWAP1 PUSH2 0x26C JUMP JUMPDEST PUSH1 0x40 MLOAD DUP1 SWAP2 SUB SWAP1 RETURN JUMPDEST PUSH2 0xD9 PUSH2 0x184 JUMP JUMPDEST STOP JUMPDEST PUSH2 0xE3 PUSH2 0x1BD JUMP JUMPDEST PUSH1 0x40 MLOAD PUSH2 0xF0 SWAP2 SWAP1 PUSH2 0x26C JUMP JUMPDEST PUSH1 0x40 MLOAD DUP1 SWAP2 SUB SWAP1 RETURN JUMPDEST PUSH2 0x101 PUSH2 0x1C3 JUMP JUMPDEST PUSH1 0x40 MLOAD PUSH2 0x10E SWAP2 SWAP1 PUSH2 0x23B JUMP JUMPDEST PUSH1 0x40 MLOAD DUP1 SWAP2 SUB SWAP1 RETURN JUMPDEST PUSH2 0x11F PUSH2 0x1C9 JUMP JUMPDEST PUSH1 0x40 MLOAD PUSH2 0x12C SWAP2 SWAP1 PUSH2 0x23B JUMP JUMPDEST PUSH1 0x40 MLOAD DUP1 SWAP2 SUB SWAP1 RETURN JUMPDEST PUSH2 0x13D PUSH2 0x1CF JUMP JUMPDEST PUSH1 0x40 MLOAD PUSH2 0x14A SWAP2 SWAP1 PUSH2 0x2A0 JUMP JUMPDEST PUSH1 0x40 MLOAD DUP1 SWAP2 SUB SWAP1 RETURN JUMPDEST PUSH2 0x16D PUSH1 0x4 DUP1 CALLDATASIZE SUB DUP2 ADD SWAP1 PUSH2 0x168 SWAP2 SWAP1 PUSH2 0x2E7 JUMP JUMPDEST PUSH2 0x1E1 JUMP JUMPDEST STOP JUMPDEST PUSH2 0x177 PUSH2 0x1EA JUMP JUMPDEST STOP JUMPDEST PUSH0 SLOAD DUP2 JUMP JUMPDEST PUSH1 0x5 SLOAD DUP2 JUMP JUMPDEST PUSH1 0x3 PUSH0 DUP2 DUP2 SWAP1 SLOAD SWAP1 PUSH2 0x100 EXP SWAP1 DIV PUSH1 0xFF AND DUP1 SWAP3 SWAP2 SWAP1 PUSH2 0x1A2 SWAP1 PUSH2 0x33F JUMP JUMPDEST SWAP2 SWAP1 PUSH2 0x100 EXP DUP2 SLOAD DUP2 PUSH1 0xFF MUL NOT AND SWAP1 DUP4 PUSH1 0xFF AND MUL OR SWAP1 SSTORE POP POP JUMP JUMPDEST PUSH1 0x4 SLOAD DUP2 JUMP JUMPDEST PUSH1 0x2 SLOAD DUP2 JUMP JUMPDEST PUSH1 0x1 SLOAD DUP2 JUMP JUMPDEST PUSH1 0x3 PUSH0 SWAP1 SLOAD SWAP1 PUSH2 0x100 EXP SWAP1 DIV PUSH1 0xFF AND DUP2 JUMP JUMPDEST DUP1 PUSH0 DUP2 SWAP1 SSTORE POP POP JUMP JUMPDEST PUSH1 0x3 PUSH0 DUP2 DUP2 SWAP1 SLOAD SWAP1 PUSH2 0x100 EXP SWAP1 DIV PUSH1 0xFF AND DUP1 SWAP3 SWAP2 SWAP1 PUSH2 0x208 SWAP1 PUSH2 0x367 JUMP JUMPDEST SWAP2 SWAP1 PUSH2 0x100 EXP DUP2 SLOAD DUP2 PUSH1 0xFF MUL NOT AND SWAP1 DUP4 PUSH1 0xFF AND MUL OR SWAP1 SSTORE POP POP JUMP JUMPDEST PUSH0 DUP2 SWAP1 POP SWAP2 SWAP1 POP JUMP JUMPDEST PUSH2 0x235 DUP2 PUSH2 0x223 JUMP JUMPDEST DUP3 MSTORE POP POP JUMP JUMPDEST PUSH0 PUSH1 0x20 DUP3 ADD SWAP1 POP PUSH2 0x24E PUSH0 DUP4 ADD DUP5 PUSH2 0x22C JUMP JUMPDEST SWAP3 SWAP2 POP POP JUMP JUMPDEST PUSH0 DUP2 SWAP1 POP SWAP2 SWAP1 POP JUMP JUMPDEST PUSH2 0x266 DUP2 PUSH2 0x254 JUMP JUMPDEST DUP3 MSTORE POP POP JUMP JUMPDEST PUSH0 PUSH1 0x20 DUP3 ADD SWAP1 POP PUSH2 0x27F PUSH0 DUP4 ADD DUP5 PUSH2 0x25D JUMP JUMPDEST SWAP3 SWAP2 POP POP JUMP JUMPDEST PUSH0 PUSH1 0xFF DUP3 AND SWAP1 POP SWAP2 SWAP1 POP JUMP JUMPDEST PUSH2 0x29A DUP2 PUSH2 0x285 JUMP JUMPDEST DUP3 MSTORE POP POP JUMP JUMPDEST PUSH0 PUSH1 0x20 DUP3 ADD SWAP1 POP PUSH2 0x2B3 PUSH0 DUP4 ADD DUP5 PUSH2 0x291 JUMP JUMPDEST SWAP3 SWAP2 POP POP JUMP JUMPDEST PUSH0 PUSH0 REVERT JUMPDEST PUSH2 0x2C6 DUP2 PUSH2 0x223 JUMP JUMPDEST DUP2 EQ PUSH2 0x2D0 JUMPI PUSH0 PUSH0 REVERT JUMPDEST POP JUMP JUMPDEST PUSH0 DUP2 CALLDATALOAD SWAP1 POP PUSH2 0x2E1 DUP2 PUSH2 0x2BD JUMP JUMPDEST SWAP3 SWAP2 POP POP JUMP JUMPDEST PUSH0 PUSH1 0x20 DUP3 DUP5 SUB SLT ISZERO PUSH2 0x2FC JUMPI PUSH2 0x2FB PUSH2 0x2B9 JUMP JUMPDEST JUMPDEST PUSH0 PUSH2 0x309 DUP5 DUP3 DUP6 ADD PUSH2 0x2D3 JUMP JUMPDEST SWAP2 POP POP SWAP3 SWAP2 POP POP JUMP JUMPDEST PUSH32 0x4E487B7100000000000000000000000000000000000000000000000000000000 PUSH0 MSTORE PUSH1 0x11 PUSH1 0x4 MSTORE PUSH1 0x24 PUSH0 REVERT JUMPDEST PUSH0 PUSH2 0x349 DUP3 PUSH2 0x285 JUMP JUMPDEST SWAP2 POP PUSH1 0xFF DUP3 SUB PUSH2 0x35C JUMPI PUSH2 0x35B PUSH2 0x312 JUMP JUMPDEST JUMPDEST PUSH1 0x1 DUP3 ADD SWAP1 POP SWAP2 SWAP1 POP JUMP JUMPDEST PUSH0 PUSH2 0x371 DUP3 PUSH2 0x285 JUMP JUMPDEST SWAP2 POP PUSH0 DUP3 SUB PUSH2 0x383 JUMPI PUSH2 0x382 PUSH2 0x312 JUMP JUMPDEST JUMPDEST PUSH1 0x1 DUP3 SUB SWAP1 POP SWAP2 SWAP1 POP JUMP INVALID LOG2 PUSH5 0x6970667358 0x22 SLT KECCAK256 BLOBHASH 0xB7 RJUMP 0xCDFA 0xEA LOG4 CALLF 0x28ED PUSH0 0xAF PUSH22 0x9A772CAF9345435C0AEBBB7D0F53629893A2CC64736F PUSH13 0x634300081E0033000000000000 "
		},
		"gasEstimates": {
			"creation": {
				"codeDepositCost": "192800",
				"executionCost": "68714",
				"totalCost": "261514"
			},
			"external": {
				"decrementUint8()": "26782",
				"incrementUint8()": "26740",
				"myUint()": "2425",
				"myUint2()": "2447",
				"myUint256()": "2425",
				"myUint8()": "2510",
				"myint()": "2492",
				"myint256()": "2448",
				"setMyUint(uint256)": "22580"
			}
		},
		"methodIdentifiers": {
			"decrementUint8()": "e62e0635",
			"incrementUint8()": "84ea3606",
			"myUint()": "06540f7e",
			"myUint2()": "aa9cc775",
			"myUint256()": "a7dbce1c",
			"myUint8()": "e2a4b2af",
			"myint()": "a59cb107",
			"myint256()": "343d39ff",
			"setMyUint(uint256)": "e492fd84"
		}
	},
	"abi": [
		{
			"inputs": [],
			"name": "decrementUint8",
			"outputs": [],
			"stateMutability": "nonpayable",
			"type": "function"
		},
		{
			"inputs": [],
			"name": "incrementUint8",
			"outputs": [],
			"stateMutability": "nonpayable",
			"type": "function"
		},
		{
			"inputs": [],
			"name": "myUint",
			"outputs": [
				{
					"internalType": "uint256",
					"name": "",
					"type": "uint256"
				}
			],
			"stateMutability": "view",
			"type": "function"
		},
		{
			"inputs": [],
			"name": "myUint2",
			"outputs": [
				{
					"internalType": "uint256",
					"name": "",
					"type": "uint256"
				}
			],
			"stateMutability": "view",
			"type": "function"
		},
		{
			"inputs": [],
			"name": "myUint256",
			"outputs": [
				{
					"internalType": "uint256",
					"name": "",
					"type": "uint256"
				}
			],
			"stateMutability": "view",
			"type": "function"
		},
		{
			"inputs": [],
			"name": "myUint8",
			"outputs": [
				{
					"internalType": "uint8",
					"name": "",
					"type": "uint8"
				}
			],
			"stateMutability": "view",
			"type": "function"
		},
		{
			"inputs": [],
			"name": "myint",
			"outputs": [
				{
					"internalType": "int256",
					"name": "",
					"type": "int256"
				}
			],
			"stateMutability": "view",
			"type": "function"
		},
		{
			"inputs": [],
			"name": "myint256",
			"outputs": [
				{
					"internalType": "int256",
					"name": "",
					"type": "int256"
				}
			],
			"stateMutability": "view",
			"type": "function"
		},
		{
			"inputs": [
				{
					"internalType": "uint256",
					"name": "_myUint",
					"type": "uint256"
				}
			],
			"name": "setMyUint",
			"outputs": [],
			"stateMutability": "nonpayable",
			"type": "function"
		}
	]
}